:020000041000EA
:1000000000B50C4B00219960022159610A49196021
:100010000A490B480160002159600121996001BC27
:10002000002800D0004707480749086003C880F34C
:10003000088808470000001800031F00180200038A
:10004000F40000180001001008ED00E000000000BE
:1000500000000000000000000000000000000000A0
:100060000000000000000000000000000000000090
:100070000000000000000000000000000000000080
:100080000000000000000000000000000000000070
:100090000000000000000000000000000000000060
:1000A0000000000000000000000000000000000050
:1000B0000000000000000000000000000000000040
:1000C0000000000000000000000000000000000030
:1000D0000000000000000000000000000000000020
:1000E0000000000000000000000000000000000010
:1000F000000000000000000000000000EA224C5D4B
:1001000000200420F7010010C3010010C5010010F9
:10011000C1010010C1010010C1010010C101001097
:10012000C1010010C1010010C1010010C701001081
:10013000C1010010C1010010C9010010CB01001065
:10014000CD010010CD010010CD010010CD01001037
:10015000CD010010CD010010CD010010CD01001027
:10016000CD010010CD010010CD010010CD01001017
:10017000CD010010CD010010CD010010CD01001007
:10018000CD010010CD010010CD010010CD010010F7
:10019000CD010010CD010010CD010010CD010010E7
:1001A000CD010010CD010010CD010010CD010010D7
:1001B000CD010010CD010010CD010010CD010010C7
:1001C00000BE00BE00BE00BE00BE00BE00F04BF888
:1001D000103800BEF2EB8871484F0010744F0010C9
:1001E0003402001090A31AE700202149086006C8D5
:1001F00081F3088810471F48006800282FD10DA4FC
:100200000ECC002902D000F012F8F9E71A491B4A77
:10021000002000E001C19142FCD1194988471949E9
:1002200088471949884700BEFDE701C901C29A42C3
:10023000FBD37047744F0010C00000204C03002017
:1002400000520010000004200000042000520010A2
:1002500000100420001004200000000070470B482C
:1002600001F090FF0047EFF30580C0B27047000037
:1002700008ED00E0000000D05003002074120020C0
:10028000B5180010B1030010A11900105756000056
:1002900006005250ABB36053944C0010060052500D
:1002A000861C0302A44C0010060052505422A29D4A
:1002B000AC4C001005005250DE65F468005200108E
:1002C000F8B5C0460448054B10B5834203D0044B33
:1002D000002B00D0984710BD4C0300204C03002099
:1002E0000000000006480749091A8910CB0F591869
:1002F00010B5491003D0044B002B00D0984710BD17
:100300004C0300204C0300200000000010B5074CF7
:100310002378002B09D1FFF7D5FF054B002B02D026
:10032000044800E000BF0123237010BD58040020E2
:1003300000000000804B0010054B10B5002B03D0CF
:100340000449054800E000BFFFF7CCFF10BDC046E0
:10035000000000005C040020804B0010F8B58026EF
:100360001048D024B60202F0B5F800253700240664
:10037000FF231A0021692A404A401340E361052007
:100380000021676100F044FDA6610A20002100F011
:100390003FFD054B01359D42EAD1044802F09AF831
:1003A000F8BDC0469C4B001010270000B44B001055
:1003B000F8B5224C02F03CF9200000F061F8D0239F
:1003C0001B06186A1E4A50402040D8629A6102E01B
:1003D000642000F035FD002003F042FE0028F7D035
:1003E000184804F057FBD0231B065B68164A1B0312
:1003F000DB0F13601ED18026D025B60404243700FD
:100400002D06FA206F6100F01BFD013CAE61FA2061
:1004100000F016FD002CF4D18024FA206402800044
:100420006C6100F00DFDAC61FFF798FF00210548FD
:1004300004F03CFB054802F04DF8DCE7FFFF6706DF
:10044000FF000702100F0020480200208C4B001014
:10045000094A830094464022634410B51C68C000DA
:100460006240C02414408022520113431C60034B9D
:100470009C466044416010BD04C001400040014002
:100480004021F0B5D6464F46464688468031C0B535
:10049000D0258C468027BB39002301248A46104A88
:1004A0002D067F01044211D0210099404646A962E1
:1004B000A96111687140664631403E0016433160C3
:1004C000084ED900B146564649440E6001334008F3
:1004D0000432202BE6D11CBC90469946A246F0BDC2
:1004E00004C0014004400140F8B5EFF3108C72B62F
:1004F0000D4F3B68002BFCD0BFF35F8FCB08C018BB
:10050000057807242B000C40E3400126334008D136
:10051000A64035430570BFF35F8F3B608CF31088B6
:10052000F8BD100001F03EFA2C0100D0F8B54746A6
:10053000CE46884680B5EFF3108C72B6214D2C68FC
:10054000002CFCD0BFF35F8F9A422DD8D408041939
:100550002678072537001540EF40F9071ED50721FB
:100560008946063908E0D408041926784D46370034
:100570001540EF40394211D001329342F3D20120AD
:100580004042BFF35F8F00220E4B1A608CF310883D
:10059000002811DB0CBC90469946F8BD0123AB4006
:1005A0001E4326701000ECE7BFF35F8F00232B6023
:1005B0008CF31088012040424346002BEAD0089873
:1005C00001F0F0F92C0100D00021044B044ABFF3E4
:1005D0005F8F02C39342FAD17047C046000100D03A
:1005E000800100D0044A1078431CDBB2172B00D9DD
:1005F000102313707047C0464C02002000B5054B15
:1006000083B00100009318221F230348FFF78EFFD9
:1006100003B000BDF84B0010F4070020024B18682F
:100620008007C00F7047C04600C00640F8B5040000
:1006300006200D0001F04AFB03000020002B4CD0E7
:100640002B4B2C49E3185A1E9341802212049446E6
:100650005B42294A9B0563441360284A13601800D3
:100660008A689043FBD1224B8021E3185A425341C0
:10067000234A5B0049000620995201F027FB29001C
:10068000C00001F0ADFDC30906D01E4A934225D932
:100690001D4F00231D4A01E040270122260080252E
:1006A0006262A36200232C36AD0135432B60062025
:1006B00001F00CFB3900800001F092FD6023E26A3A
:1006C00053406E221A4080235B0133431A60104B63
:1006D000236310232B600D3BA364F8BD7F221040E1
:1006E000013040089F011A003F180300D6E7C046BA
:1006F0000080FCBF00C0004000E0004000F000406F
:10070000AC0F0020FEFF0000C0FF3F00FFFF000015
:100710000103000083680B4810B5844661446244BD
:10072000090112019A18591854684B6801209C421B
:1007300001D802D00020C0B210BD12680B689A42E6
:10074000F9D8F7E7FFFFFF0F40BF002000217047F7
:10075000F8B557464E464546DE46E0B51F000CABA1
:100760001D780DAB1B7881469A46036816009846A3
:10077000002D3BD1987B002832D0424645464400AC
:1007800012682418033C121951780300A973002938
:1007900000D1E9730021050091705170117029E0BA
:1007A000D31814199D702278002A00D05A705B4625
:1007B000237043465D734B463200187D3B0000F0CA
:1007C000FBFC041E07D05346002B04D14B462900E6
:1007D000186800F0CFFE0E9B002B44D028001C7040
:1007E0003CBC90469946A246AB46F8BD2B006C0037
:1007F0006419033C1D4A94464A46926863449446F1
:100800001B010A9A63449A600B9A1E605F60DA606B
:10081000434600221B681B199A705A701A7043468F
:100820005B7B9B46002BC4D043462A009868594600
:100830005B6898475B4642465B005B44033B12683B
:100840000028ADD0D31814195A46A2701A78002A7D
:1008500007D11D705A46434628005A73AB45BFD195
:10086000A9E76270F5E72800BAE7C046FFFFFF0F6F
:10087000F0B5DE46454657464E46724B8200E0B51F
:10088000D55800238DB00B909B4627E0069A079B16
:100890001100194303D02B69002B00D093E02B6883
:1008A000DA7B002A07D051008A1819688C4649461D
:1008B0006244033A51704A46DA73EA684B469446FA
:1008C000013B63441A7801321A705B462B616B68F6
:1008D000BFF35F8F5A461A6084F3108800F00AFC59
:1008E0006A68EFF3108472B61368002BFCD0BFF374
:1008F0005F8F2B689C465B7B9946002B5BD0AA6878
:10090000514B90464B441B01984443461A685B6820
:1009100016001F00361A8F41002F6EDD0B9800F075
:100920004BFC0022002300270026089209936B68E5
:10093000BFF35F8F5A461A6084F31088002E76D07A
:10094000534618024B4639001843B0476A68069070
:100950000791EFF3108472B61368002BFCD0BFF33D
:100960005F8F079B002B91DA2B69002B97D006989D
:100970000799089A099B121A8B41089809990692BF
:100980000793079A914203D807D1069A904204D957
:1009900001225242D317069207935B46012104932A
:1009A0004B460391029301970096069A079B2800F5
:1009B000FFF7CEFE89E70022002300270892099363
:1009C00000260020B3E700F095FB069A079B12185B
:1009D0004B41994202D804D1904202D9012252429D
:1009E000D317594604910121039149460197029179
:1009F00000962800FFF7ACFE67E7002F01D1002E1C
:100A00008CD10021604600F009FD43461A685B68FE
:100A10000892099343469E68DF68EB684B44013BAC
:100A20001B789A461B021843286100207FE70028A4
:100A300000D053E70DB03CBC90469946A246AB4669
:100A4000F0BDC046780F0020FFFFFF0F10B5104C1F
:100A50006368002B00D010BD23000E4A10212068CF
:100A600000F0BEFC032000F039FB032000F010FC76
:100A70000949032000F05AFBFFF7B4FD074B9C46E1
:100A8000032360442375064B80006060DC60E2E76E
:100A900050020020150700107108001040000034BB
:100AA000780F00200048704750020020F0B54546FE
:100AB000DE4657464E46E0B585B00092019310AB36
:100AC0001B7805009B4600239A4698466A68EFF318
:100AD000108972B61368002BFCD0BFF35F8F2E68AD
:100AE000B47B002C50D067003F193368033FDB19FB
:100AF0005A78B273002A00D1F27342469A705A7043
:100B00001A70AA68534B94460099019AE3181B0186
:100B1000634419605A600E9A9A600F9ADA604246EE
:100B20003368DB199A705A701A70737B0393002B29
:100B300040D01900736822009C46B068E0470399D2
:100B400032688C464B006344033B00282BD0D719F6
:100B5000D318B9701A78002A00D073E01C70039B78
:100B600073739C4227D0EB681B19013B18786B68A4
:100B7000BFF35F8F42461A6089F310885346002BFB
:100B800026D10002204307E06B68BFF35F8F1C6033
:100B900089F310880120404205B03CBC904699463C
:100BA000A246AB46F0BDD318D7199C703A78002AFC
:100BB00044D139707473287D009A019B00F0FCFACF
:100BC00082460028CFD02100286800F0D3FCCAE775
:100BD0005B46002B30D00E9B0F99002098470300F6
:100BE0000B4329D006000F1E15DA00980199020068
:100BF0000B00921BBB41994202D808D1904206D902
:100C000001235B42DC1700930194DA465EE7009211
:100C10000193DA465AE700F06DFA36184F41009614
:100C20000197B942ECD8F0D1B042EED901235B4232
:100C3000DC1700930194E8E70020ADE75A70039BAE
:100C40003B70B7E77A701C70039B73739C4200D0B3
:100C500089E7B0E7FFFFFF0FF0B557464E46454620
:100C6000DE460400E0B50D0006267642F717361979
:100C70006F4183B08F4200D97FE07BD000F03AFA19
:100C800032003B00121A8B41002B00DC80E05C4BF1
:100C900099465A68EFF3108B72B61368002BFCD09C
:100CA000BFF35F8F4B461B6898469B7B9A46002B91
:100CB00074D05B0053444246033B9C464146126855
:100CC0000093624453788B73002B00D1CB730023C5
:100CD000494693705370137089684A4A8C4652444F
:100CE000494912016244166057609160D3600099CF
:100CF00042468C46126862449370537013704346A8
:100D00005B7B0193002B69D0190040464346524655
:100D10005B6880689847019B9C465A006244033A8E
:100D200000284ED0009940468C46036801999A18D5
:100D3000634499701178002900D05970534613709C
:100D40004246019B53739A454BD04B465B68BFF3B9
:100D50005F8F00221A608BF310882C4A390002E062
:100D6000994223D120BF536A9942FBD8906AB0427E
:100D70001CD2F5E7864200D880E70026002700F065
:100D8000B9F932003B00121A8B41002B00DD7EE7DF
:100D9000002B0BD1002A00D079E707E04B465B68B7
:100DA000BFF35F8F52461A608BF310882000290032
:100DB00000F0ACF903B03CBC90469946A246AB4665
:100DC000F0BD43461968009B8A18CB1851469170B4
:100DD0001978002900D05170019A1A704346524682
:100DE0005A734B463200187D3B0000F0E5F90028AD
:100DF000ABD04B465146186800F0BCFBA5E7C04697
:100E000050020020FFFFFF0F49070010004005407F
:100E100070B504000D0000F06DF902000B00200019
:100E20002900801859418B4205D901204042C11741
:100E3000FFF712FF70BD8B42FAD18242F5D8F7E777
:100E400070B5060000F056F9FA2204000D00920079
:100E500000233000002101F029FA001969418D4278
:100E600005D901204042C117FFF7F6FE70BD8D4243
:100E7000FAD18442F5D8F7E7F8B557464E46DE4634
:100E80004546664CE0B581460F006268EFF3108876
:100E900072B61368002BFCD0BFF35F8F2668B57B5A
:100EA000002D00D19FE06B005B19033B9A4633682D
:100EB00053441A005B78B373002B00D1F373002303
:100EC000937053701370A168554A8C464946AA180E
:100ED0001201624411605349D360576091603268D7
:100EE0005244937053701370737B9B46002B6DD0EC
:100EF0002A001900B068736898475B465A005A4444
:100F0000033A002857D0594633689A1853449970C9
:100F10001178002900D059705B46157073735D45D8
:100F200055D00026E36862685B19013B1B78BFF36C
:100F30005F8F0021116088F31088002E59D11B02A9
:100F40001D4320BF6268EFF3108872B61368002B50
:100F5000FCD0BFF35F8FFF232068E9B2427B2B40B8
:100F60008A4250D05A00924602689A4494465246A9
:100F70006244033A9278002A45D123699D4200D108
:100F800022616368BFF35F8F00221A6088F31088C4
:100F9000254A536A9F4207D8926A01264A4503D2DE
:100FA000FF1A7B1E9F41FEB230003CBC9046994622
:100FB000A246AB46F8BD534631688A18CB189570E7
:100FC0001978002900D051705A461A707573207D27
:100FD0004A463B0000F0F0F8061EA2D02900206827
:100FE00000F0C8FA9EE76368BFF35F8F1D6088F367
:100FF00010880D4A0026536A9F42D5D8926A01365E
:101000004A45CDD3D0E7E2682D0A94466344013BBC
:101010001B78AB42B5D100F0ADFAB2E75002002028
:10102000FFFFFF0F4907001000400540F0B5C6461E
:1010300000B5EFF305833F22134018001038EFF39B
:10104000108772B61F4D2A68002AFCD0BFF35F8F4D
:10105000012211008140884644461B494C631B4CC9
:101060002678A4463400C440224007D1BFF35F8FE6
:101070002A6087F3108804BC9046F0BD4C6A14497E
:10108000820051588C420FD3124BD25843469E4394
:1010900063461E70BFF35F8F00232B6087F31088B9
:1010A000002AE8D09047E6E70B4A9B009446634449
:1010B0001A681A60BFF35F8F00232B6087F31088D4
:1010C000D9E7C046280100D000400540AA0F002003
:1010D000900F0020E4070020D03F054010B501002C
:1010E000024A0348FFF700FA10BDC046144C001036
:1010F000A70F0020044A516A00E01900906A536A61
:101100009942FAD17047C04600400540064A536AEA
:101110009942FCD807D1044B02E05A6A914202D1AD
:101120009A6A8242F9D370470040054070B50400C6
:101130000D00EFF3108672B61A4A1368002BFCD02C
:10114000BFF35F8F002D1BD0200000F06FFE16490B
:1011500088420AD0200000F071FE0121200000F03A
:101160004BFE0123A340114A1360114BA400E5502C
:10117000BFF35F8F00220B4B1A6086F3108870BD9F
:101180000B4BA200D5500122A2400A4920000B7847
:1011900093430B70044900F07BFE0021200000F017
:1011A0002BFEE5E7280100D02D1000103860054027
:1011B000E4070020AA0F0020F0B5D6464F46464669
:1011C0002E4CC0B5656A00E00D00A66A616AA942AE
:1011D000FAD1AB4248D9EFF3108972B6284C216896
:1011E0000029FCD0BFF35F8F264901268C46097881
:1011F00086400F00884661463743FFB20F70041DDA
:101200001E49A400204D4E636250840063510D6A54
:10121000002435421BD04D6A00E025008C6AA246AE
:101220004C6AAC42F9D1AB4224D801D1524521D805
:10123000474521D0114B154A1E625E631F2318409B
:101240001E3B834013606346424601241A70BFF37D
:101250005F8F00220A4B1A6089F3108820001CBCA3
:1012600090469946A246F0BDAB4201D1B242B2D8F7
:101270000124F3E70024EAE70124E8E70040054001
:10128000280100D0AA0F0020900F002080E200E08B
:1012900010B5EFF3108472B60A490B68002BFCD02E
:1012A000BFF35F8F01238340074A08481362027827
:1012B0009A430270BFF35F8F00230B6084F31088A2
:1012C00010BDC046280100D000400540AA0F0020F4
:1012D000024B9C4661448900016070474000003425
:1012E00010B50400FFF77EF901002000FFF7F0FFC2
:1012F000FF232371BFF35F8F10BDC04610B50400FC
:101300000120FFF77BF901002000FFF7E1FFBFF3A9
:101310005F8F10BDF8B54746CE4680B54C000368D8
:101320006418033C1A19567807000D00002E04D1EA
:1013300028000CBC90469946F8BD71008919033904
:101340008846434459788946002159705170002DD0
:1013500011D07B6832002900806898473B680028DC
:1013600032D01A1943449D701178002900D0597069
:101370001670A04600E035004B46002BD8D04946F9
:101380003800FFF7C7FF041ED2D002007B68290097
:10139000B868984763001B19033B3A68002809D1D5
:1013A000D318424494701978002900D051701D70F0
:1013B0002500BDE74146D31851189D700A78002AD0
:1013C00000D05A700C70B3E742461C199A18A670E8
:1013D0001378002B00D0637015703500CCE7C04641
:1013E00010B583600023CCB24373013304734260B1
:1013F0008373C4730068012C06D9421C0133DBB22D
:10140000137003329C42F9D8FF2319404B0059183E
:10141000002340180338437010BDC046F0B54E4657
:1014200057464546DE46E0B5467B03687400A4197E
:10143000033C1A19177883B005008946002F1ED186
:10144000002911D0C07B00282AD041000918591862
:1014500003394E70EE73002F06D07900C919033995
:1014600088460021434499700023300053706F7305
:1014700003B03CBC90469946A246AB46F0BD79000D
:10148000C91903398846591848788246002809D175
:1014900049460029E5D0E87B0028D6D1EE73DCE789
:1014A000EE73E1E742005244033A93465B445A78B4
:1014B000019200225A704A706B6802003900A868D5
:1014C00098472B68002830D1414650465A46591853
:1014D0009A1888701078002800D048701770D84685
:1014E0005746019A002A2DD011002800FFF712FF5D
:1014F0008246002825D0020039006B68A86898470A
:1015000053465900514403392B6800281CD04246E9
:10151000591898188F70027894461A196446002C4E
:1015200000D04C7051460170B2E7594642465918F6
:101530009A188F701078002800D0487051461170AA
:10154000CFE72B681A19A3E75A18984493465046D8
:10155000424690705A461278944660461A190028FE
:1015600002D0404664464470584688460770574645
:101570008EE7C046F0B54546DE4657464E46E0B5D6
:101580000C0083B005000023002927D06600477BAC
:1015900001683619033E8819A74233D08278002AA1
:1015A0001CD053009B18033BCB181A78A2421FD1C2
:1015B00042781A7000230278837043709146002AA3
:1015C00033D1EA7B002A66D053009B18C91803392F
:1015D0004C70EC730023437001236F73180003B049
:1015E0003CBC90469946A246AB46F0BD002AE1D0ED
:1015F00053009B18033BCB185A78A242F6D142788D
:101600005A70D7E702780192002A46D1EA7B002A75
:101610003FD053009B18C91803394F70EF73002354
:101620004370019B6B730123D8E752004A44033A8D
:1016300090468A185778002F42D1EB7B002B00D0C0
:1016400029E14F466E7BEC73002393704370002EAC
:10165000C2D03A006B683100A868984773009B19A4
:10166000033B2A68002808D0D318424496701978A2
:1016700000290CD11F703700AEE74146D31851182E
:101680009F700A78002A00D05A700E70A4E751703B
:10169000F0E7EF73C3E7EC739CE71400A446520035
:1016A0006244033A90468A185478A146002C58D1D7
:1016B000EB7B002B00D0F7E0EF7300239370AEE7D5
:1016C0007800C01903388246514448784B705370F3
:1016D0006B6883463A004946A86898472B680028FB
:1016E00000D1A2E042469818524699184A468A709C
:1016F000019002000078002801D0019A487017700C
:101700004F465A46002A28D059462800FFF702FEC5
:101710008146002820D002006B683900A8689847ED
:101720004B465B004B44033B9C4600286DD0424631
:101730002B689818624699188F70019000780028DD
:1017400000D083E04A4601980270E97B98196E7BCD
:10175000002951D1019A76E72B6842469A180192E6
:10176000F3E76000484403388246514448784B70A0
:1017700053706146220083466B68A86864469847A8
:101780002968002878D0524643468A18CB189470AE
:101790001878002800D050704A46C2461A705B463E
:1017A000002B50D059462800FFF7B4FD8046002892
:1017B00048D0019C020021006B68A8689847434606
:1017C0005A004244D31E2968002844D05246CB1800
:1017D0008A189C701078002800D058704346137007
:1017E000EB7B8819002B00D166E75E00F318C9185F
:1017F00003394F70EF7360E74A00944661445B1809
:10180000033B5C70019AEC731EE729684846CA18CE
:101810004346CB1898701078804688194646002EAB
:1018200000D05E701770E04607E7414652465918EF
:101830009A188F701078002800D048704946D0461A
:1018400011705EE729685346CA18C9E74A464870CE
:1018500001990A7079E7CA1853464046CB18987028
:101860001078844664468819002C00D05C70019B77
:101870001370434601931BE75346CA184346484634
:10188000CB1898701078002800D05870019B137006
:101890004B46019383E703267343C91803394C7001
:1018A0006E7BEC734F46CFE603267343C9180339AA
:1018B0004F7001E72B4B2C4A70B51A602B4A2C4B0A
:1018C0002C491A6010008B689843FBD12A4C2B4D91
:1018D000AC4209D20322231D0335ED1A9543ED18BE
:1018E00008CC9847AC42FBD100F07AF8244A204B50
:1018F0001A60204A9368DB018033FBD14022214BE0
:10190000214C224D9A675A671A67DA66AC420CD2AC
:10191000230007350833ED1A393A9543ED182000B6
:101920000834FFF7DDFCAC42F9D1194D194CC02247
:10193000A168280000F02CFDA560FEF745FE00F030
:10194000DFFBFFF783F8144C144DAC4209D203229D
:10195000231D0335ED1A9543ED1808CC9847AC428A
:10196000FBD170BD00E00040BFCDFFFFFE7F3C001B
:1019700000F0004000C00040380300204803002071
:10198000FFFFFF0100F0014030030020380300207A
:101990000000002000ED00E0480300204C03002080
:1019A00000BEFDE70FB400B5084883B000F092FD1B
:1019B000049B002B07D005A91800019100F0C2FB81
:1019C000034800F087FD00BEFDE7C046444C001010
:1019D000544C001010B50148FFF7E4FF384C0010DC
:1019E00030B50C2083B000F077F9FEF717FE002821
:1019F0000ED09C4B9C4A1A605A609A60DA601A6159
:101A00005A619A61DA611A62984A5A6203B030BD2B
:101A1000974CA06700F0B2F90122964B1A60636CF4
:101A2000012BFCD10322944B1A60914A936B012B3A
:101A3000FCD1C022914B92011A60914B91491A60DE
:101A400010008B689843031EFAD1022406338E4A95
:101A500001218E48009400F0A5F905238C4A0094DA
:101A600001218C4800F09EF98B4B5A68FF2A02D85E
:101A7000802252005A6080227A4C7F4B21691201E9
:101A8000854D1A60002900D0E5E0E021824B02205C
:101A90001A681140802252012A4311601968484097
:101AA00003210140116004219A681142FCD0802278
:101AB000802192012A4309011160802252005A605C
:101AC000764B2361764B5968FF2900D8C1E0032289
:101AD000684B73481A60012103009A681142FCD0D8
:101AE000E0251A68154080225201024315601B68E8
:101AF0004B400321194011600221694A9368194241
:101B0000FCD0802380219B010343090119608021BF
:101B1000644B490051606361634B5A68FF2A00D8E7
:101B200059608022614BE16912015F4D1A60002902
:101B300005D0606900F054FB01300138FDD1E0228E
:101B400059490B681A4080235B012B431A6080239C
:101B500080229B012B4312011A608022424B5200CB
:101B60004A60E361524B5968FF2900D85A608022CD
:101B7000504B216A12014E4D1A60002905D0606950
:101B800000F02EFB01300138FDD1E02248490B68FE
:101B90001A4080235B012B431A60802380229B0123
:101BA0002B4312011A6080235B004B602E4B424A8C
:101BB0002362424B5968914201D801325A60802217
:101BC0003F4B616A12013D4D1A60002905D06069E2
:101BD00000F006FB01300138FDD1E02237490B68E7
:101BE0001A4080235B012B431A60802380229B01D3
:101BF0002B4312011A608023DB024B601B4B636294
:101C0000304B5A68FF2A02D8802252005A60802244
:101C10002D4BA16912012B4D1A60002905D0606976
:101C200000F0DEFA01300138FDD1E02225490B68D1
:101C30001A4080235B012B431A60802380229B0182
:101C40002B4312011A6080235B004B60154BA3618C
:101C5000DCE65A603BE7606900F0C2FA0130013807
:101C6000FDD112E7F8070020006CDC021BB7000072
:101C7000008000403CB0004030B0004000E0004038
:101C800000F0004000C00040002F68590080024072
:101C900000389C1C00C0024030800040001BB70090
:101CA0003C800040405973075480004054B00040CD
:101CB0006080004060B00040FFFF03006C80004087
:101CC0006CB000404880004048B00040014B8000AC
:101CD000C0587047F807002080239B001843014B31
:101CE000D86270470080054010B58024194BE40588
:101CF0001C60002827D00123174C1843174BDC61C8
:101D0000174C44401C62596298628021114BC905EE
:101D10001960144814490860E021C9041960002AB8
:101D200014D053019B1A9B009A18104B12019A422F
:101D30000DD90F4A13601A00084B5A6080220D4BD0
:101D4000D2051A6010BD054BD861DEE70A4A084B80
:101D50001A60F1E700B00540D3C007B0008005402D
:101D60002D3FF84FFCFF010008200140FFFFFF005E
:101D7000700F002000A00540A0860100AA23064A9B
:101D80001B0113602F230549D360054B196053686D
:101D9000002BFCDA7047C0460040024000B0FA0059
:101DA0000060024070B51D0001235B4243600023C8
:101DB0000400836001600C20160000F011FA42015B
:101DC000121A9101891AC90009188901300000F01E
:101DD00007FAC022231D92011A432123A060136039
:101DE0002368002BFCDA049B2D041B031D430823EE
:101DF000E560136070BDC04601238340002902D115
:101E0000034A13607047034A1360034A1360F9E7FB
:101E100080E100E080E200E000E100E00123834097
:101E2000014A13607047C04600E200E0024B1030E8
:101E30009B688000C058704700ED00E070B50D0051
:101E4000EFF3108672B60F4A1368002BFCD0BFF375
:101E50005F8F0D4B10309B6884001B590B4A9342D7
:101E600003D09D4201D0FFF7B5FD074B9B681D5184
:101E7000BFF35F8FBFF35F8F0022024B1A6086F3C0
:101E8000108870BD240100D000ED00E0CD010010ED
:101E9000F0B54546DE4657464E46E0B50D0083B0E8
:101EA000EFF3108A72B65C4A1368002BFCD0BFF3C4
:101EB0005F8F1022914681444A46584B96009B689A
:101EC0009C59574B98469C4205D0AC424FD0554F39
:101ED000E31B2F2B12D9514B9B689C51BFF35F8F93
:101EE000BFF35F8F00224C4B1A608AF3108803B057
:101EF0003CBC90469946A246AB46F0BD01238340C8
:101F00009B465A46484B1B681A4000925A46474B1C
:101F10001A60BFF35F8FFEF7A6F90190002803D087
:101F2000814501D0FFF756FD0123220006209A4388
:101F30001300DB1B5B4144495943090D93688C46F0
:101F400010569D420AD151E043001B1806209B0009
:101F5000FB1899681856A94211D01A000028F3DA24
:101F6000009B002B05D15A46304B1A60B3E71C008A
:101F7000B1E75A462E4B1A602B4B1A60ABE700288C
:101F800025DB4200111889007D188846A9689960F0
:101F9000E979D971062169569971A9797F2913D8F0
:101FA000AD88F91A6D052D1545444919E025090537
:101FB000490D2D022943998012181E4B9200BF181B
:101FC0001A781870BA71CBE7BD210902F3E70199BD
:101FD000002913D1002A0FD0FF209071164890805D
:101FE000144A1078987163461370B9E713000028FB
:101FF000C7DA019A002A01D14446F1E70F4A104995
:10200000D21A083A5002400D014399800D495208F6
:102010000A43DA80A4E7C046240100D000ED00E0C6
:10202000CD0100107802002000E100E080E100E036
:1020300080E200E0A80F002000BDFFFFB2020020F8
:1020400000F0FFFF00F8FFFFAAAA0000F8B5012585
:1020500004000543FEF707F9EFF3108672B6214A34
:102060001368002BFCD0BFF35F8F1F4A2100891A31
:102070004941224B4B431B0D1C4980008F685BB2CA
:102080003F58AF421CD006215156994226D012210A
:102090005156994224D01E215156994214D02A21DA
:1020A00051560320994210D0114A11781370A17132
:1020B000BFF35F8F00220B4B1A6086F31088F8BDC8
:1020C0008A680C491150EFE7022041000918890085
:1020D0005218FF21917108499180E5E70020F4E74B
:1020E0000120F2E7240100D07802002000ED00E09A
:1020F000A80F0020CD01001000BDFFFFAAAA00001C
:10210000F0B500220324FF27802620003D00094B64
:1021100011009C461040C0008540A14361440B68FB
:102120000132AB43350085402B430B60202AECD1B4
:10213000F0BDC04600E400E010B5002801D000F07A
:1021400073F910BD10B5094A84B01468002C09D089
:10215000012200910300524203A90548A047012033
:1021600004B010BD00F0B6F90020F9E76C0F0020B4
:102170003921001001480421014B1847C0020020FA
:10218000A5210010142310B50100188804331B8802
:10219000984710BD162310B50100188802331B881C
:1021A000984710BDF0B5C64600B5002916D01423D7
:1021B00004000125984618278900461843462168DF
:1021C00018883B88984701C4431E98414042054007
:1021D000A642F3D1280004BC9046F0BD0125F9E7E2
:1021E000134A936F9B0813D210665166002905D0DD
:1021F000FFE7FFE7FFE7516F106F704704B5002856
:1022000001D00020C04302F09BFC002104BDC04669
:10221000936F5B08FDD3F0B5946ED56E576F166F54
:10222000FFF7E2FF9466D56657671667F0BD0000BA
:10223000000000D0132370B51C78012C0CD015DDE4
:102240000C48FFF7A7FF0C4D01008022280000F08A
:102250009FF8022C0BD070BD074D084A29002B00B7
:10226000803104C38B42FCD1AA64F4E7024D034AD7
:10227000AA64F0E753440000B00F00208122001050
:1022800007B5604601880A0A0230DF2AFAD1C9B2CE
:10229000820804D3028840880004104300E00068EC
:1022A000014A5050039007BDB00F002051434343F3
:1022B000C9188C46110C83B24B4310B4040C614313
:1022C00092B280B2504362431C041B0C001910BC34
:1022D00059411304120CC018514161447047000069
:1022E000132310B51C781348FFF754FF012C0BD0B3
:1022F00004DD01008022104800F04AF80F48FFF783
:1023000041FF0F4B186010BD0B4C01005422200000
:1023100000F03EF80B4B6365A365E36523666366D7
:10232000A366E36623676367A367E3672362E361EA
:10233000E4E7C04653460000B01000204C330000D4
:10234000B01100204923001007B5604601880A0A31
:102350000230DF2AFAD1C9B2820804D30288408849
:102360000004104300E00068014A5050039007BD8C
:10237000B010002001480421014B1847D002002072
:10238000A5210010014B1B6818470000D002002057
:10239000014B5B6818470000D0020020F0B5C6462C
:1023A000070000B50C00151E30DD0A78037C002004
:1023B0000A2A2ED00121012D1BD01A4B984602E08B
:1023C0003100AE4215D04B1EE25C635C4E1C0A2B02
:1023D000F6D10D2AF4D03B68884203DA091A201896
:1023E00098473B6802214046984730003100AE4292
:1023F000E9D1854203DD291A3B6820189847641902
:10240000013C23780D3B5A4253413B7404BC904637
:10241000F0BD002BCED1034802213B689847012034
:10242000C8E7C046B84C0010F0B5CE46474680B568
:1024300083B06B46DE1CD02330701B061C68224B19
:10244000804601A91800994602F082FB071E2DD193
:10245000019B9C4225D0484602F08AFB1B4B01277A
:102460001C68002C26D01A4D02E0E468002C10D025
:102470002368002BF9D02A68002A01D0A242F4D1A7
:10248000627C002A1AD1012130009847E468002CB0
:10249000EED1002F0ED1404603B00CBC90469946B9
:1024A000F0BD0A4B1C68002CDDD1F4E7074B1C681B
:1024B000002CD8D1484602F03BFBECE7012231006A
:1024C0002000FFF76BFFD0E73003002088080020D2
:1024D0008C080020F0B5DE46454657464E46E0B52E
:1024E00083B0804602F0F0FAD02301AD1B0607004E
:1024F00029003C481C6802F02BFB834600284DD184
:10250000019B9C4244D0374802F032FB364B9A463E
:102510001C6801239B46002C45D00A2399463B00AA
:10252000324E4746984602E0E468002C19D02368F2
:10253000002BF9D03268002A01D0A242F4D1627C8B
:10254000002A40D14146380098474B462B70627CA8
:102550002368002A2BD1012128009847E468002C29
:10256000E5D15B464746002B1DD153461C68002C25
:1025700006D06368002B2CD09847E468002CF8D173
:10258000380003B03CBC90469946A246AB46F0BD2D
:10259000154B1C689A46002CBFD1F1E7124B1C6802
:1025A0009A46002CB9D10F4802F0C2FADDE7227C2E
:1025B000002A12D102210E4898472B780D3B5A422F
:1025C00053412374B0E7424639002000FFF7E6FE8E
:1025D000BBE7E468002CCCD1D2E701212800984762
:1025E000EBE7C04630030020880800208C0800205C
:1025F000B84C00100D4B1A68002A12D0824203D149
:1026000009E0984207D01A00D368002BF9D10029BD
:1026100000D0D06070470029FCD1C368D360C1608E
:10262000F8E70029F6D01860F4E7C04688080020D3
:1026300010B500F047F800F09BF910BDF0B5002987
:1026400015DD0E4B0D271A680D4B4118D3185C424F
:1026500063410C4C5B001E5F20240578AE4207D01E
:1026600093691C42FCD1013015608842F5D1F0BD60
:1026700093691C42FCD11760F2E7C046A00F00200E
:102680000080FCBFAC0F002030B5002915DD0C4BDD
:102690001A689369DB0610D400251024013593696C
:1026A0001C42FCD113680370A94204D09369013025
:1026B0001C42F3D02900080030BD03204042FBE754
:1026C000A00F0020E12110B50B4B0C481B780C4BE0
:1026D00049021B780B4B1860FDF7A8FF0221002070
:1026E000FDF7B6FE02210120FDF7B2FE01210648EA
:1026F000FFF780FF10BDC046684F00100040034048
:102700006C4F0010A00F0020E00200207047C04670
:102710000022014B1A707047A90F0020012070475A
:10272000012070474B790020FF2B00D070478B7938
:10273000002BFBD1CB79012BF8D1082AF6D98A7866
:10274000014B09301A70F1E7A90F002070B5144A47
:102750004B79087912781B02034300209A4200D07B
:1027600070BD4B78012B08D0022BF9D100206422D8
:102770000021FFF7B9FA0120F2E7CC788A78240229
:1027800014430500E20502D5620A93401D00054886
:10279000FFF7F8FC7F210300214028009847C0463E
:1027A000A90F002055420000012303700048704724
:1027B000FC4C00104A780B7812021A438B7810B543
:1027C0001B041A43CB781B0613439622D200934274
:1027D00000D010BD0348FFF7D5FC0021030008001E
:1027E0009847C0465542000070B5184C82B00500AD
:1027F0000E00200001A902F0ABF9002808D1D02377
:102800001B061B68019A9A421CD0200002F0B0F906
:10281000002001F025FC002807D103256D4220008F
:1028200002F086F9280002B070BD002001F032FCF1
:102830000028F2D029003200002001F03BFC051EE8
:10284000EBD0ECE703256D42ECE7C046880F002093
:1028500010B51F20FFF7E2FAFA200021800010BD1A
:1028600010B5064C0021200002F072F9002804D0B7
:1028700000F066FD200002F05BF910BD880F00201B
:10288000F0B546464F46D646C0B5364F82B0804674
:102890000E00380001A902F05BF900280ED1D02308
:1028A0001B061B68019A9A4205D102B01CBC9046D7
:1028B0009946A246F0BD380002F05AF9002001F016
:1028C000CFFB002832D00024002E34DD264B994661
:1028D0009A4612E0002843D100F032FD002001F0BA
:1028E00071FC002001F0BCFB002824D0002001F086
:1028F000A9FC002823D0A6421DDD0020351B01F0D5
:10290000A1FC8542E6DC43462A001919002001F0AB
:102910000BFC050000F014FD002001F053FCFEF755
:10292000E9FB4B46641918605960E4E70020002178
:102930000D4B18605960380002F0FAF8B5E7FEF761
:10294000D9FB53460D001A685B680021844607488E
:1029500012184B419D42EED8CDD19445CBD9EAE730
:102960000500D0E7880F00205004002020A10700B8
:1029700010B51D4B84B01B7801F070FE1B491F2061
:10298000FFF75CFA01211F20FFF736FA1848FEF71F
:10299000A7FCFEF787F80400FEF7ACFBFA22002341
:1029A000920012184B41994218D901225242D31772
:1029B00001210291002101910E4920000091FEF7B2
:1029C00075F80400631E9C41E4B2002803D0012185
:1029D0000948FFF70FFE200004B010BD9942E7D16F
:1029E0009042E2D8E4E7C046704F00106128001022
:1029F000880F002051280010F40200200048704782
:102A0000C84D001000487047744D001010B50028E4
:102A100006D1114B11484380063BFF3B038010BD9C
:102A2000052817D80E4B8000C25801230B4805E03B
:102A30005C00013301530132142B08D011780029B6
:102A4000F6D1C0225B00920013439BB2E6E7CA2393
:102A50009B00E3E70020E2E7090400006008002093
:102A6000DC4D0010F0B54546DE4657464E469823ED
:102A70008024E0B5414A6402D35885B09846234289
:102A800024D00121392000223D4B1954597147317E
:102A90005A541A753B490132002001F0CBF88022CC
:102AA000394B92021A65394B03934346DB0613D424
:102AB000802342465B011A423ED1444558D105B0BD
:102AC0003CBC90469946A246AB46F0BD102303930A
:102AD00043460024DB06EBD5284B9F6D002F25D005
:102AE0009946294B002601259B4603E06D000136DF
:102AF000202E1BD03D42F9D04B46DB6D5B469D65D9
:102B0000012334249A46B3435C4368237208534339
:102B1000E4181B4B9C466444200000F081FA002816
:102B20001AD1AF4301366D00002FE1D18023424618
:102B30005B01039C1A42C0D00022154900200A7094
:102B40000E491C430A600132012101F001F8802284
:102B50000D4B12031A65B0E75346E2692179002054
:102B60000093002301F08EF8200000F0E1F9D8E78F
:102B7000414608486140FEF715FFC046000011506D
:102B8000900800200000105000301150100001008B
:102B9000A60F00201C4E001010B501210520FFF7E4
:102BA0002BF910BD094B10B50122197039210023F2
:102BB000074842544271473283540375002234302F
:102BC0000133002100F0B0FA10BDC046A60F00206E
:102BD000900800208022024B5202DA647047C046FF
:102BE0000020115070B5050000F07AF91D4905204C
:102BF000FFF724F9D0221C4CD20000212000FFF75F
:102C0000C1FB0023194A1A4913701A4A4020116067
:102C1000352601221849E2706271E062E1600B60C2
:102C2000A2550236A3552066013E2430A3552354F5
:102C3000124913484B36FF36A36021612270268764
:102C400020640360E3633433E2540E4B61641A641E
:102C500080229205DA6490220B4928009950FFF7F0
:102C6000B9FF70BD652A001090080020A60F002053
:102C700080011050740F002084001050000110508B
:102C80008000105000001150101001000B785B06FE
:102C900002D14B78052B09D0012139200022064BA7
:102CA0005971195447311A755A547047034B1A78A1
:102CB000034B1A60F0E7C04690080020A60F0020E2
:102CC00000001150F8B54746CE46072380B50A7973
:102CD0008E784879CF787F2168250340BF071B0293
:102CE000BF0F1343FAB2914672B2944631404D433E
:102CF0003422A8466546F40962433D48424482189E
:102D00001671EE0F5670EE43F60FD6704E424E41DE
:102D1000917056714A46012A5CD0402B5DD834220E
:102D2000682662434E439219821816006546303673
:102D30003770D362CE00002D3CDB2E4D0027AC4611
:102D40006644D660376000293CD02B4DCE00AC469F
:102D500066449660682534224D43AC466243274F53
:102D600062443E6882181661402B00D240233F2205
:102D7000F318134201D0934340333B60204B682249
:102D80007340A02636061E434B469D0634234A4315
:102D900063439B18C3189B6835431D6034235C4311
:102DA00034335943673B6118435401200CBC9046AF
:102DB0009946F8BD134D0027AC466644D66037608F
:102DC00000290ED1342300226343C3189A600E4AAF
:102DD0001A61E3E70D4A9342A1D919000C48FEF7A6
:102DE000E1FD074DCE00AC4666449660B2E7C046B2
:102DF000900800208400105004001050740F002030
:102E0000000010508000105000011050FF0300001F
:102E1000F44D001010B50C00342011001A00E30925
:102E200058437F231C40173B6343C018034BC01813
:102E3000012300F079F9012010BDC0469008002060
:102E400070B57F25342068230D40CC096B43604367
:102E50000C4EC01830188378002B05D143785A42A5
:102E60005341094A0133936680220849120100F058
:102E700069F8682334215D43614349197118673B40
:102E80000B7570BD9008002000201150FFF7FFFF68
:102E900070B57F25342068230D40CC096B43604317
:102EA0000C4EC01830188378002B05D143785A4255
:102EB0005341094A013393660022084900F042F861
:102EC000682334215D4300236143491971180B7550
:102ED00070BDC0469008002000301150FFF7FFFF82
:102EE00080220E4B520410B51A600D4B0D491A602A
:102EF00010008B689843FBD10B4C9C2200212000D2
:102F0000FFF740FA8022002152010848FFF73AFA01
:102F1000092363670333A36710BDC04600E0004088
:102F200000F0004000C000400000115000001050B0
:102F3000002332220375437583548361C3610362A6
:102F40008362704710B5C368002901D01C68214016
:102F5000002A11D08024E400114322420CD01A68C8
:102F600022420BD1094A0A401A60FFE7FFE7FFE758
:102F7000FFE7FFE7FFE7C368196010BD4378044A25
:102F80009B0081789A580348FEF70CFDFFFBFFFF7A
:102F900008030020304E001070B5C3780400056AA5
:102FA000002B22D08022D2002A436379002B02D04A
:102FB000802189010A4301214B4063712423E35C92
:102FC000002B02D08023DB011A43E1680B685B050C
:102FD00018D4104B13400B60FFE7FFE7FFE7FFE754
:102FE000FFE7FFE7E3681A6070BDC269836A944631
:102FF00063442A0019000069FFF7CAF9842212020B
:103000002A43D2E76378044A9B00A1789A58034880
:10301000FEF7C8FCFFFBFFFF08030020304E001046
:10302000F8B5467D0400002E00D162E0C368C07888
:103030001D68E169AD05AD0D002837D16918E16162
:10304000A269551A402D2FD86B189B1A5F427B41FD
:103050002427DBB22562E3558A424FD322D00028D1
:103060003BD08022D20015436279002A02D0802111
:1030700089010D4301214A406271002B02D0802357
:10308000DB011D43E26813685B053AD4214B2B40FA
:103090001360FFE7FFE7FFE7FFE7FFE7FFE7002633
:1030A000E3681D603000F8BD4025CDE7A36A2A0023
:1030B00058182169FFF76CF9E369E078E918E161D4
:1030C0000028BDD0236A9D42BAD200230122236288
:1030D0002433A1610600E254E4E7A36A2A009C4677
:1030E00020696144FFF754F984231B021D43E35D0B
:1030F000BAE78178084A0948FEF754FC0848FEF709
:1031000051FC6378044A9B00A1789A580548FEF761
:1031100049FCC046FFFBFFFF08030020504E001093
:103120007C4E0010304E001070B51E000400437D30
:10313000002E48D0002B03D00023037532202354E7
:103140000023A261E361151C402A31D80123ADB2EE
:10315000521B637553425341242625220020DBB2C3
:103160002562A162A355A054E278002A22D08022D1
:10317000D2002A436179002902D0802080010243D5
:10318000012041406171002B02D08023DB011A43F2
:10319000E1680B685B054FD42E4B13400B60FFE7D3
:1031A000FFE7FFE7FFE7FFE7FFE7E3681A6070BDAF
:1031B0004025CBE72A002069FFF7EAF884221202B3
:1031C0002A43A35DD6E7002B3ED0C368C0691D68C3
:1031D000E378AD05AD0D002B15D12818E061A2698B
:1031E000131A402B0DD823621B189B1A59424B41CE
:1031F0002421635482421CD3D9D02000FFF7CCFE97
:10320000D5E74023EFE7A36A2A009C462169604482
:10321000FFF7BEF8E369E818E378E061002BDED041
:10322000236A9D42DBD224230122A0612662E2545C
:10323000BDE70948FEF7B6FB6378084A9B00A17812
:103240009A580748FEF7AEFB8178044A0548FEF716
:10325000A9FBC046FFFBFFFF7C4E001008030020C7
:10326000304E0010504E0010024B5878431E9841CB
:10327000C0B27047A4070020024B18784007C00F67
:103280007047C046A4070020F8B537220021234824
:10329000FFF778F8224C2000FEF722F8214B1C6043
:1032A000214C20001830FEF729F8200001F0DCFB4B
:1032B0001E4B1C601E4B002B26D01E4D00242800E8
:1032C000FFF772FA1C4E2B7830601C4F0AE0E300C7
:1032D0001B1B32689B009B58984701342B78E4B243
:1032E000A34209D39C42F2D314D13B009847013446
:1032F0002B78E4B2A342F5D20020FFF773FC002044
:10330000FFF74AFC0120F8BD00F0ACFF094B1B7829
:10331000002BF1D000231B68FFDEC046A40700206D
:103320005C070020DC07002010030020E0070020DD
:10333000A9270010A40F002074040020654200108B
:10334000F0B5DE4657464E464546E0B58BB001F037
:1033500095F9002800D16CE1CA4B07AC9A46CA4BDC
:103360009B4653461E68B269EFF3108172B613682C
:10337000002BFCD0BFF35F8FF1613000210001F022
:10338000DFF9B2690500F369BFF35F8F00211160B7
:1033900083F31088002800D14BE16378082BE0D834
:1033A0005A469B00D3589F466368002BD9D0A0682B
:1033B0009847D6E77F222179B44B0A405500C809C7
:1033C0005B191B181800012620304579B54345715B
:1033D00045790336B5434571002A00D172E1AC4A04
:1033E000DB7C002A00D169E1AA4A1278934200D31B
:1033F00062E1DA00D31AA84A9B001268D318002BA6
:1034000000D116E15D6962792078A368A847A8E732
:103410009E4B012299461B78002013434A461370A5
:103420002378019300F092FD602326793340602BCE
:1034300000D11EE1402B00D10BE1F606F60E012E65
:1034400000D151E1002E00D142E1022E00D010E166
:103450007F27217A0F40082F00D90AE1CA09904638
:10346000002B00D16EE100257F004F44884A47447D
:10347000FB7C002A00D133E2864A1278934200D3C3
:103480002CE2854ADE00F31A16689B00F618002E1F
:1034900000D069E2602223791A4200D0E6E00020E1
:1034A00000F054FDE2E07D4B002B00D159E700E035
:1034B00000BF56E77A4B002B00D152E7734B1878C8
:1034C0000007C00F00E000BF4BE7724E704A337830
:1034D000002A00D1A7E000251A006F4FAB4213D994
:1034E0003968EB008C465B1B9B0063449B69002B97
:1034F0000DD02078984701353278EDB2954200D949
:103500002FE71300AB42EBD8AB4200D08EE0013581
:10351000EDB2954200D924E71300F3E737220021EA
:103520005A482778FEF72EFF1022FF215D48FEF74C
:1035300029FF56481222FF211330FEF723FF00F027
:10354000FBFC544E524A33780025002A62D0564A7A
:103550009146514A90460EE042461268EB0094466E
:103560005B1B9B0063445B683800984701353378E8
:10357000EDB2AB420AD39D42EED351D14B46380057
:10358000984701353378EDB2AB42F4D2474B002B6C
:1035900000D1E6E600E000BFE3E63C4B3722994667
:1035A000002118002778FEF7EDFE4B461022D81CAC
:1035B000FF21FEF7E7FE48461222FF211330FEF7F7
:1035C000E1FE00F0B9FC334E314A33780025002A81
:1035D00036D0314A90460EE042461268EB009446DF
:1035E0005B1B9B0063445B68380098470135337868
:1035F000EDB2AB420AD39D42EED311D12A4B380033
:10360000984701353378EDB2AB42F4D24A4623797C
:103610009370A6E6380000F061FE3378002BB5D039
:1036200000235B68FFDE002B00D19AE600239B6934
:10363000FFDE0BB03CBC90469946A246AB46F0BDBF
:10364000380000F04BFE3378002BDFD000235B689E
:10365000FFDE174B002B0CD01648002801D000F0DD
:1036600075FC08A9019800E000BF0500002D00D0FE
:1036700077E620780021FFF7E3FB20788021FFF731
:10368000DFFB6EE6E0070020A04E0010A40700203C
:10369000A9270010A40F00207404002000000000DF
:1036A00000000000A7070020DD420010000000001D
:1036B00000000000000000009B1ADBB2002BB8D114
:1036C000B24DA0E662792078A36800F053FC48E68A
:1036D000202B00D1E3E0002BCBD16379092BC8D894
:1036E000AB4A9B00D3589F46237A0F2BC1D8A94AD7
:1036F0004B44DB78002A3BD0A74A1278934235D25C
:10370000A64ADD00EB1A15689B00ED18002DB0D01D
:10371000286900F01BFCEB6808A90198984700286D
:1037200000D01EE6602322791340A2D162790A2AD2
:103730009FD106AA0232137008A90133019800F044
:10374000A1FB0EE663790293012B00D1F8E0002B78
:1037500000D1E4E0032B8CD1E3887F00002B00D163
:1037600004E108A9019800F075FB7EE69B1ADBB224
:10377000002B00D07DE78A488A4DCAE74B46A279E4
:1037800003925B78002B02D1002A00D010E14B4657
:10379000039A08A901985A7000F05CFBE1E54B46DA
:1037A00006AA5B780232137008A90123019800F081
:1037B00069FBD6E5E388D8B21B0A0F2B00D958E77E
:1037C000794A9B00D3589F4608A800F0C5FBA17911
:1037D0000198FFF7E7F94B4602221B7813434A464C
:1037E0001370BEE5E388012B00D042E74B46082268
:1037F0001B7893434A4608A90198137000F02AFBEE
:10380000AFE54B460220197806AB9A1C8B06890857
:103810000140DB0F0B43138008A90223019800F03D
:1038200031FB9EE5E388012B00D022E74B460822BE
:103830001B781343DEE75D4B002B00D119E700E056
:1038400000BF021E00D114E7137808A9019800F008
:1038500019FB002800D084E50BE72189FFF7D6F893
:10386000021EF1D105E7FFF7CDF8051E00D100E7F4
:1038700006AB9E1CA91C02223000FEF789FD33888E
:103880002A0008A9019800F0FDFAE2E7FFF7B6F870
:103890001223020008A9019800F0F4FAD9E7237A6C
:1038A0000F2B00D9E5E63B4A4B44DB78002A30D0A9
:1038B000394A127893422AD2384ADD00EB1A156849
:1038C0009B00ED18002D00D1D3E6286900F03EFBE7
:1038D000EB6808A9019898470500C7E69B1ADBB278
:1038E000002B00D0D6E52E482E4E00F02FFBF368BB
:1038F00008A901989847002800D1CBE560222379D8
:103900001A4200D02DE5002000F020FB29E59B1A8B
:10391000DBB2002B00D0ACE62148224DD6E74B4667
:103920007F00DB19434420335B7906AA9B07DB0F3A
:103930000232138008A90223019800F0A3FA94E54B
:10394000E3887F00002B00D00BE70198FFF7A0FA77
:103950004B46DB19434420335A790299B2435A71DA
:103960005A798A435A71FCE63069BEE70198FFF73D
:1039700067FA4B460221DB19434420335A790A4344
:1039800001215A715A790A435A71EAE6A14400109A
:10399000C44E0010A9270010A40F002074040020BA
:1039A000ED4300102C4F0010EC4E00100000000002
:1039B000501EC0B2FFF726F8002800D159E6437820
:1039C000022B00D055E60125C37910265A112A4052
:1039D00011014A4612789B11B2430A4320212B4021
:1039E0008A435B0113434A4607001370C378827809
:1039F0001B021343C318093704939F4200D389E085
:103A00004D4B984600237A7805930B2A04D13B78D6
:103A10000597FB181F005A78042A00D029E6049B5A
:103A2000464ADB1B9BB20293454B00251B78002ABC
:103A300015D119E042461268EB0094465B1B9B00CF
:103A400063449B68029A39000198984700281AD16C
:103A50003B4B01351B78EDB2AB4200D209E69D42EB
:103A6000E8D30DD1374BEDE7029A3900019800F009
:103A700047FC061E5DD1324B1B78002B00D1F8E5C8
:103A800000239B68FFDE0600082E00D8F1E5029BAC
:103A90009E4200D9EDE54A46BB78D218D178FF297D
:103AA00000D0E6E50598D570002814D081789942B9
:103AB00000D0DEE502797B799A4200D0D9E5C27860
:103AC000012A08D9023A04314944D2B2080001322D
:103AD0002900FEF757FC7F213A0000238C465178DD
:103AE000052907D1614690780140490049441331C6
:103AF000C0090D5411785B189BB252189E42EED843
:103B00000F4BBF191B78AB4200D2B2E5049BBB42FE
:103B100000D977E70C4B002B00D138E600E000BF5E
:103B200035E60A4B002B00D1A3E500E000BF0500FD
:103B30009EE6024DA8E7C04674040020A9270010A5
:103B4000A40F00200143001000000000000000004E
:103B500070B584B06B4606000C0001AD0A2200214E
:103B6000981DFEF70FFC2E706C70032C08D01BD92B
:103B7000042C07D0052C40D12C4B1A78D20746D400
:103B800004B070BD294B1A78D207F9D504211A78F0
:103B90000A431A70264B1C68A269EFF3108172B6B3
:103BA0001368002B19D1FBE7022C26D101211F4BF2
:103BB0001A788A431A701A780331A2431A700022C5
:103BC0005A701A788A431A70194B1C68A269EFF36D
:103BD000108172B61368002BFCD0BFF35F8FE161D8
:103BE0002000290000F07EFEA269E369BFF35F8F29
:103BF0000021116083F31088C2E70D4B1C68A26995
:103C0000EFF3108172B61368002BE6D1FBE70421B5
:103C10001A788A431A70064B1C68A269EFF3108168
:103C200072B61368002BD8D1FBE7C046A40700206A
:103C3000E0070020002330B585B001AD6B8028700F
:103C40000633082202A86B70FEF7A2FB0C4B1C681F
:103C5000A269EFF3108372B611680029FCD0BFF39C
:103C60005F8FE3612900200000F03CFEA269E36958
:103C7000BFF35F8F0021116083F3108805B030BD62
:103C8000E0070020F0B5C64600B584B01D006B46C5
:103C900080460F00160000210622981DFEF772FBD9
:103CA000434601AC2370072363700F4B65711D6899
:103CB0002771A660AA69EFF3108372B61168002914
:103CC000FCD0BFF35F8FEB612100280000F00AFEFB
:103CD000AA69EB69BFF35F8F0021116083F310883D
:103CE00004B004BC9046F0BDE0070020F0B5D64615
:103CF0000C0000B58246002A29D04978052928D130
:103D0000E17889078D0FAB4223D1561E00270EE0C4
:103D1000069A13702378E418B74218D06378052BFD
:103D200017D1E37801379B079B0FAB4211D12100DC
:103D30005046FEF7C7FF00280BD0A378DA09012A06
:103D4000E6D1079A13702378E418B742E6D1012030
:103D500000E0002004BC9246F0BDC04610B5FEF75E
:103D6000B1FF10BD7F2370B50B40134C5B00C90938
:103D7000E418641820346579ED07ED0F04D16379F8
:103D80005B0703D5280070BD0025FBE701210B4E22
:103D90004942306800F0E4FE6379DB0707D46379B9
:103DA0005B0704D4042201256379134363713068EF
:103DB00000F0BEFEE6E7C046A4070020DC070020B6
:103DC00070B50D0001210F4C4942206800F0C8FE7B
:103DD0007F2129404B000C49ED09C91849192031B0
:103DE0004B790025DB0707D44B795B0704D5042208
:103DF0004B79013593434B71206800F099FE280000
:103E000070BDC046DC070020A407002070B57F24E9
:103E10000C4065000E4C06006419C80924182034B3
:103E200065790020ED0700D570BD01256079284334
:103E300060713000FEF7EEFF0028F5D101226379B2
:103E4000934363716379033293436371ECE7C04634
:103E5000A407002070B50A4C0600082220000D00BF
:103E6000FEF796FA00230021A360E3606956300054
:103E7000C943C90FC9010022FEF7CCFF70BDC0467F
:103E800048070020F0B5C6469046294C082200B5E8
:103E9000060020000D001F00FEF77AFA4346A360DB
:103EA0000023E381EB79AA791B0213431A1CBB425E
:103EB00000D93A1C97B2A281002B12D0002F1DD03E
:103EC0004346002B2ED03B1C402F1DD89FB2237899
:103ED0007F2B1ED80021174A3B003000FEF79AFFC7
:103EE00009E0002169560023C943C90FC901002216
:103EF0003000FEF78FFF04BC9046F0BD23787F2B87
:103F000012D800210022E7E740239FB223787F2BBD
:103F1000E0D9084C3A0041462000FEF739FA8021EA
:103F20002200D9E70020E6E780210022D4E7C0463E
:103F3000480700206407002010B514220021024821
:103F4000FEF720FA10BDC04648070020014B18615B
:103F50007047C0464807002010B5054C01000822F4
:103F60002000FEF715FA0023A360E36010BDC046F1
:103F700048070020F8B5374C1E0023780700DA09FF
:103F8000C9098A420BD00025002E06D1324B0135DB
:103F9000002B02D02100FEF779FE2800F8BDA068B2
:103FA0007F2B07D800250028F7D032002B49FEF7D9
:103FB000EFF9A068E289E388921992B28019E28150
:103FC000A060934201D03F2E13D82369002B04D068
:103FD00021003800984700281FD000216156002397
:103FE000C943C90FC90100223800FEF713FF0500BD
:103FF000D3E7A589A91A0E1C89B2402917D82378BE
:10400000B6B27F2B15D80021AA421DD0134A330027
:104010003800FEF7FFFE0500BFE700213800FEF77D
:104020000FFF80213800FEF70BFF0125B5E7402682
:10403000E5E7AA420AD0094C010032002000FEF751
:10404000A7F980212200E2E70022E0E78021002298
:10405000DDE7C046480700208D2C001064070020D3
:1040600010B50400FFF700F9002801D1002010BDB1
:10407000FFF702F90028F9D1600000190301181AAE
:10408000034B00011818037901201840EFE7C046E0
:104090007804002003004000C01810B50301181A6E
:1040A0000001034B1030C01800F02CFB10BDC046BF
:1040B00078040020F0B5440020180401241A2401DB
:1040C0002500C646174E1035AD1900B592B228002E
:1040D00000F08CFB0700280000F022FB3F2803D8EB
:1040E000380004BC9046F0BD3319D97800209846BA
:1040F000FFF738FE0028F3D0280000F011FB3F281E
:1041000005D843460020D978FFF75AFEE8E7942304
:104110009B00E21843469219D97800204023FFF70C
:1041200075FEDDE778040020F0B544002018040196
:10413000241A24012500C646214E2835AD1900B5A4
:1041400092B2280000F012FC0700280000F0DAFA12
:104150003F2803D8380004BC9046F0BD280000F08A
:10416000D1FA0028F6D03319997800209846FFF745
:10417000F9FD0028EED0A4239B009C466444A419BA
:1041800028004022210000F031FB051E03D0FFF77C
:104190006BF8002805D1434699780020FFF710FE00
:1041A000D8E7FFF769F8434699780028F5D11B79DD
:1041B000DB07F2D52B0022000020FFF727FEC9E71E
:1041C00078040020F8B5440020180401241A2401C2
:1041D00025001B4E2835AD19280000F093FA002861
:1041E00001D10020F8BD3719B9780020FFF7BAFDDA
:1041F0000028F6D0A4239B009C466444A419280000
:104200004022210000F0F2FA051E03D0FFF72CF83F
:10421000002804D1B9780020FFF7D2FDE1E7FFF7CD
:104220002BF8B9780028F6D13B79DB07F3D52B00C2
:1042300022000020FFF7EAFD0028D2D02800D1E7B5
:104240007804002003004000C01810B50301181ABC
:104250000001034B2830C01800F062FA10BDC046C0
:1042600078040020B42270B51A4C82B0920000216C
:104270002000FEF787F8FF236371174B8025E3804A
:10428000012300262100200023816D0007332373C2
:104290002A0040310096073B103000F0F5F921006C
:1042A000200041312A00FF3100960123283000F020
:1042B000EBF990239B00E5182800FDF711F89223F5
:1042C0009B006562E5182800FDF70AF8E56302B077
:1042D00070BDC0467804002000C2FFFF10B5074C37
:1042E000052200212000FEF74DF82000103000F0DC
:1042F000BBFB2000283000F0B7FB10BD7804002085
:10430000F0B54B7983B00600022B03D000252800BE
:1043100003B0F0BD8B79022BF8D1CB79062BF5D801
:104320002F4FBB78002BF1D18B7809253B700C788F
:104330000C196378242B0BD1082A02D80FE0AA426B
:104340000DD32378E418ED186378ADB2242BF6D0A2
:10435000052B1CD0042B02D163790A2B25D0214CCC
:10436000200000F0DDF93F28D1D92600103EF17879
:104370000020FFF7F7FC0028C9D0200000F0D0F99A
:104380003F2823D8F1780020FFF71AFDBFE721006E
:104390003000FFF7E3FC0028B8D0A3787B702378C7
:1043A000ED18E418ADB26378D4E70F4B277801938A
:1043B00001330093E119022302223000FFF796FC3B
:1043C0000028A3D00E35ED19ADB2C8E790239B00AD
:1043D000E218F17840230020FFF718FD97E7C04668
:1043E00078040020880400207A04002060230A78E2
:1043F00070B513400024202B01D0200070BD0A4A64
:104400004B790D7910781B022B439842F5D14B78EC
:104410000134202BF1D1054B002BEED0911D002053
:10442000FEF7C8F9E9E7C04678040020B527001078
:1044300060230A7870B513400024202B01D020009F
:1044400070BD154A4B790E7915781B0233439D4296
:10445000F5D14B78202B1CD3212B05D8063207230E
:10446000FFF710FD0124EAE7222B12D1CD788B78DB
:104470002D021D431571FFF7EDFC084B0124002BA5
:10448000DDD029006A0822402140002000E000BF62
:10449000D5E70024D3E7C0467804002000000000E0
:1044A000F0B546464F46D646C0B59846664B81465F
:1044B000DA780E008A4200D06EE04246002A65D0CB
:1044C000624A002A2ED0942292009D18AA461F000C
:1044D0001C00C24410372900380000F003FA637949
:1044E000FF2B03D02978994200D175E00135AA4508
:1044F000F1D1574B002B05D0380000F003F900280C
:1045000000D093E0380000F00BF93F2868D8103F46
:10451000BB789E4215D0012420001CBC90469946D1
:10452000A246F0BD942292009C18424610331F0010
:10453000A51821003800013400F0D4F9AC42F8D1BC
:10454000D7E7444B002B02D0002000E000BF424CD4
:10455000200000F0D7F8002823D1200000F0D2F886
:104560000028D8D14346002BD5D09B06D3D1283C78
:10457000A1784846FFF7F6FB2500041ECBD0A978AA
:10458000002300224846FFF741FCC5E710331F0017
:104590002F4B002BB0D1B5E79B788B42D1D00024B4
:1045A000BAE72500283DA9780020FFF7DBFB0028AB
:1045B000D3D09A239B00E61840223100200000F05F
:1045C00015F9071E03D0FEF74FFE00281DD1A9786C
:1045D0000020FFF7F5FBC0E7002000E000BF85E703
:1045E0003C00103CE1780020FFF7BCFB002801D123
:1045F000A3788EE7380000F093F83F281AD8E178C6
:104600000020FFF7DDFBA37883E7FEF735FEA978EE
:104610000028DDD12B79DB07DAD53B003200002002
:10462000FFF7F4FB002800D075E796E7002000E0D4
:1046300000BF67E790239B00FA18E1784023002031
:10464000FFF7E4FBA37864E7780400200000000093
:104650000000000000000000A004002070B5064D1E
:104660002C78002C01D0200070BDFEF70DFE002834
:10467000F9D001232B70F6E7A50F0020014B187825
:104680007047C046A50F0020F8B54746CE4680B516
:10469000984608AB1F7880230500894614001B024A
:1046A00000269A421AD8406900281CD001214942AC
:1046B00000F056FA4B462B604346AC806400A4B22F
:1046C0006869EB80631E6442EE812F722E82AB819B
:1046D0006C810136002801D000F02AFA30000CBCB1
:1046E00090469946F8BD43465400A4B2EB80631E41
:1046F0006442EE8129602E82AA802F72AB816C8188
:104700000126EBE7C189028A89B292B28B1A9BB269
:10471000914202D240891B1A9BB218007047C046D2
:1047200010B5C489018AA4B289B2631A82889BB287
:104730008C4202D240891B1A9BB2D01A80B210BDA3
:10474000F8B5040040690D00002803D0012149425A
:1047500000F006FAE089218A80B289B2431A9BB23E
:10476000884202D262899B1A9BB2A288A6899A4289
:1047700008D2871ABBB2B8422FDA60891B1A9BB2E3
:1047800023821300002B2BD0B14206D96389C918AC
:1047900089B28A4203D8891A89B28A42FBD923682E
:1047A000E2889C46514328006144FDF7F1FD012554
:1047B0000122238AA6899BB2591C9B189BB28E4268
:1047C00007DB60692382002801D000F0B1F92800DE
:1047D000F8BD62899B189BB2F3E7B742D0DDCCE706
:1047E000238A00259BB219000022E6E7F0B5C646F1
:1047F0000400406900B588461600002803D0012156
:10480000494200F0ADF9E789238ABFB29BB2FD1A95
:10481000ADB29F4202D26289AD1AADB2A088A18921
:10482000A8420AD23B1A9AB29F4234DA6389D21A5A
:1048300092B205002282238A9BB2002D2ED0321C18
:10484000AE4242D895B28B423BD8984203D81B1A4D
:104850009BB29842FBD919002668E288B4465143BE
:104860005E196144864235DDC31A9EB272434046EA
:10487000FDF78EFDE388AA1B180070435A4340449D
:104880002168FDF785FD218A89B24B191A009942EA
:1048900025DD9BB208E08B42CBDDC7E7228A92B2CE
:1048A00013009BB2914202DA62899B189BB2606945
:1048B0002382002801D000F03BF9280004BC904678
:1048C000F0BD62899B189BB2BFE72A1C95B28B4250
:1048D000BBD9F6E76A434046FDF75AFDD3E7A18905
:1048E000DFE7C046F8B5040040690E00002803D099
:1048F0000121494200F034F9E589238AADB29BB227
:10490000EA1A92B2AB4202D96389D21A92B2A38850
:10491000934227D0A2892800AA4206D2608928188B
:1049200080B2834203D8C01A80B28342FBD9236885
:10493000E2889C46504331006044FDF729FDA3897D
:10494000AB420AD90135ADB26069E5810127002883
:1049500001D000F0EDF83800F8BD6389ED1801359D
:10496000ADB2F1E7277A002FD4D1F4E7F0B54F4686
:104970004646D6460400C0B5884615000027002AE2
:1049800053D04069002803D00121494200F0E8F8E3
:10499000E388E6899A46208A237AB6B280B2A18853
:1049A000002B48D1331A9BB2864202D260891B1A6F
:1049B0009BB2CB1A1F1C9BB2AB424DD8BFB23D007D
:1049C000A0893300B04205D26389F3189BB201E09D
:1049D0005B1A9BB28B42FBD25046226858439446E6
:1049E0005A1960448A4231DDCB1A9BB2524699462D
:1049F0005A434146FDF7CCFC4B46E188EA1A4A434C
:104A0000594320684144FDF7C3FC7519B54202DBE8
:104A1000A3899D4224DD6389F618BE19B6B2606988
:104A2000E681002801D000F083F838001CBC9046D5
:104A30009946A246F0BD2F008D42C1D953466D1A4A
:104A40005D43E081A8440F000D00B9E7524641469E
:104A50006A43FDF79DFCD8E72F1CBFB23D00AFE7CE
:104A6000BE19B6B2DBE7C04610B5040040690028A5
:104A70000DD00121494200F073F800236069E38101
:104A80002382002801D000F053F8012010BDE081FE
:104A90002082FAE7F0C041464A4653465C466D46DE
:104AA00076467EC02838F0C80020704710307CC899
:104AB00090469946A246AB46B54608C82838F0C885
:104AC000081C00D10120184710B5040083070AD044
:104AD0000378002B23D0032202E00378002B1CD0A4
:104AE00001301042F9D102680E4B0F49D31893439D
:104AF0000B420FD1043002680A4BD31893430B4288
:104B000008D104300268074BD31893430B42F1D00D
:104B100000E001300378002BFBD1001B10BD00200A
:104B2000FCE7C046FFFEFEFE80808080F8B5C046F0
:104B300001B40248844601BC604700BFED0100207B
:104B400001B40248844601BC604700BF1502002042
:104B500001B40248844601BC604700BF0D0100203B
:104B600001B40248844601BC604700BF55010020E3
:104B700001B40248844601BC604700BFC100002068
:104B800006005250197CA0B6CC4B00100A0A0A50FD
:104B90005453205374617274696E67005265616486
:104BA00065722074657374207374617274696E67C2
:104BB000000000005265616465722074657374734F
:104BC00020636F6D706C657465000000456C6C69E6
:104BD0006F7474203930302050545320456D756CFB
:104BE00061746F7220627920416E6472657720482B
:104BF00065726265727400004E6F207370696E6C2E
:104C00006F636B732061726520617661696C6162AC
:104C10006C650000486172647761726520616C6147
:104C2000726D20256420616C726561647920636C0B
:104C300061696D656400000048617264206173738E
:104C4000657274000A2A2A2A2050414E4943202ABC
:104C50002A2A0A000A00000006005250BBFF3CB698
:104C60009C4C001006005250E182887F844C00105A
:104C700006005250D3F075427C4C001052656C65B2
:104C800061736500626F6F74325F773238713038EC
:104C900030000000312E312E310000007069636F4A
:104CA000000000007069636F7074730041707220BF
:104CB00032392032303231000D0A000006005250E5
:104CC00053B4F4A1E84C00100800525092000000C8
:104CD0005541525420737464696E0000554152541A
:104CE000207374646F75740055415254207374645A
:104CF000696E202F207374646F7574000D27001087
:104D000011270010252700104D2700101D27001027
:104D100021270010000000000600525053B4F4A1F7
:104D2000244D001055534220737464696E202F2067
:104D30007374646F7574000052617370626572728F
:104D400079205069000000005069636F0000000086
:104D50003030303030303030303030300000000013
:104D6000426F6172642043444300000052657365E2
:104D70007400000009025400030100807D080B004C
:104D800002020200000904000001020200040524DE
:104D9000002001052401000104240202052406006C
:104DA000010705810308001009040100020A000040
:104DB00000070502024000000705820240000009CA
:104DC00004020000FF00010512010002EF02014091
:104DD0008A2E0A0000010102030100000000000009
:104DE000384D0010484D0010504D0010604D00101F
:104DF0006C4D001049736F6368726F6E6F7573202E
:104E0000774D61785061636B657453697A652025CD
:104E10006420746F6F206C6172676500556E686105
:104E20006E646C65642049525120307825780A0000
:104E300065702025642025732077617320616C7272
:104E40006561647920617661696C61626C650000FE
:104E500043616E277420636F6E74696E7565207888
:104E6000666572206F6E20696E6163746976652075
:104E70006570202564202573000000005472616E67
:104E800073666572726564206D6F7265206461740B
:104E900061207468616E2065787065637465640074
:104EA000623300109A3500101C350010CA3400100F
:104EB000B4340010A634001010340010B4330010C5
:104EC000A833001002380010E437001072360010CA
:104ED0002438001072360010C8370010B4370010A4
:104EE000723600109E3700107C37001072360010AA
:104EF0008C380010663800105A38001072360010D6
:104F000072360010363800107236001072360010FB
:104F100072360010723600107236001072360010B1
:104F20007236001072360010223B001065420010ED
:104F3000DD4200100143001031440010ED43001029
:084F4000A14400100000000074
:104F4800804B0010B4020010A80200109C02001050
:104F5800584C001090020010644C0010704C001067
:0C4F6800BC4C0010C84C0010184D00108C
:104F740010B502680024EFF3108172B61368002B99
:104F8400FCD0BFF35F8F03797F2B0BD80368BFF38B
:104F94005F8F1C6081F3108820BF0268EFF31081DB
:104FA40072B6EBE7D0231B061B6803710368BFF3DB
:104FB4005F8F00221A6081F3108810BD030010B5C2
:104FC4000068EFF3108472B60268002AFCD0BFF3C5
:104FD4005F8F04229A56002A0BDB00290FD0002091
:104FE4000A601B68BFF35F8F00221A6084F3108885
:104FF40010BDD0221206126801201A71F1E70020B8
:10500400EFE7C046F0B5C64600B50C00804600F098
:1050140063F8FA2206000F0020009200002300210A
:1050240000F062F88019794104000D008F4220D904
:1050340001246442E517002643461A68EFF3108101
:1050440072B61368002BFCD0BFF35F8F43461B7905
:105054007F2B13D843461B68BFF35F8F1E6081F319
:1050640010882000290000F02FF80028E4D0002048
:1050740011E08F42DFD18642DAD8DCE7D023424602
:105084001B061B6813711368BFF35F8F00221A603D
:1050940081F31088012004BC9046F0BD0268EFF350
:1050A400108172B61368002BFCD0BFF35F8FFF230F
:1050B400037140BF0368BFF35F8F00221A6081F35E
:1050C400108870477047C04601B40248844601BC4A
:1050D400604700BF790E001001B40248844601BC49
:1050E400604700BFF510001001B40248844601BCBB
:1050F400604700BFAD220010010000001000000056
:105104006802002000000000500300202008002056
:105114000000000000000000300800200000000033
:10512400000000001000000000000000000001006A
:105134000000000000000000000002000000000069
:105144000000000000000300000000000000000058
:105154000000FF000000000000B5486801318E46E1
:105164000047704609380149884700BD4D200010AA
:10517400503300004C33000054330000523300001D
:105184004D5300004D4300005334000043340000ED
:105194003D260010000000008926001000000000D9
:1051A400000100008128001000000000E927001021
:1051B4000000000000010000F84C0010D84C001062
:1051C400B411002010000C000000000000000000DA
:1051D40000000000000000000000000000000000CB
:1051E400000000000000000075230010752100106D
:0C51F40035220010E122001039030010E9
:04000005100001E9FD
:00000001FF
