:020000041000EA
:1000000000B5324B212058609868022188439860DF
:10001000D860186158612E4B002199600221596106
:100020000121F02299502B49196001219960352056
:1000300000F044F80222904214D00621196600F024
:1000400034F8196E01211966002018661A6600F04E
:100050002CF8196E196E196E052000F02FF8012189
:100060000842F9D1002199601B49196000215960AB
:100070001A491B48016001219960EB211966A021F2
:10008000196600F012F800219960164914480160C1
:100090000121996001BC002800D000471248134993
:1000A000086003C880F30888084703B5996A0420EC
:1000B0000142FBD001200142F8D103BD02B5186610
:1000C0001866FFF7F2FF186E186E02BD00000240BE
:1000D000000000180000070000035F00212200005C
:1000E000F4000018222000A00001001008ED00E03C
:1000F00000000000000000000000000074B24E7A12
:1001000000200420F7010010C3010010C5010010F9
:10011000C1010010C1010010C1010010C101001097
:10012000C1010010C1010010C1010010C701001081
:10013000C1010010C1010010C9010010CB01001065
:10014000CD010010CD010010CD010010CD01001037
:10015000CD010010CD010010CD010010CD01001027
:10016000CD010010CD010010CD010010CD01001017
:10017000CD010010CD010010CD010010CD01001007
:10018000CD010010CD010010CD010010CD010010F7
:10019000CD010010CD010010CD010010CD010010E7
:1001A000CD010010CD010010CD010010CD010010D7
:1001B000CD010010CD010010CD010010CD010010C7
:1001C00000BE00BE00BE00BE00BE00BE00F04BF888
:1001D000103800BEF2EB88718C610010B461001021
:1001E0003402001090A31AE700202149086006C8D5
:1001F00081F3088810471F48006800282FD10DA4FC
:100200000ECC002902D000F012F8F9E71A491B4A77
:10021000002000E001C19142FCD1194988471949E9
:1002200088471949884700BEFDE701C901C29A42C3
:10023000FBD37047B4610010C000002068020020AA
:100240005C63001000000420000004205C630010C8
:1002500000100420001004200000000070470B482C
:1002600004F07EFA0047EFF30580C0B2704700004B
:1002700008ED00E0000000D068020020C406002065
:10028000F91B0010E1060010ED1C0010575600008D
:1002900006005250ABB36053246100100600525068
:1002A000861C030234610010060052505422A29DA5
:1002B0003C61001005005250DE65F4685C6300107C
:1002C000F8B5C0460448054B10B5834203D0044B33
:1002D000002B00D0984710BD680200206802002063
:1002E0000000000006480749091A8910CB0F591869
:1002F00010B5491003D0044B002B00D0984710BD17
:1003000068020020680200200000000010B5074CC1
:100310002378002B09D1FFF7D5FF054B002B02D026
:10032000044800E000BF0123237010BD68030020D3
:1003300000000000E85C0010054B10B5002B03D056
:100340000449054800E000BFFFF7CCFF10BDC046E0
:10035000000000006C030020E85C00100123F0B5F1
:10036000C646D0268025984600B50D4F0D4C360662
:10037000AD04386800280BD042462368013313408F
:1003800023600BD0756100F039FF38680028F3D185
:100390002060B5610A3000F031FFEAE7B561F2E7AD
:1003A0009403002010040020D0231B065B6870B566
:1003B0001B0102D5064805F0C9F9D0248025FA2092
:1003C000ED0224066561800000F018FFA56170BD94
:1003D000D85D0010F8B504008B0224D51B4D002712
:1003E0002868696800F0FCFD194B1E6800F086FF64
:1003F00036184F41B94224D901267642F7172E60AC
:100400006F60D0252D062B69A4005C40FF239B0064
:100410001C40EC61802424036C610220002100F068
:10042000D5FEAC61F8BD0B4D00272868696800F067
:10043000D7FD094B1E6800F061FF36184F41B942E5
:10044000DAD8B942DBD1B042D6D8D8E7B804002018
:100450008C010020A804002088010020F0B5D646B9
:100460004F464646C0B58B4884B005F0C5FB041E18
:1004700014D00022884B1A60D0231B065B681B0136
:1004800000D599E0D02380221B06D2025A61802237
:1004900012039A615B681B0100D591E0D0231B0613
:1004A0005B681B0100D5AAE0FA227B4B92001A6020
:1004B0000123D0245B4280269A46984624063605BE
:1004C000002005F079FA442800D189E051DD4E285A
:1004D00000D182E0FF284ED16368334202D06F48DA
:1004E00005F034F965686B014ED46B02E8D5FA2249
:1004F000694B1A6080239B032B4018009946431ECA
:100500009841503005F096F94B46002B7BD0644B58
:100510001868596800F064FD624B1B680093002363
:10052000019300F0EBFE009A019B12184B41994297
:1005300000D8A0E05246434659490A604B608023E8
:100540001B03994663610220002100F03FFE4B46E9
:10055000AD0AEDB22800A36105F06CF9524D2800F8
:1005600005F02AFA431CFAD0002820D0FFF71CFF20
:100570001DE0431CB6D06368334200D186E0010021
:100580004A4805F009FAADE7FA22A802424BC00F2B
:1005900052301A6005F04EF9454F380005F00CFA5C
:1005A000431CFAD0FF285BD02900FFF713FFFA2283
:1005B000394B92001A6083E73E4805F0C7F861E7BF
:1005C0003D4B013CA400E1583C48FA2405F0E4F915
:1005D000A400200000F012FEFBE7FFF7E5FE81E734
:1005E000374B1B68052B29D0636833424AD105235A
:1005F000334A13602B4A1360324A136072E7324861
:1006000005F0A4F850E7314B1868596800F0E8FC91
:100610002C4B1B6802934B46039300F06FFE029A2B
:10062000039B12184B41994202D803D1904201D941
:100630005246434625490A604B6080E7636833426F
:100640000AD1FA221E4B12011A60164B204A1A6078
:100650001C4B204A1A6045E71F4805F077F8F0E781
:10066000134B9946484605F0A7F9431CFAD0FF28DA
:1006700000D07BE798E7994200D05DE7904200D92F
:1006800058E759E7154805F061F8B0E7012101483E
:1006900005F0BEFA48040020940300204C5D0010D1
:1006A000B80400208C01002000CA9A3BB45D001001
:1006B00040420F00F45C00107C010020145D00102B
:1006C0008801002084010020385D0010B004002063
:1006D000A086010083230000645D00108C5D001083
:1006E00070B505F065F9214C214D236821482A6831
:1006F0001843214B2060134318432B6000F078F817
:10070000D0231B061A6A296820684A400843024021
:10071000DA621A691B200A40DA618022D2025A6129
:100720000121002200F04AF8012200211A2000F0E5
:1007300045F801220021162000F040F80122002196
:10074000152000F03BF800F0D9FD0C4B1860596003
:100750000B4B186059600B4B186059600A2000F071
:100760004DFD094805F0E8F9FFF778FE0804002080
:100770001404002000FC630CFC031C02B8040020DD
:10078000B0040020A80400205D030010094A830083
:1007900094464022634410B51C68C0006240C024E7
:1007A00014408022520113431C60034B9C4660445A
:1007B000416010BD04C00140004001400B4B80006F
:1007C0009C46604400290DD00C210823002A00D04B
:1007D0000B00026853400C221A4080235B0118432F
:1007E0000260704704210023F0E7C04604C00140C6
:1007F0004021F0B5D6464F46464688468031C0B5C2
:10080000D0258C468027BB39002301248A46104A14
:100810002D067F01044211D0210099404646A9626D
:10082000A96111687140664631403E00164331604F
:10083000084ED900B146564649440E60013340087F
:1008400004321E2BE6D11CBC90469946A246F0BD50
:1008500004C0014004400140F8B5EFF3108772B6C0
:100860000D4E3368002BFCD0BFF35F8F0725CB08FC
:10087000C01801230D40AB401D000478254007D16E
:1008800023430370BFF35F8F356087F31088F8BD93
:10089000100001F02DFAC0462C0100D0024B186860
:1008A0008007C00F7047C04600C006400021044BBF
:1008B000044ABFF35F8F02C39342FAD17047C04628
:1008C000000100D0800100D0044A1078431CDBB244
:1008D000172B00D9102313707047C04690010020D9
:1008E00001238340002902D1034A13607047034A61
:1008F0001360034A1360F9E780E100E080E200E062
:1009000000E100E0020001209040034B1B6818400A
:10091000431E9841C0B2704700E100E0024B103026
:100920009B688000C058704700ED00E070B50D0076
:10093000EFF3108672B60F4A1368002BFCD0BFF39A
:100940005F8F0D4B10309B6884001B590B4A9342FC
:1009500003D09D4201D001F0E3F9074B9B681D5184
:10096000BFF35F8FBFF35F8F0022024B1A6086F3E5
:10097000108870BD240100D000ED00E0CD01001012
:10098000F0B54546DE4657464E46E0B50D0083B00D
:10099000EFF3108A72B65A4A1368002BFCD0BFF3EB
:1009A0005F8F1022914681444A46564B96009B68C1
:1009B0009C59554B98469C4205D0AC4248D0534F69
:1009C000E31B2F2B12D94F4B9B689C51BFF35F8FBA
:1009D000BFF35F8F00224A4B1A608AF3108803B07E
:1009E0003CBC90469946A246AB46F0BD01238340ED
:1009F0009B465A46464B1B681A4000925A46454B46
:100A00001A60BFF35F8FFFF72EFC0190002803D020
:100A1000814501D001F084F90123220006219A4387
:100A2000936851569D420AD155E04B005B18062150
:100A30009B00FB1898685956A84211D01A0000294B
:100A4000F3DA009B002B05D15A46324B1A60BAE705
:100A50001C00B8E75A46304B1A602D4B1A60B2E7BB
:100A6000002925DB4A00501880003D188046A86800
:100A70009860E879D871062028569871A8797F285F
:100A800013D8AD88F81A6D052D1545444019E02599
:100A90000005400D2D022843988052181F4B9200EC
:100AA000BF181A781970BA71CBE7BD200002F3E7BE
:100AB0000199002917D1002A13D0FF3191711849EB
:100AC000918016490A789A71164ADB1B5B415A439A
:100AD000120D0A70B5E713000029C3DA019A002A43
:100AE00001D14446EDE7104A1049D21A083A5002A3
:100AF000400D014399800E4952080A43DA80A0E76D
:100B0000240100D000ED00E0CD0100109401002090
:100B100000E100E080E100E080E200E04504002028
:100B200000BDFFFFAAAA0000CE01002000F0FFFFD9
:100B300000F8FFFFF8B5012504000543FFF793FB1C
:100B4000EFF3108672B6214A1368002BFCD0BFF376
:100B50005F8F1F4B1F4A2100C91A49414A43120D9A
:100B60001D4980008F6852B23F58AF421CD0062109
:100B70005956914226D012215956914224D01E2115
:100B80005956914214D02A2159560320914210D02F
:100B9000124B19781A70A171BFF35F8F00220B4BB3
:100BA0001A6086F31088F8BD8B680D491950EFE77D
:100BB00002204100091889005B18FF219971094939
:100BC0009980E5E70020F4E70120F2E7240100D056
:100BD00094010020AAAA000000ED00E045040020D6
:100BE000CD01001000BDFFFF054B064A1360064A09
:100BF000136053609360D3601361536193617047D6
:100C00008080808000E400E004E400E0024B9C4629
:100C100061448900016070474000003483680B48DC
:100C200010B5844661446244090112019A185918AA
:100C300054684B6801209C4201D802D00020C0B209
:100C400010BD12680B689A42F9D8F7E7FFFFFF0F53
:100C50000A4B1968EFF3108072B60A68002AFCD0BC
:100C6000BFF35F8F1B68BFF35F8F00221A6080F3B2
:100C7000108840BF002000217047C0462C0400208F
:100C8000F8B557464E464546DE46E0B51F000CAB6C
:100C90001D780DAB1B7881469A460368160098466E
:100CA000002D3BD1987B002832D042464546440077
:100CB00012682418033C121951780300A973002903
:100CC00000D1E9730021050091705170117029E085
:100CD000D31814199D702278002A00D05A705B46F0
:100CE000237043465D734B463200187D3B0000F095
:100CF00097FB041E07D05346002B04D14B46290016
:100D0000186800F049FD0E9B002B44D028001C7091
:100D10003CBC90469946A246AB46F8BD2B006C0001
:100D20006419033C1D4A94464A46926863449446BB
:100D30001B010A9A63449A600B9A1E605F60DA6036
:100D4000434600221B681B199A705A701A7043465A
:100D50005B7B9B46002BC4D043462A0098685946CB
:100D60005B6898475B4642465B005B44033B126806
:100D70000028ADD0D31814195A46A2701A78002A48
:100D800007D11D705A46434628005A73AB45BFD160
:100D9000A9E76270F5E72800BAE7C046FFFFFF0F3A
:100DA000F0B5DE46454657464E46724B8200E0B5EA
:100DB000D55800238DB00B909B4627E0069A079BE1
:100DC0001100194303D02B69002B00D093E02B684E
:100DD000DA7B002A07D051008A1819688C464946E8
:100DE0006244033A51704A46DA73EA684B469446C5
:100DF000013B63441A7801321A705B462B616B68C1
:100E0000BFF35F8F5A461A6084F3108800F076FAB9
:100E10006A68EFF3108472B61368002BFCD0BFF33E
:100E20005F8F2B689C465B7B9946002B5BD0AA6842
:100E3000514B90464B441B01984443461A685B68EB
:100E400016001F00361A8F41002F6EDD0B9800F040
:100E5000E7FA0022002300270026089209936B6816
:100E6000BFF35F8F5A461A6084F31088002E76D045
:100E7000534618024B4639001843B0476A6806903B
:100E80000791EFF3108472B61368002BFCD0BFF308
:100E90005F8F079B002B91DA2B69002B97D0069868
:100EA0000799089A099B121A8B410898099906928A
:100EB0000793079A914203D807D1069A904204D922
:100EC00001225242D317069207935B4601210493F5
:100ED0004B460391029301970096069A079B2800C0
:100EE000FFF7CEFE89E7002200230027089209932E
:100EF00000260020B3E700F001FA069A079B1218BB
:100F00004B41994202D804D1904202D90122524267
:100F1000D317594604910121039149460197029143
:100F200000962800FFF7ACFE67E7002F01D1002EE6
:100F30008CD10021604600F083FB43461A685B6851
:100F40000892099343469E68DF68EB684B44013B77
:100F50001B789A461B021843286100207FE700286F
:100F600000D053E70DB03CBC90469946A246AB4634
:100F7000F0BDC04618040020FFFFFF0F10B5124C53
:100F80006368002B04D00A211048FFF73FFE10BD14
:100F900023000F4A1021206800F034FB032000F0EA
:100FA000A1F9032000F0A8FA0A49032000F0F2F9A1
:100FB000FFF78AFC084B9C46032360442375074BCC
:100FC00080006060DC60DEE7DC0100202C04002093
:100FD0001D0C0010A10D001040000034180400206A
:100FE000F0B557464E464546DE460400E0B50D00D6
:100FF00006267642F71736196F4185B08F4200D921
:1010000087E000D182E000F079F932003B00121A4B
:101010008B41002B00DC87E0674B99465A68EFF361
:10102000108B72B61368002BFCD0BFF35F8F4B465A
:101030001B6898469B7B9A46002B7BD05B005344F1
:101040004246033B9C4641461268009362445378F3
:101050008B73002B00D1CB730023494693705370E0
:1010600013708968554A8C465244554912016244AE
:10107000166057609160D360009942468C461268B2
:10108000624493705370137043465B7B0393002B51
:1010900000D16FE019004046434652465B688068C5
:1010A0009847039B9C465A006244033A002854D058
:1010B000009940468C46036803999A1863449970D6
:1010C0001178002900D05970534613704246039B93
:1010D00053739A4551D04B465B68BFF35F8F002234
:1010E0001A608BF31088BC46B04600940195002628
:1010F0006546344F344A7B6A9D424CD8B96A4145B3
:1011000001D29D4247D0009C019D1BE0864200D841
:1011100079E70026002700F0F1F832003B00121AB0
:101120008B41002B00DD77E7002B0BD1002A00D08C
:1011300072E707E04B465B68BFF35F8F52461A6069
:101140008BF310882000290000F014F905B03CBC96
:1011500090469946A246AB46F0BD43461968009BAF
:101160008A18CB18514691701978002900D0517017
:10117000039A1A70434652465A734B463200187D02
:101180003B0000F04DF90028A5D04B4651461868A9
:1011900000F002FB9FE71168EFF3108072B60B6856
:1011A000002BFCD0BFF35F8F1368BFF35F8F1E600F
:1011B00080F3108820BF9EE7DC010020FFFFFF0FB7
:1011C000510C0010004005402C04002070B50400B4
:1011D0000D0000F093F802000B0020002900801899
:1011E00059418B4205D901204042C117FFF7F8FE53
:1011F00070BD8B42FAD18242F5D8F7E770B5060090
:1012000000F07CF8FA2204000D0092000023300068
:10121000002104F0FFF8001969418D4205D9012031
:101220004042C117FFF7DCFE70BD8D42FAD1844207
:10123000F5D8F7E7F0B5C64600B5EFF305833F22D2
:10124000134018001038EFF3108772B61F4D2A684C
:10125000002AFCD0BFF35F8F012211008140884635
:1012600044461B494C631B4C2678A4463400C440BA
:10127000224007D1BFF35F8F2A6087F3108804BC38
:101280009046F0BD4C6A1449820051588C420FD3ED
:10129000124BD25843469E4363461E70BFF35F8F86
:1012A00000232B6087F31088002AE8D09047E6E7F8
:1012B0000B4A9B00944663441A681A60BFF35F8F21
:1012C00000232B6087F31088D9E7C046280100D09F
:1012D0000040054046040020300400208403002024
:1012E000D03F054010B50100024A0348FFF7B4FAA9
:1012F00010BDC046585E001044040020044A516AE4
:1013000000E01900906A536A9942FAD17047C046CA
:1013100000400540164A70B5546A00E01C00956A0A
:10132000536AA342FAD12A002300801859410500CC
:101330000E008C4216D813D032000D4C636A9342D3
:10134000FCD39A420BD10A4B2800996AA94203D3D5
:1013500005E0996A814202D2596A9142F9D070BD82
:101360008242E9D9012201256D42EE175242E4E79B
:1013700000400540064A536A9942FCD807D1044B05
:1013800002E05A6A914202D19A6A8242F9D37047C6
:101390000040054070B504000D00EFF3108672B6F2
:1013A0001A4A1368002BFCD0BFF35F8F002D1BD0AF
:1013B0002000FFF7B3FA164988420AD02000FFF751
:1013C000B5FA01212000FFF78BFA0123A340114A4F
:1013D0001360114BA400E550BFF35F8F00220B4B4D
:1013E0001A6086F3108870BD0B4BA200D550012205
:1013F000A2400A4920000B7893430B700449FFF781
:10140000BFFA00212000FFF76BFAE5E7280100D0C2
:101410003512001038600540840300204604002087
:10142000F0B5D6464F4646462E4CC0B5656A00E03C
:101430000D00A66A616AA942FAD1AB4248D9EFF31E
:10144000108972B6284C21680029FCD0BFF35F8F49
:10145000264901268C46097886400F008846614659
:101460003743FFB20F70041D1E49A400204D4E6388
:101470006250840063510D6A002435421BD04D6ACE
:1014800000E025008C6AA2464C6AAC42F9D1AB421E
:1014900024D801D1524521D8474521D0114B154AB6
:1014A0001E625E631F2318401E3B83401360634629
:1014B000424601241A70BFF35F8F00220A4B1A6064
:1014C00089F3108820001CBC90469946A246F0BDC6
:1014D000AB4201D1B242B2D80124F3E70024EAE7DB
:1014E0000124E8E700400540280100D04604002020
:1014F0003004002080E200E010B5EFF3108472B6F3
:101500000A490B68002BFCD0BFF35F8F0123834097
:10151000074A0848136202789A430270BFF35F8F4C
:1015200000230B6084F3108810BDC046280100D052
:101530000040054046040020F8B54746CE4680B539
:101540004C0003686418033C1A19567807000D0014
:10155000002E04D128000CBC90469946F8BD7100BD
:1015600089190339884643445978894600215970BE
:101570005170002D11D07B68320029008068984797
:101580003B68002832D01A1943449D701178002915
:1015900000D059701670A04600E035004B46002B75
:1015A000D8D049463800FFF7C7FF041ED2D002004A
:1015B0007B682900B868984763001B19033B3A68A9
:1015C000002809D1D318424494701978002900D01A
:1015D00051701D702500BDE74146D31851189D700C
:1015E0000A78002A00D05A700C70B3E742461C19E2
:1015F0009A18A6701378002B00D063701570350010
:10160000CCE7C04610B583600023CCB243730133EE
:10161000047342608373C4730068012C06D9421CB2
:101620000133DBB2137003329C42F9D8FF23194017
:101630004B005918002340180338437010BDC046B2
:10164000F0B54E4657464546DE46E0B5467B036854
:101650007400A419033C1A19177883B00500894651
:10166000002F1ED1002911D0C07B00282AD04100B4
:101670000918591803394E70EE73002F06D07900FF
:10168000C91903398846002143449970002330006A
:1016900053706F7303B03CBC90469946A246AB466C
:1016A000F0BD7900C919033988465918487882462F
:1016B000002809D149460029E5D0E87B0028D6D189
:1016C000EE73DCE7EE73E1E742005244033A9346DF
:1016D0005B445A78019200225A704A706B6802008B
:1016E0003900A86898472B68002830D141465046F9
:1016F0005A4659189A1888701078002800D04870F7
:101700001770D8465746019A002A2DD0110028009C
:10171000FFF712FF8246002825D0020039006B68CF
:10172000A868984753465900514403392B6800284C
:101730001CD04246591898188F70027894461A198E
:101740006446002C00D04C7051460170B2E75946F7
:10175000424659189A188F701078002800D04870A7
:1017600051461170CFE72B681A19A3E75A1898440D
:1017700093465046424690705A46127894466046C8
:101780001A19002802D040466446447058468846DC
:10179000077057468EE7C046F0B54546DE465746C9
:1017A0004E46E0B50C0083B005000023002927D089
:1017B0006600477B01683619033E8819A74233D07B
:1017C0008278002A1CD053009B18033BCB181A7850
:1017D000A2421FD142781A700023027883704370AE
:1017E0009146002A33D1EA7B002A66D053009B1829
:1017F000C91803394C70EC730023437001236F73D5
:10180000180003B03CBC90469946A246AB46F0BDDA
:10181000002AE1D053009B18033BCB185A78A24210
:10182000F6D142785A70D7E702780192002A46D161
:10183000EA7B002A3FD053009B18C91803394F7028
:10184000EF7300234370019B6B730123D8E75200B1
:101850004A44033A90468A185778002F42D1EB7BCE
:10186000002B00D029E14F466E7BEC730023937070
:101870004370002EC2D03A006B683100A8689847C8
:1018800073009B19033B2A68002808D0D3184244F0
:101890009670197800290CD11F703700AEE74146C9
:1018A000D31851189F700A78002A00D05A700E7011
:1018B000A4E75170F0E7EF73C3E7EC739CE7140003
:1018C000A44652006244033A90468A185478A146CE
:1018D000002C58D1EB7B002B00D0F7E0EF730023F6
:1018E0009370AEE77800C0190338824651444878B7
:1018F0004B7053706B6883463A004946A868984716
:101900002B68002800D1A2E0424698185246991848
:101910004A468A70019002000078002801D0019A9E
:10192000487017704F465A46002A28D0594628005A
:10193000FFF702FE8146002820D002006B683900C4
:10194000A86898474B465B004B44033B9C460028E5
:101950006DD042462B689818624699188F70019096
:101960000078002800D083E04A4601980270E97BA5
:1019700098196E7B002951D1019A76E72B6842466F
:101980009A180192F3E760004844033882465144B4
:1019900048784B7053706146220083466B68A86894
:1019A000644698472968002878D0524643468A18EA
:1019B000CB1894701878002800D050704A46C24660
:1019C0001A705B46002B50D059462800FFF7B4FD33
:1019D0008046002848D0019C020021006B68A8685E
:1019E000984743465A004244D31E2968002844D0F1
:1019F0005246CB188A189C701078002800D0587076
:101A000043461370EB7B8819002B00D166E75E001C
:101A1000F318C91803394F70EF7360E74A00944612
:101A200061445B18033B5C70019AEC731EE7296804
:101A30004846CA184346CB189870107880468819D3
:101A40004646002E00D05E701770E04607E741461C
:101A5000524659189A188F701078002800D0487094
:101A60004946D04611705EE729685346CA18C9E74F
:101A70004A46487001990A7079E7CA1853464046A9
:101A8000CB1898701078844664468819002C00D0D2
:101A90005C70019B1370434601931BE75346CA18C1
:101AA00043464846CB1898701078002800D05870EC
:101AB000019B13704B46019383E703267343C918B8
:101AC00003394C706E7BEC734F46CFE603267343AD
:101AD000C91803394F7001E710B50400FEF7F4FE92
:101AE00001002000FFF792F8FF232371BFF35F8FFF
:101AF00010BDC04610B50400FEF7E6FE0100200050
:101B0000FFF784F8FF23A380BFF35F8F10BDC046AB
:101B1000F8B5040006200D0000F06CFA0300002068
:101B2000002B51D02B4B2C49E3185A1E9341802295
:101B3000120494465B42294A9B0563441360284A79
:101B4000136018008A689043FBD1224B8021E31870
:101B50005A425341234A5B0049000620995200F043
:101B600049FA2900C00002F051FEC3090BD01E4AF9
:101B700093422AD87F221040013040089F011A006A
:101B80003F18030001E04027012226008025626201
:101B9000A36200232C36AD0135432B60062000F0F4
:101BA00029FA3900800002F031FE6023E26A5340D6
:101BB0006E221A4080235B0133431A600B4B236370
:101BC00010232B600D3BA364F8BD094F0023094A85
:101BD000DBE7C0460080FCBF00C0004000E00040E2
:101BE00000F00040C0040020FEFF000001030000E0
:101BF000C0FF3F00FFFF00002D4B2E4A70B51A605A
:101C00002D4A2E4B2E491A6010008B689843FBD149
:101C10002C4C2D4DAC4209D20322231D0335ED1A65
:101C20009543ED1808CC9847AC42FBD100F07EF804
:101C3000264A224B1A60224A9368DB018033FBD18B
:101C40004022234B2348244D9A675A671A67DA6665
:101C5000A84205D30EE0FFF74DFF2000AC4209D2A9
:101C6000040003680834002BF5D1FFF735FF20008E
:101C7000AC42F5D3194D1A4CC022A168280003F0DC
:101C80003BFCA560FEF712FEFEF7AEFFFFF776F90C
:101C9000144C154DAC4209D20322231D0335ED1A15
:101CA0009543ED1808CC9847A542FBD170BDC046BE
:101CB00000E00040BFCDFBFEFE7F3C0000F0004096
:101CC00000C000405402002064020020FFFFFF011A
:101CD00000F00140440200205402002000000020D7
:101CE00000ED00E0640200206802002000BEFDE775
:101CF0000FB400B5084883B003F028FD049B002B07
:101D000007D005A91800019102F00AFD034803F06D
:101D10001DFD00BEFDE7C046885E0010985E001005
:101D200010B50148FFF7E4FF7C5E001030B50C20D1
:101D300083B000F0B9F9FEF7B1FD00280ED0964B44
:101D4000964A1A605A609A60DA601A615A619A611A
:101D5000DA611A62924A5A6203B030BD914CA067B0
:101D600000F0AAF90122904B1A60636C012BFCD1A0
:101D700003228E4B1A608B4A936B012BFCD10133EB
:101D800000938B4A043301218A4800F039F9052376
:101D9000894A00930121894800F032F9884B5A683A
:101DA000FF2A02D8802252005A6080227A4C7F4B50
:101DB00021691201824D1A60002900D0E5E0E0217E
:101DC0007F4B02201A681140802252012A43116081
:101DD0001968484003210140116004219A681142AA
:101DE000FCD08022802192012A43090111608022C7
:101DF00052005A60734B2361734B5968FF2900D816
:101E0000C1E00322684B70481A60012103009A6800
:101E10001142FCD0E0251A6815408022520102438D
:101E200015601B684B400321194011600221664A6E
:101E300093681942FCD0802380219B010343090150
:101E400019608021614B490051606361604B5A68A1
:101E5000FF2A00D8596080225E4BE16912015C4D77
:101E60001A60002905D0606902F0D0FC0130013809
:101E7000FDD1E02256490B681A4080235B012B43B9
:101E80001A60802380229B012B4312011A6080225A
:101E9000424B52004A60E3614F4B5968FF2900D81A
:101EA0005A6080224D4B216A12014B4D1A60002965
:101EB00005D0606902F0AAFC01300138FDD1E022B2
:101EC00045490B681A4080235B012B431A6080232D
:101ED00080229B012B4312011A6080235B004B6020
:101EE0002E4B3F4A23623F4B5968914201D8013241
:101EF0005A6080223C4B616A12013A4D1A600029F7
:101F000005D0606902F082FC01300138FDD1E02289
:101F100034490B681A4080235B012B431A608023ED
:101F200080229B012B4312011A608023DB024B604D
:101F30001B4B63622D4B5A68FF2A02D88022520045
:101F40005A6080222A4BA1691201284D1A6000298B
:101F500005D0606902F05AFC01300138FDD1E02261
:101F600022490B681A4080235B012B431A608023AF
:101F700080229B012B4312011A6080235B004B607F
:101F8000124BA361E8E65A603BE7606902F03EFC51
:101F900001300138FDD112E798030020006CDC020B
:101FA0001BB70000008000403CB0004030B0004053
:101FB000002F685900800240008C864700C0024014
:101FC00030800040001BB7003C8000404059730740
:101FD0005480004054B000406080004060B0004039
:101FE000FFFF03006C8000406CB000404880004060
:101FF00048B00040014B8000C05870479803002053
:10200000F8B504000C201E0017000D0002F0FEFBC6
:102010004201121A9101891AC90009188901380070
:1020200002F0F4FB069B36041B031E432368002BBF
:1020300021DB194BE21853425A4180235B019C4635
:1020400052421A40154B62441A60154B1A60154BE8
:10205000170099688F43FBD1C023221D9B011343B6
:1020600021222560A0601A602268002AFCDA08227A
:10207000E6601A60F8BD3F2322681340AB42D8D116
:10208000A3681B051B0D8342D3D1EE22E368D20265
:102090001340B342CDD1EDE70040FDBF00E000406A
:1020A00000F0004000C0004080239B001843014B1B
:1020B000D862704700800540AA23064A1B011360BE
:1020C0002F230549D360054B19605368002BFCDAB8
:1020D0007047C0460040024000B0FA000060024075
:1020E0007047C04610B5002803D04A680B6811003D
:1020F000984710BD10B5002801D003F0D7FA10BDE5
:10210000F0B557464546DE464E46E0B585B09846A2
:1021100010AB1D78139B93469A460223149A0F0026
:10212000134006000F9C12990193002B2DD101330F
:1021300013409C465346002B66D18C420DD21F2C77
:1021400000D912E10E9B30201B1902E00133202C34
:1021500003D001341870A142F8D86346002B14D084
:10216000A24512D90E9B30201B191F2C21D8AC463A
:102170001500524602E00133202C17D001341870AC
:102180009442F8D192462A006546D3062ED55305CF
:1021900019D4002C11D1119B102B00D1D9E0022BA6
:1021A0001FD10E9960330B7001241AE092462A0069
:1021B0006546D3063ED5530505D4A14200D19FE024
:1021C000544500D19CE0119B102B65D0022B06D109
:1021D0001F2C65D862210E9B1B19197001341F2C0E
:1021E0005ED830210E9B1B19197001341F2C57D853
:1021F000002D1BD1530700D570E0130750D52023C5
:102200000E990B55013415E06346002B6BD0002D61
:1022100000D070E00C2313426DD18C42A0D21F2C51
:1022200090D953462024202BC3D8AEE72D230E99F6
:102230000B550134930736D05B4603931A000E9B6F
:10224000029499464B46013C551C185D39004346A3
:10225000B0472A00002CF5D1039A029B94466344B0
:102260001D00019B002B0FD05B46EB1A53450BD290
:102270002A005D46541C434639002020B047220006
:10228000631B5345F6D32500280005B03CBC90469F
:102290009946A246AB46F0BD930641D51F2C52D9B4
:1022A0005D46930712D1544538D25B4653441B1BFD
:1022B0000F941C000F9B5A469946551C4346390003
:1022C0002020B0472A00A542F7D14C46002CC8D0A8
:1022D0000E9B039502942A009946B3E72B230E998F
:1022E0000B550134A6E78C4200D34EE71F2C00D8D3
:1022F00028E7202449E701235B429946CA448CE73A
:10230000631E002B15D1119B102B19D0022B00D16D
:1023100047E730230E9901240B7069E75D46D5E746
:102320001F2C00D986E778210E9B1B1919700134E8
:1023300055E71199023C1029AED01C000B0045E76F
:1023400093060DD5002458210E9B1B1919700134DA
:1023500045E7930604D558230E9901240B7040E7F6
:1023600078230E9901240B703BE72024F5E6C04644
:10237000F0B54546DE4657464E46E0B59BB098461A
:10238000259B249C1D00089009910A920C93002221
:102390000023200029000B9402F0EEFC002800D05E
:1023A000A7E10B9A0C9B92469B468023289ADB0060
:1023B0001A400E9201D1062326938023289A1B01EE
:1023C0001A4056465B460D92334300D161E15B46AD
:1023D0005800CC4B400D9C46604402F0F3FCCA4AC6
:1023E000CA4B02F086FCCA4ACA4B02F05BFC5B4651
:1023F000C94A1B031B0B1A4304000D00C74B1100F5
:102400005046002202F045FCC54AC64B02F071FC62
:1024100002000B002000290002F044FC02F0EAFC5C
:10242000814602F0CFFCC04AC04B04000D0002F010
:1024300060FC0022BE4B02F035FC02F0DBFCBD4A22
:102440000600BD4B2000290002F053FC04003000C0
:102450000D000F9602F0B6FCB84AB94B02F049FCE9
:1024600002000B002000290002F013FC02000B0008
:1024700006000F0002F03DFC320004000D003B009E
:102480003000390002F00EFC002210901191AD4B8B
:102490002000290002F00FFC0022AB4B02F002FCEE
:1024A00002000B002000290002F005FC0022A74BCF
:1024B00002F0F8FB02000B002000290002F0FBFBF9
:1024C0000D008021040032003B000020C90502F00D
:1024D000E0FB02000B002000290002F0E3FB0200F9
:1024E0000B001098119902F0E6FB00228A4B02F0D3
:1024F000D9FB974A0F9B9446634400221B0502F0C8
:10250000F8FB05000C0002000B005046594602F093
:1025100033FC00280BD001235B429C46280021009D
:102520000022894BE14402F0C6FB05000C004B463B
:10253000C62663339E42B6410D9B76420436002B7D
:1025400000D0BCE0279B00279E4200D29F1B0223A5
:10255000289A1A400D9203D0734273415B421F4088
:102560004B46002B07D0504659462A00230002F064
:10257000A2FB82468B46002200230B980C9902F0A6
:10258000FBFB002803D08021090659448B465246A4
:102590005B465046594602F002FC002800D044E158
:1025A00001226C4B52425046594602F0E5FB00288E
:1025B00000D0D7E0289A684B039713400493269BDA
:1025C000524602935B4609990092019308980A9A31
:1025D000434600F0FFFC0200002E52D02020289B32
:1025E000089C034059424B415B421840531C453004
:1025F0009A4609994346A0474B46DA179D18DB0FC8
:102600009946731E55409B46002412AE02E03C00E2
:10261000202F0DD028000A2102F0F8F8671C303175
:102620003419217028000A2102F0F0F8051EEED1BD
:10263000052306935B460593002304930A33039313
:102640004B4601970096099F089E029352464346C7
:1026500039003000FFF754FD0D9B0200002B10D015
:102660000A99431A279898420BD989460500434690
:1026700039002020541CB0474B462200E31A9D42EB
:10268000F5D810001BB03CBC90469946A246AB461C
:10269000F0BD0D9B55465C46002B27D00023994684
:1026A000269B4B4500DDB1E0002326938023289A2A
:1026B000DB001A43002328920026994642E72300B4
:1026C0002B43EDD0254A264B5046594602F05AFB83
:1026D000002800D09FE0269B002B00D132E70E9B04
:1026E0005A1E9341269AD31A26932BE7042699461D
:1026F00028E78022120694460C9BA24663449B4620
:1027000053E6C04601FCFFFFFB799F501344D33FC3
:10271000B3C8608B288AC63F0000F03F0000F83F36
:1027200061436F63A787D23F71A379094F930A4032
:102730000000E03F1655B5BBB16B0240EF39FAFE21
:10274000422EE63F00002C400000244000001840CC
:10275000FF030000FFFFEFFFFFF7FFFF2D431CEB20
:10276000E2361A3F0A9A289B14009B0715D1042FC2
:1027700013D9B2464646151FED19BB46099F0B9566
:10278000330039002020089D541CA8470B9B2200D1
:102790009C42F5D1B0465F4656464D4B49469A4657
:1027A0004346B94622000425A346B0461F000B91BC
:1027B0005346013D541C585D09993B00089EB047A3
:1027C0002200002DF4D13B005C460B9A4646984609
:1027D0000D9B4F469146221D002B00D1FCE60A9B23
:1027E000D31A9F4200D8F7E6B3464646BA46099F39
:1027F000330039002020089D541CA8470A9B220062
:10280000E31A9A45F4D8B0465E46E5E64A469B1A76
:10281000013B26934AE700222E4B5046594602F0D0
:10282000ABFA002800D03BE755E70A9B289A9A4666
:10283000920717D1032F15D9B2461A004646DC1E5F
:10284000E419BB46099F0B94330039002020089CF3
:10285000551CA0470B9B2A009D42F5D1B0465F4610
:102860005646AA461C4B49469B464346B9465246E5
:102870000324B0461F000B915B46013C551C185DBC
:1028800009993B00089EB0472A00002CF4D13B0078
:102890000B9A4F4691465246464698460D9B033248
:1028A000002B00D198E60A9BD31A9F4200D893E6EA
:1028B000B3464646BA46099F330039002020089D9A
:1028C000541CA8470A9B2200E31A9A45F4D89AE7B9
:1028D0008060001080842E417C600010F0B5DE46E0
:1028E00057464E464546E0B597B005000E00934664
:1028F0001F00209A219B1000190002F050FA0028B6
:1029000000D0AEE2209821990122C54B524202F03C
:1029100033FA002800D034E1209821990122C14BDC
:10292000524202F037FA002800D0C1E020982199E5
:102930000022BD4B02F02EFA002800D008E12098BA
:1029400021990022B94B02F017FA002800D0FFE0CD
:10295000209821990022002302F00EFA002800D0CE
:1029600074E200230D938023249ADB001A409046E2
:1029700000D0BAE10023AE4C069307940EAB0624B8
:102980009A462098219902F035FA099002F01AFA35
:1029900002000B002098219902F07BF9069A079B10
:1029A00002F0A7F90A900B9102F048FA81460C90C8
:1029B00002F004FA02000B000A980B9902F069F980
:1029C00000229C4B0A900B9102F0E4F9002800D100
:1029D000E5E14B46013318000C9302F0EFF9069A3B
:1029E000079B02F0CFF9002800D0FBE1002C00D0BB
:1029F0009CE1099C200002F0E5F902000B00209800
:102A0000219902F046F900228A4B0690079102F0C4
:102A1000B3F9002800D1D5E14346202B00D112E1C3
:102A20005C1C099B0A211800994601F0C7FE42462A
:102A300053463031995448460A2101F0BFFEA04662
:102A4000814600281ED05346A846BA464D461F0070
:102A5000B14600E03400202C00D162E228000A21B7
:102A600001F0ACFE661C30313C19217028000A21AF
:102A700001F0A4FE051EEDD13B0045465746B04689
:102A80009A464E460323249A1340012B00D1B1E10C
:102A900042462024202A00D1DCE00D9A002A00D1F1
:102AA00035E242465146541C40462D220A54D1E09C
:102AB000249B5B0700D5ADE05F4B9A460323984605
:102AC0005B460693249B9B0718D1239B434500D864
:102AD0004EE25B441C004346E41AB9465A463700AE
:102AE0002E002500541C4B4639002020B047220000
:102AF000AC42F7D135003E004F460694B1464446FD
:102B00005646BA462F00069A013C551C305D534686
:102B10004946B8472A00002CF6D1069B3D004344A5
:102B20001A00249B9B0724D55B462399D31A99420C
:102B30001FD92E00D0464F460D00434639002020B5
:102B4000541CB0475B462200E31A9D42F5D810E0C2
:102B5000249B5A460493239B31000393229B280015
:102B60000293209B219C009301943B00FFF700FC03
:102B70000200100017B03CBC90469946A246AB46F6
:102B8000F0BD249BD8469B0718D1239B042B15D955
:102B90005B461C1F239BB8469C46644437005A463C
:102BA0002E002500541C434639002020B047220047
:102BB000AC42F7D135003E004746A0461F4BB94610
:102BC0004246370004249A462E005346013C551CC9
:102BD000185D39004B46B0472A00002CF5D142461B
:102BE000249B350004323E009B07C2D55B462399E7
:102BF000D31A9942BDD93700C8462E000D0043466E
:102C000039002020541CB0475B462200E31A9D4245
:102C1000F5D8AEE70A4B9A460423984650E7C046DB
:102C2000FFFFEFFFFFFFEF7F65CDCD4165CDCDC14C
:102C300080842E410000E03F906000108060001012
:102C400088600010A2460323249A1340012B00D170
:102C5000CEE02024D846002B17D1239B9C4214D2CF
:102C60005B441B1BB8465A463700A1462E001D0088
:102C7000541C434639002020B0472200AC42F7D113
:102C800035003E004746A0464C4643464246A146D4
:102C9000B84637002E0006935346013C551C185D7C
:102CA00039004346B0472A00002CF5D106994B461F
:102CB0008C4663441A00249B35003E009B0700D4D9
:102CC00057E75B462399D31A994200D851E737005A
:102CD0002E000D00434639002020541CB0475B46AF
:102CE0002200E31A9D42F5D843E7229B092B00D826
:102CF0005BE10EAB9A463023524613700122904698
:102D0000229B2F325C1E4146203B504605E0013C91
:102D1000425401319C4200D1EEE0092CF7D100224F
:102D2000A84B88468246069207932AE64346202B04
:102D300089D0631E069301230C9C434420000A2182
:102D4000994601F063FD53464246303199542000C4
:102D50000A2101F05BFD041E00D122E1A8462500F6
:102D60004C46B9465746B24612E0069B2800013B46
:102D70000A21069301F04AFD661C30313C1921708E
:102D800028000A2101F042FD051E00D1CFE03400E9
:102D9000202CEAD156464546BA464F4653E7002214
:102DA0000A980B99884B01F0E7FF002800D01DE638
:102DB0000C9B002B02D0DB0700D417E60C9B0133E1
:102DC0000C9313E60022069807997F4B01F0E2FF6F
:102DD000002800D020E60123A44623409C446346FB
:102DE000099319E6099B0133099300230C93FDE530
:102DF00020239846239B002B00D1BFE00D9B002B86
:102E000003D1249A0C33134202D0239B013B23931A
:102E1000239B434500D8B1E042463023202A00D10D
:102E2000B1E0424650462399541C83548C4200D151
:102E3000A1E02200202CF7D1202399465B46B8461A
:102E40008246370006935A462E0025E7209A219B9A
:102E50000020002101F01DFF0123209021910D93FE
:102E600081E5249BD8469B0718D1239B032B15D9BA
:102E70005B46DC1E239BB8469C46644437005A469A
:102E80002E002500541C434639002020B047220064
:102E9000AC42F7D135003E004746A0464B4BB94601
:102EA0004246370003249A462E005346013C551CE7
:102EB000185D39004B46B0472A00002CF5D1424638
:102EC000249B350003323E009B0700D451E65B464D
:102ED0002399D31A994200D84BE63700C8462E00F2
:102EE0000D00434639002020541CB0475B462200A9
:102EF000E31A9D42F5D83CE6354BE2009B181A6870
:102F00005B680692079320238246984639E5249A07
:102F100052073BD542465146541C40462B220A5488
:102F200098E63B00454657464E469A468BE6454650
:102F3000B0465646BA464F464346202B00D182E65D
:102F4000069B40461A004244110054463022002B92
:102F500029D0431C2254202B00D173E618008B4249
:102F6000F7D1A2465A1C904651462E22CA5453E528
:102F70005B460693C2E5239B824698464246012360
:102F8000202A00D089E52024D8467EE6249A4446AB
:102F9000120700D45EE620225146404601340A540E
:102FA00058E6C846C8E74346DCE7DA00084B9B18FA
:102FB0005C681B6806930794002398460EAB229C1E
:102FC0009A46DEE465CDCD410000E03F7C60001014
:102FD00098600010F0B557464E464546DE46E0B5CF
:102FE00097B00792012206000F0020982199984679
:102FF0005242CF4B01F0CEFE00284DD0249B5B0700
:1030000000D541E1CB4B9A4603239B46079A249B6C
:1030100014009B0711D1239B9B450ED2190013006E
:103020008C4663441D005B46ED1A541C4346390030
:103030002020B0472200AC42F7D1B9462200370029
:103040005D465646A246013D541C705D43464946C6
:10305000B8472200002DF6D15246249B3E005A4428
:103060004F469B0710D507992398531A98420BD9BE
:1030700089460500434639002020541CB0474B4682
:103080002200E31A9D42F5D8100017B03CBC9046D0
:103090009946A246AB46F0BD002220982199A64B46
:1030A00001F078FE002800D0F3E02098219900225A
:1030B000A24B01F061FE002800D0EAE0209821999F
:1030C0000022002301F058FE002800D092E10023E6
:1030D0000D938025249BED001D4000D017E10023B7
:1030E000974C089309940EAB06249B46209821998F
:1030F00001F080FE81460C9001F064FE02000B009E
:103100002098219901F0C5FD089A099B01F0F1FD75
:103110000A900B9101F092FE824601F04FFE0200F0
:103120000B000A980B9901F0B4FD0022854B0A9020
:103130000B9101F02FFE002800D148E101239C46AD
:10314000E244504601F03AFE089A099B01F01AFE4B
:10315000002800D09CE1002C00D006E10C9C20004F
:1031600001F030FE02000B002098219901F091FD42
:103170000022744B0890099101F0FEFD002800D157
:1031800076E1202D00D1BAE00C9B0A211800994667
:1031900001F014FB5B463031595548460A2101F0D5
:1031A0000DFB6C1C8146250000281AD04D46BA46FE
:1031B000B1465F4600E03400202C00D103E1280036
:1031C0000A2101F0FBFA661C30313C1921702800FD
:1031D0000A2101F0F3FA051EEDD13500BB464E463B
:1031E00057460323249A1340012B00D10EE12024DB
:1031F000202D0BD00D9A002A00D034E1249A5207DA
:1032000000D46FE12B2259466C1C4A55079A1500D1
:10321000002B12D1239B9C420FD2190013008C4625
:1032200063441B1BA1461C00551C4346390020204B
:10323000B0472A00A542F7D14C46A246A9462A002B
:103240005B46013C551C185D39004346B0472A00D7
:10325000002CF5D14B4653441A00249B9B0700D405
:1032600012E707992398531A834200D30CE7894643
:103270000500434639002020541CB0474B4622002D
:10328000E31A9D42F5D8FFE62F4B9A4604239B464E
:10329000BCE6209A219B1000190001F080FD002857
:1032A0001AD1209821990122284B524201F064FD45
:1032B000002811D1249B079A0493239B3900039380
:1032C000229B30000293209B219C00930194434653
:1032D000FFF74EF80200D7E6249B079A0493239B3E
:1032E00039000393229B30000293209B219C009382
:1032F00001944346FFF7F2FA0200C5E68346032332
:10330000249A1340012B00D17FE020247EE7229BEA
:10331000092B00D8F2E00EAB9B4630235A461370BF
:10332000229B01255C1E3022203B594615E0C046F9
:10333000FFFFEF7F9060001065CDCD4165CDCDC121
:1033400080842E410000E03F88600010FFFFEFFF07
:10335000013C4A5501359C427BD0092CF8D1002212
:103360006C4B8B4608920993C0E6202DC7D06B1C8E
:1033700050460A21994601F049FA5B4630315955C9
:1033800050460A2101F042FA013C8246002800D151
:10339000B2E04B465546B146BA465F4611E09B4601
:1033A00028000A215E1CBB4401F030FA5B46303134
:1033B000197028000A2101F029FA013C051E76D077
:1033C0003300202BEBD1BB464E46574697E70022F1
:1033D0000A980B99504B01F0CFFC002800D0BAE6B8
:1033E0005346002B02D0DB0700D4B4E601239C46F1
:1033F000E244B0E6209A219B0020002101F049FC24
:103400000123209021910D9363E62025239B002B1F
:1034100046D00D9B002B03D1249A0C33134202D0CB
:10342000239B013B2393239BAB4239D93023202D8F
:103430003AD05946239A6C1C4B5594422ED0250005
:10344000202CF8D12023079D8B469A46A9462A00B6
:10345000F6E6324BE2009B181A685B688B460892CE
:103460000993202542E62D2259466C1C4A55CDE68B
:10347000002208980999284B01F08CFC002800D004
:103480007FE60123A44623409C4463460C9378E6E0
:103490004B4601330C9300239A465CE68B46239DF2
:1034A0000123202D00D0A5E62024079DC5E6350088
:1034B000BB464E465746202D00D120E761193022E9
:1034C0002B00002C09D058466B1C4255202B00D1F4
:1034D00014E71D008B42F7D183462E2259465D1C0E
:1034E000CA544EE6249A2C00120700D48EE62022FD
:1034F000594601344A5589E64D46DCE7DA00074B68
:1035000000259B185C681B68089309940EAB229CED
:103510009B46EBE565CDCD410000E03F9860001093
:10352000F0B5DE4657464E464546E0B5A9B01E000A
:10353000329B90460A93BF4ABF4B83468A461A6025
:10354000002968D0D1460025DA46307800280BD013
:10355000013625281BD02A0043464946D0473078FB
:103560006C1C25000028F3D1D3462A00CA464545E5
:1035700001D343465A1E434651460020D8472800EF
:1035800029B03CBC90469946A246AB46F0BD1023FC
:1035900030789B460E3B9C460300203B721CDBB2FE
:1035A0000027A64C1100102B0DD89B00E3589F4616
:1035B000012316001F433078721C0300203BDBB24E
:1035C0001100102BF1D90300303B092B00D8AEE1DC
:1035D00000239B462A2800D1CFE100242E2800D1C9
:1035E000BDE10300683BDBB2122B00D9D3E3944A60
:1035F0009B00D3589F46042316001F43DBE7634616
:1036000016001F43D7E75B4616001F43D3E7082386
:1036100016001F43CFE78B4B9B4693E780235B004D
:1036200070781F434E1C0300253BDBB2532B92D80E
:10363000854A9B00D3589F4670786C2801D100F0D2
:10364000C0FC80235B001F434E1CECE780239B00E3
:1036500070781F434E1CE6E77078682801D100F0AF
:1036600019FD80234E1C1F43DDE7462801D100F0E1
:1036700058FC07220A9B0497073393430132944670
:103680009C4462460A925A46029403925C681B6804
:103690002A0000930194494643465046FFF71EF91D
:1036A000050052E72A006C1C434649462520D047B6
:1036B00025004AE70A9B1A1D1B680C920A9318788A
:1036C000002C00D0ABE3002801D100F0A2FF0221C2
:1036D0001A00494201239C46434608900B9307E099
:1036E0000A98634680469B1A43445B18002B03D01C
:1036F00001321378002BF3D10B9B089898460A9B54
:10370000D31A08938023DB003B400B9303D0089B24
:10371000A34200D9089402231F4001D100F0DBFC32
:10372000002801D100F0BCFC0B9B002B01D000F065
:1037300062FE0A9B2A005C1B23005446B2464E469A
:10374000B946474698463B003100551CA0474346C2
:10375000585D2A000028F6D1B8464F46B146564675
:10376000A246002F01D000F09BFC0C9B0A93ECE6D4
:103770000A9B1A1D1B689346002B00D142E32122AD
:1037800017430A970F2020A90B9400220891844622
:103790000C0002E020290CD00A0061461940CFB28B
:1037A00038003730092900D80738511CA0541B09AC
:1037B000F0D10B9C0A9B01910693082305930833D3
:1037C000039300230293089B2A000093049443462A
:1037D00049465046FEF794FC5B4605000A93B4E662
:1037E0000A9B6C1C04330B940893BB0700D478E34A
:1037F0000A9B2A00187849464346D0475B465D44F9
:10380000012B01D800F07EFE2B0057464D46B146F5
:10381000464698460B9A541C330029002020B8478E
:1038200022004445F7D1B046BA464E46A946250087
:1038300073E3C046213500100C0400209C5E00108C
:10384000E05E0010E12000102C5F0010782800D10D
:10385000ECE2582801D100F067FC6F2801D100F09C
:1038600051FD622801D100F04FFE10233A009A4327
:103870000B92692801D000F039FF7B0501D500F0DB
:103880002BFD80239B001F40F73BFF3B0C93002F39
:1038900001D000F0C3FC80230B9A5B001A40130098
:1038A00094460A9A04320D92002B01D000F0CAFD12
:1038B0000B9B5B0601D400F0BCFD0A9B1B78DA175A
:1038C00098185040DA0F0A92002B08D10B9A103347
:1038D000110099430B91520501D500F0A2FE0B9BFC
:1038E00061279B0600D541275A4620ABFFB20E95B3
:1038F0000F94B34608930A3F644610920C9D1E0035
:103900000CE03033DBB2621C3355002801D100F0EB
:1039100017FC202A01D100F013FC1400290000F04C
:1039200075FFCBB20929ECD9DB19DBB2EBE7002339
:10393000010001E0160001329800C0184000401854
:103940001178030008003038303B0928F2D908000C
:103950009B46B11C002416002E2800D041E680238F
:103960007078DB001F430300303B092B15D92A2850
:1039700000D1DAE20E00013133E60A990B1D096825
:103980008B46002904DA02210F43594649428B46EF
:103990007078B11C0A9316001FE6030000E03100A6
:1039A000A00000194000C0184B7830381A00303A97
:1039B0004E1C0400092AF2D91800023111E6202316
:1039C00002009A43472A02D180231B011F4302238E
:1039D0009843452801D11E331F4307220A9B073312
:1039E0009343013294469C44624619685868089192
:1039F00009900A9203000A000B910C90089809990B
:103A000001F0CDF9002800D09BE20122E34B5242A5
:103A10000B980C9901F0BEF90122E14B52420028AB
:103A200000D0D5E20B980C9901F0A6F9002800D03F
:103A3000A2E3002200230B980C9901F09DF90028C5
:103A400001D000F055FD0B9A0C9B08920D9380233A
:103A5000DB003B40179300D1062480230D9A1B0105
:103A60003B400E93130008990F910B4301D100F0D6
:103A7000B6FCCC4B50009C46400D604401F0A2F9CE
:103A8000C94ACA4B01F035F9C94ACA4B01F00AF9D3
:103A90000D9A109011911303C74A0F991B0B1A43EB
:103AA0001B921A9100221A981B99C44B01F0F1F84D
:103AB000C34AC44B01F01DF902000B001098119984
:103AC00001F0F0F801F096F90F9001F07BF9BE4A91
:103AD000BE4B1090119101F00CF90022BC4B01F08B
:103AE000E1F801F087F9BB4ABB4B16901098119989
:103AF00001F0FFF810901191169801F063F9B74AA0
:103B0000B74B01F0F6F802000B001098119901F084
:103B1000C0F802000B001090119101F0EAF8149027
:103B200015911098119902000B0001F0BBF80022CA
:103B30001E901F9114981599AA4B01F0BCF8002211
:103B4000A94B01F0AFF802000B001498159901F091
:103B5000B2F80022A54B01F0A5F802000B00149862
:103B6000159901F0A8F8109A119B149015918021D5
:103B70000020C90501F08DF802000B00149815997A
:103B800001F090F802000B001E981F9901F093F8C5
:103B90000022894B01F086F8169B1A00944B9C4634
:103BA000624413051D9300231C931C9A1D9B01F076
:103BB000A0F81490020016910B0008980D9901F0DE
:103BC000DBF800280AD00F9B1498013B0F9316993D
:103BD0000022854B01F06FF814901691C6230F9ABE
:103BE000633293429B415B42043310930E9B002B44
:103BF0001DD0169B149A134301D100F0C1FC7D4ADD
:103C00007D4B08980D9901F0BDF8002809D00022DD
:103C10007A4B08980D9901F0AFF8002801D000F018
:103C2000AFFC002C03D0179B5A1E9341E41A0023CB
:103C30000E93109B9B4502D95A46D31A0E9302232A
:103C40003B40179306D0109B5A4253410E9A5B4259
:103C50001A400E920F9B002B07D008980D99149ACA
:103C6000169B01F028F808900D91002200230B9874
:103C70000C9901F081F8002805D0802000068446C8
:103C80000D9961440D910D99089A0B00089801F067
:103C900086F8002801D000F0E2FC0122404B52429D
:103CA00008980D9901F068F8002801D000F075FC23
:103CB000534B089A3B4004930E9B029403930D9B35
:103CC00049460092019350462A004346FFF782F985
:103CD0000200109B002B00D170E1202007403B0028
:103CE00059424B4100275B42511C18400B914346FF
:103CF00049464530D0470F9A109BD117013B5418C5
:103D00000D93D20F20AB0E954C403D000C920893C2
:103D10000F961F0002E03500202E0DD020000A2152
:103D200000F074FD6E1C30317D19297020000A21CD
:103D300000F06CFD041EEED1052306930D9B3200AE
:103D40000593002304930A3303930C9B019202937F
:103D5000089B0B9A00934946434650460E9D0F9E82
:103D6000FEF7CEF9179B0200002B00D126E1431B82
:103D70009B4500D822E15C465746531C9A4649466B
:103D800043462020B8475246531B9C42F5D8BA46BA
:103D90001500FFF7DAFB0E0045E4C046FFFFEF7F9A
:103DA000FFFFEFFF01FCFFFFFB799F501344D33F60
:103DB000B3C8608B288AC63F0000F03F0000F83F80
:103DC00061436F63A787D23F71A379094F930A407C
:103DD0000000E03F1655B5BBB16B0240EF39FAFE6B
:103DE000422EE63F00002C40000024400000184016
:103DF000FF0300002D431CEBE2361A3F80842E4166
:103E0000FFF7FFFF102239009143113211430A914D
:103E10007A0500D4B6E420AB00210893CAE4002858
:103E200001D100F0F6FB611E1A0053E4802310223A
:103E3000DB003B400C920C2297430B973A00002B7F
:103E400002D001239A430B9280270B9BBF001F4097
:103E5000692800D11BE5642800D118E5002F00D0A7
:103E60007CE280230B9A5B001A40130094460A9A66
:103E700004320D92002B00D050E30B9B5B0600D464
:103E800045E30A9B1878002807D10B9A10231100EC
:103E900099430B91520500D5BFE30B9B61279B060D
:103EA00000D5412720ABFFB20A950E940F960893D8
:103EB0000A3F65460C9C1E000AE03033DBB26A1CE8
:103EC0007355002800D111E2202A00D10EE215001E
:103ED000210000F09BFCCBB20929EED9DB19DBB243
:103EE000EDE75B46012B00D8A7E36B1E9B44330034
:103EF0005E469B4601E02500013443462A004946C0
:103F000020202700D047B442F5D15E4602350A9BF7
:103F10003A00187849464346D047089B0A93FFF772
:103F200014FB20231F43FFF7A4FB0A9AB078146800
:103F3000F11CE343DB171C40131D0A930236FFF705
:103F400050FB2C00BB0710D15B46032B0DD9EC1E98
:103F500023002A005B440893434649462020541C12
:103F6000D047089B22009C42F6D103230893DC4BE8
:103F700022000B932B003D001F00089B0B98511C47
:103F8000013B0C910893C05C49464346D047089BCF
:103F90000C9A002BF2D13B002F00E21C1D00BB0746
:103FA0000CD5531B9B4509D95F46541C43464946D3
:103FB0002020D0472200631B9F42F6D81500FFF750
:103FC000C4FAC0239B00B0781F430336FFF72BFBD6
:103FD0000B980C9900F0D0FE002800D0CCE07B07B5
:103FE00000D46BE2BF4B089304230C930B95BB07E3
:103FF0001CD10C9B9B4500D82DE35A465419E41A5A
:1040000033002A004E46A94655469A460D97571C3E
:10401000434631002020A8473A00BC42F7D153461E
:10402000AA464D46B1461E000B970D9F33005646DB
:104030009A460B9A0C9C0D95089B013C551C185DEB
:1040400049464346B0472A00002CF5D153460B9908
:10405000B2468C461E000C9B0D9D63441A00BB07A4
:10406000ACD5531B9B45A9D933005C464E465746F9
:104070009946531C9A46310043462020B847524681
:10408000531B9C42F5D84B46BA46B14615001E005C
:10409000FFF75BFAC023B0781F430336FFF7C3FA7C
:1040A000089B9B4501D8FFF760FB5A465419E41A58
:1040B00033002A004E4657469946013543463100A3
:1040C0002020B8472A00A542F7D14B46BA46B14650
:1040D0001E00FFF74AFB089A531C934500D8A8E23C
:1040E0005B465B199B1A08971F0033002A004E4657
:1040F000A14654469A460135434631002020A04748
:104100002A00BD42F7D15346A2464C46B1461E0096
:104110005B460133089F08930A9B1878002801D05A
:10412000FFF702FBFFF721FB0C233A009A431433FD
:104130001A430B927B0500D4C7E010230C9380E652
:10414000109B5E469B460E9D0F9C0B9B0494069312
:104150005B4605930C9B03930A9B0293089B019279
:1041600000932A00434649465046FDF7C9FF0D9B80
:1041700005000A93FFF7E9F90B95BB071BD15B46D6
:10418000042B00D8B0E233002C1F2A004E46A9466B
:1041900055469A465C440897571C434631002020F8
:1041A000A8473A00A742F7D15346AA464D46B14622
:1041B0001E000B97089F4C4B0424089333004E4677
:1041C000B94657469A460B9A0C95089B013C551CDC
:1041D000185D31004346B8472A00002CF5D15346FC
:1041E000BA464F460B9AB1460C9D1E000432BB07DF
:1041F00000D4E3E6531B9B4500D8DFE633005C4662
:104200004E4657469946531C9A4631004346202055
:10421000B8475246531B9C42F5D834E707220A9B05
:1042200007339343013294469C4462465F680A9286
:104230001A68FB171893199318981999030053409B
:1042400012930B007B4013939446129A139B121AFD
:104250008B41129213936246FB0F14933A4307D19A
:104260000B9A1023110099430B91520500D5E7E1F9
:104270000B9A6123920600D54123DBB220AA0A3BA8
:104280000E950F9410960027129C139D08920D9383
:104290000C9E0CE03032D2B2089C7B1CE25502002E
:1042A00004000D000A433FD0202B3DD01F003200F8
:1042B00000232000290000F0EBFAD2B2092AE9D944
:1042C0000D9B9C466244D2B2E6E780239B001F40D0
:1042D000F13BFF3B0C93C1E50A230C93B1E5C046CB
:1042E0007C60001088600010806000100A9D0E9CA9
:1042F0000F9E0B9B049406935B4605930C9B0393C4
:1043000000232AE708230C938023DB003B4064282A
:1043100000D090E53A000B97002B00D091E5802764
:10432000BF001740FFF7B3FA12941395109E0F9C2D
:104330000E9D0B9A049406925A4605920C9A01938C
:104340000392149A0292089B2A000093494643461E
:104350005046FDF7D5FE0500FFF7F7F807220A9B48
:1043600007339343013294469C44624603CB0300D7
:104370000A920B4307D10B9A103317009F430B97F8
:10438000520500D563E10B9A6123920600D54123C3
:10439000DBB220AA0A3B0E950F94002708920D93DA
:1043A0000C9C109615000CE03032D1B2E955180083
:1043B0007A1C3100334300D185E0202A00D182E00D
:1043C00017002200002300F063FAD2B203000E00AF
:1043D000092AE9D90D998C466244D1B2E6E70E9BD1
:1043E000002B00D0C7E00D9B14911693042310936B
:1043F00000230F931BE40A9B64195B1B0A93330091
:104400002A004E46B94657469A4608E043463100D0
:10441000551CB8470A9B585D002862D02A00A2426A
:10442000F4D153461500BA464F46B1461E00FFF779
:1044300098F90B9B1B0600D4F7E00A9B00229B5EB9
:10444000FFF73DFA0A9B1B68DA1798185040DA0FFD
:104450000E92002B06D10B9A1033110099430B9149
:1044600052051FD40B9A6123920600D54123DBB27B
:1044700020AA0A3B08920A9309E03033DBB208997C
:104480007A1CCB55002810D0202A0ED017000C998A
:1044900000F0BCF9CBB20929EFD90A9A94466344DB
:1044A000DBB2ECE7002220AB08930B9B049406934D
:1044B0005B4605930C9B03930E9B4EE68D4B089336
:1044C00003230C9392E50E9D0F9C109E0B9B04946E
:1044D00006935B4605930C9B019203930023029382
:1044E00031E75346BA464F46B1461E00FFF739F949
:1044F0008022120694460B9B08930C9B63440D93F9
:10450000FFF7A5FA250008E502230C93FCE60B9BB8
:104510001B0600D498E00A9B1888B4E40A9B18682C
:10452000002806D10B9A1023110099430B915205D4
:1045300073D40B9A6123920600D54123DBB220AAE3
:104540000A3B08920A930BE03033DBB208997A1CDD
:10455000CB55002800D1CCE6202A00D1C9E61700AF
:104560000C9900F053F9CBB20929EDD90A9A944677
:104570006344DBB2EAE70D9B1491169300230F937B
:104580000F9B9C4257DDE41A013C8023DB001F4354
:10459000002310930F93FFF74AFB0B95BB070FD136
:1045A0000E9B042B59D99C462A002C1F6444531C93
:1045B0000B93494643462020D0470B9A9442F6D1AC
:1045C00004244D4B0B9A08930C97089B013C571CF5
:1045D000185D49464346D0473A00002CF5D10B9A66
:1045E000179B0C9F0432002B01D1FFF772FB0E9931
:1045F000531B8B4201D3FFF76CFB434649462020F7
:10460000541CD0470E992200631B8B42F5D3FFF751
:1046100060FB00230893FFF775F820AB0022089396
:1046200067E620AB002208938FE50A9B1B68FFF723
:1046300046F9089372E50024A7E72F00250066E4F9
:1046400020AA0023089274E60A9B18681BE420AB9A
:10465000002208933AE70B95E8E40B95B0E72C00AD
:10466000BB0710D10E9B032B0DD99C462A00EC1ED4
:1046700064440894434649462020541CD047089B74
:104680002200A342F6D1032308931C4B22000B9374
:104690002B003D001F00089B0B98511C013B0C9107
:1046A0000893C05C49464346D047089B0C9A002BB0
:1046B000F2D13B002F001D00179BE21C002B01D103
:1046C000FFF707FB0E99531B8B4201D3FFF701FB4A
:1046D000434649462020541CD0470E992200631BB4
:1046E0008B42F5D3FFF7F5FA0B9564E5063B17000F
:1046F0000C9309E690600010806000107C60001050
:1047000000B585B003910121029000930348130086
:104710004A4202A9FEF704FF05B000BDE5200010E3
:1047200010B5094A84B01468002C09D00122009108
:104730000300524203A90548A047012004B010BD60
:1047400001F004F80020F9E70C040020F520001027
:1047500001480421014B1847100200208147001036
:10476000142310B50100188804331B88984710BD26
:10477000162310B50100188802331B88984710BD16
:10478000F0B5C64600B5002916D014230400012553
:1047900098461827890046184346216818883B88A0
:1047A000984701C4431E984140420540A642F3D1B8
:1047B000280004BC9046F0BD0125F9E7124A936F2A
:1047C0009B0815D29066D166002905D0FFE7FFE768
:1047D000FFE7516F106F704704B580210906C217BB
:1047E0005140002800D0C84301F066FA002104BD02
:1047F000F0B5146E556E576F166FFFF7E3FF146632
:10480000556657671667F0BD000000D0114A936FD8
:104810009B0813D210665166002905D0FFE7FFE719
:10482000FFE7516F106F704704B5002801D00020DA
:10483000C04301F041FA002104BDC046F0B5146E3A
:10484000556E576F166FFFF7E5FF1466556657678D
:104850001667F0BD000000D094464E4A926F920851
:10486000624601D230E0C046F0B54A4EB56F6D08E1
:10487000FCD3346E756E776F366F00F025F8944672
:10488000444A14665566576716676246F0BDC046CF
:104890009446404A926F9208624601D258E0C04660
:1048A000F0B53C4EB56F6D08FCD3346E756E776F06
:1048B000366F00F04DF89446364A146655665767D1
:1048C00016676246F0BDC046002B24DB11D00029DC
:1048D0003EDA00B5C943404200D1013100F038F85A
:1048E000C943404200D10131DB43524200D1013380
:1048F00000BD002AEBD1002801D1002905D00020FD
:10490000C90FC90701D1C043410800B501F0CCF976
:104910000022002300BD00B500290ADBDB43524220
:1049200000D1013300F014F8C943404200D10131F5
:1049300000BDC943404200D10131DB43524200D1A6
:10494000013300F005F8DB43524200D1013300BDD2
:10495000002923D1002B18D1002A0CD0BC460D4FC2
:1049600038667A6600210023FFE7FFE7FFE77A6FEA
:10497000386F67467047002801D00748010000B52E
:1049800001F092F90022002300BD02000B0000207C
:1049900000217047000000D0FFFFFFFF002B00D078
:1049A000BFE0130C28D1002AE7D080B4114F39663C
:1049B0007A66FFE7FFE730B4040C7B6F396F1B04A6
:1049C00023433B667A66FFE7FFE7FFE7C04684B212
:1049D0007B6F3D6F1B0423433B667A66FFE7FFE76F
:1049E000C04600232C042D0C7A6F386F00196941E2
:1049F000B0BC7047000000D0F0B594460025140EFE
:104A000001D112020835140F01D112010435940F9F
:104A100001D192000235D40F01D152000135D40BDF
:104A20000134254F7C66254C3C660E0C93B2FFE7A3
:104A3000FFE7FFE73C6F6643360C7703BE467343E0
:104A4000DF0B5B04C01AB941130C7343DB18C91A9E
:104A5000CE086643360CB64493B273431F0F1B0156
:104A6000C01AB941130C73431F0B1B05C01AB9417F
:104A7000860D8F023E436643360C092D24DB520A15
:104A80007243801A7703460A6643360C16235B1B73
:104A9000DE40DF40BF1964466643821B7046043522
:104AA00006330100D940A840C01900D30131A24209
:104AB00006D20023F0BD0000000000D0FFFFFFFF82
:104AC000121B0130F3D3F1E709277F1BFE40644638
:104AD000A2B27243801A00D20139220C7243130C25
:104AE0001204821A99410B007046043513370100F5
:104AF000F940A840801900D30131002B02D1A24215
:104B00000AD2F0BD013000D30131121BFAD2013BB1
:104B1000F8D1A24200D2F0BD013000D30131121B06
:104B2000F7E7F0B51C0C00D080E00CB400251C0A9F
:104B300004D11B02160E3343120208351C0B04D19C
:104B40001B01160F3343120104359C0B04D19B004B
:104B5000960F334392000235DC0B02D192185B4171
:104B600001351C00971864410134464F7C66464C61
:104B70003C660E0CFFE7FFE7FFE7C0463C6F66436D
:104B8000360C7703BE4697B27743C01B00D201397B
:104B9000C01B00D201399FB27743C91BC91B170C38
:104BA00077437E04FF0B801BB941CE086643360C69
:104BB0000C2D33DBB644120B1F053A431B0B97B287
:104BC0007743C01B00D201399FB27743C91B170C32
:104BD00077433E043F0C801BB941860D8F023E4354
:104BE000664329277F1BFE400C3D7746AF40BF1927
:104BF00030BCA2B2ABB272437343801A9941220C0B
:104C00007243130C1204801A994102000B00013701
:104C1000001BA941F9D2781E0021F0BD0C277F1B93
:104C2000FE4077467F0BAF40FF19E0E700245D1C94
:104C300007D0144F7D663966FFE7FFE7FFE7FFE720
:104C40003C6F95B29EB265436643401BB141150C63
:104C50001E0C6543664336042F0C3E432D04401B57
:104C6000B141994204D202000B0020000021F0BDA6
:104C700001D19042F7D3801A994101349942F2D37D
:104C8000F6E70000000000D0FFFFFFFF4840414072
:104C9000484018B41B4B5B68FC46019308BD04DF19
:104CA000E74E001018B4174B1B68FC46019308BD73
:104CB00000DFF14E00109446134A926F920809D219
:104CC000624618B40F4BDB68FC46019308BD0CDF4D
:104CD000A95100100C4AF0B5146E556E576F166F3F
:104CE0006246FFF7EEFF084A146655665767166777
:104CF000F0BD18B4034B9B68FC46019308BD08DF68
:104D00004D500010C4040020000000D0FFB55040FA
:104D10004240504059404B40594000E0FFB5154FCC
:104D20004C00640D03D0BC4204D10C0314D8002005
:104D3000090D09055C00640D03D0BC4204D11C03BD
:104D40000AD800221B0D1B0501264B4009D44B40FD
:104D500003D58B4200D18242FFBD9942FCD19042E3
:104D6000FFBD0B43DB1803431343F5D0C943491878
:104D7000FFBD0000FF07000000B5FFF7CFFF804137
:104D800000BDC04600B5FFF7C1FF01D9002000BD3E
:104D9000012000BD00B5FFF7B9FF804100BD012033
:104DA00040054A00121804D85A00121801D80020F1
:104DB0007047012070470020704700000021002844
:104DC00005D17047C1174840401AFAD0C90713B53A
:104DD000064B1B6898470CBC441CA2401005120BE4
:104DE0000349091B09051943114310BD280400207C
:104DF0001F04000010B54C00620D8023D218DB00A8
:104E0000D21A5B057E2A10DD9E3A13DACC1709030D
:104E1000490819435242D140640001341532202A16
:104E200005DAD0400843604310BD002010BD08469D
:104E3000604310BDC80FC018013810BD18B4044B32
:104E40005B6AFC46019308BD24DF59530010000043
:104E5000C4040020132370B51C78012C11D01ADD76
:104E60000F48FFF785FC0F4D01008022280000F05D
:104E700043FB022C10D00C48FFF772FC0B4B186060
:104E800070BD084D0A4A29002B00803104C38B42B3
:104E9000FCD1AA64EFE7034D054AAA64EBE7C046DC
:104EA00053440000C40400204C33000028040020B8
:104EB000B54E001007B5604601880A0A0230DF2AA5
:104EC000FAD1C9B2820804D3028840880004104392
:104ED00000E00068014A5050039007BDC404002060
:104EE0000FB403BC0CBCF0B50124E407634000E040
:104EF000F0B50C0DCF0F661E3605891B640503D374
:104F0000C943404200D30131640D03D0661CF60A48
:104F100007D0E41B00207F00791C89078912803CA0
:104F200024031D0DDF0F6E1E36059B1B6D0503D37D
:104F3000DB43524200D301336D0D03D06E1CF60AE1
:104F400007D0ED1B00227F007B1C9B079B12803D3E
:104F50002D032F1B661B58D4A446202E46DA20377B
:104F60001400BC401D00BD40F24033412A4380186C
:104F70005941CB0F05D0C943C04300226442504180
:104F8000514162464D0D28D10D0D07D100281FD08B
:104F9000241940414941013A0D0DF9D0640006D36E
:104FA000013000D30131002C01D140084000013A0A
:104FB0000BD4941CE40A04D112051144DB071944F4
:104FC000F0BDD907204B194300E0D9070020F0BD00
:104FD0000029DDD1002CDBD1F0BD0132C60740082D
:104FE000CD0728434908002EE1D0D9E73C2E29DA25
:104FF000203E40371400BC4000D00124F24014434E
:105000001A00BB401C43D317ACE7AC46202F08DA8C
:1050100020360400B4400D00B540F8403941284323
:10502000A5E73C2F0CDA203F40360400B44000D006
:105030000124F84004430800B1400C43C117EAE7DB
:1050400010001900002494E70000F07FF0B50C0D6B
:10505000661E3605891BE60A6405640D02D0651CD0
:10506000ED0A04D0002001210905803C2403A44658
:105070001C0D671E3F05DB1BE70A6405640D02D0AB
:10508000651CED0A04D0002201231B05803C24038B
:105090007740644497B484B296B27443070C7E435D
:1050A000150C6F4380B26843361802D30120000408
:1050B0003F183004350C00197D41844688B29AB2FD
:1050C00050430C0C62431F0C7C438EB27E439219FA
:1050D00002D301263604A4191604170C36186741AA
:1050E00001BC81B29AB25143040C62431B0C5C4375
:1050F00080B25843121802D301200004241810046F
:10510000130C401863412D185E410020474106BC36
:1051100088B293B258430C0C6343120C544389B2C7
:1051200051435B1802D301210904641819041A0CB5
:10513000091862416D1856410020474118BCF90218
:10514000720D1143F0026A0D1043ED020A0D03D1F6
:105150006D1940414941013B124E9B1B7600B34201
:105160000ED26D0007D301300026714166463543EB
:1051700001D1400840001B05C918E4072144F0BDD7
:105180000BDA013306D1013004D101314F0D01D0CA
:105190004908F2E7E1070020F0BD013631050020A3
:1051A000EBE70000FF030000F0B51C0D671E3F0594
:1051B000DB1BE70A6405640D02D0661CF60A04D006
:1051C000002201231B05803C2403D0252D06002648
:1051D000F6432E661E096E66CE0FF619B4464900D8
:1051E0004F0D02D07E1CF60A03D000200021403F64
:1051F0003F033E1BB600B444013F7F05C91B49086D
:105200002E6F013676089C02950D25437543ED13EC
:105210007543AD1301356D10F603761B0CB4CC024B
:10522000450D2C43A2B2B3B25A43270C7B43350C35
:105230006F43A4B26C431B1902D3012424043F1909
:105240001C041D0CA4187D4124196D41009A91B2D3
:10525000ACB26143170C7C432B0C5F4392B25A43B0
:10526000A41802D301221204BF182204230C5218DE
:105270007B41019C6C431B19520ED9010A43440126
:10528000A01A81B2B2B2514303145A43360C73438D
:1052900087B27743D617D21900277E4136049B196F
:1052A0001704160C7F185E417316ED18F3010026E3
:1052B00080337541A90F06D16400690AE8055B0ACD
:1052C000184309D22FE00422944480337541A90A7F
:1052D000A8059B0A184326D3404149412404009A5B
:1052E000019B0D005543641B4343E41A95B286B2FB
:1052F0007543170C7E43030C5F4392B25A43B618B2
:1053000002D301221204BF183204330C52197B411C
:1053100052429C41002C02D40022013051414008ED
:10532000CA071043490802B06246D7079210084BDB
:10533000D218084B9A4203D212058918C919F0BD38
:105340000020002A01DC3900F0BD01331905F5E722
:10535000FD030000FE070000002200B5203200F02F
:1053600004F8080000BD000000220B150AD410B597
:10537000944600F031F81414013400DA0021CB1700
:10538000144C20470020002170476244343A0CD46A
:105390000C2A07DA04009140904052422032D44057
:1053A000214310BDD843D94310BD203207D40C4649
:1053B0009440524220321141D040204310BD080099
:1053C000C917203203D452422032104110BD1800B8
:1053D000190010BD8B5300100A0DCC0F531E1B0576
:1053E000C91A520503D3C943404200D30131520DBB
:1053F00003D0531CDB0A07D0121B00206400611C81
:1054000089078912803A1203014BD21A70470000B3
:10541000FF03000051434343C9188C46110C83B26B
:105420004B4310B4040C614392B280B250436243C8
:105430001C041B0C001910BC59411304120CC01899
:105440005141614470470000132310B51C78134884
:10545000FFF78EF9012C0BD004DD010080221048EB
:1054600000F04AF80F48FFF77BF90F4B186010BDAA
:105470000B4C01005422200000F03EF80B4B6365FA
:10548000A365E36523666366A366E36623676367D4
:10549000A367E3672362E361E4E7C0465346000085
:1054A000C40500204C33000028040020B154001033
:1054B00007B5604601880A0A0230DF2AFAD1C9B26C
:1054C000820804D3028840880004104300E000688A
:1054D000014A5050039007BDC40500200148042133
:1054E000014B18472002002081470010014B1B6828
:1054F0001847000020020020014B5B68184700009D
:1055000020020020030010B508001B681100984716
:1055100010BDC046F0B5C64600B5437C06000C0081
:105520001500002B06D1036811002000984704BC29
:105530009046F0BD002AFADD0A78037C00200A2A92
:105540002CD00121012D1BD0184B984602E03900C8
:10555000BD4215D04B1EE25C635C4F1C0A2BF6D19A
:105560000D2AF4D03368884203DA091A20189847C4
:10557000336802214046984738003900BD42E9D1DE
:10558000854203DD291A3368201898476419013CC5
:1055900023780D3B5A4253413374C8E7002BD0D1D6
:1055A00002480221336898470120CAE74861001089
:1055B000F0B54F46D6464646314BC0B51C6807008D
:1055C000002C1BD02F4B98462F4B9A4602E0E468E4
:1055D000002C13D02368002BF9D042461268002A11
:1055E00001D0A242F3D1627C3D1D3E68002A0CD15D
:1055F000310028009847E468002CEBD100233B6081
:105600001CBC90469946A246F0BD002EDFDD3979DC
:10561000227C00200A292BD00121012E03D119E080
:1056200049464E4516D04B1EEA5C4B1C99466B5CB6
:105630000A2BF5D10D2AF3D02368814203DD091A24
:1056400028189847236802215046984748464946FB
:105650004E45E8D1864203DD311A23682818984761
:10566000AD19013D2B780D3B5A4253412374AEE7EF
:10567000002AD1D10448083998470120CCE7C04618
:105680000004002004040020486100100B6870B57D
:1056900005000C00802B04D05A1C2260E4182571F0
:1056A00070BD0800FFF784FF2368F5E7F0B5CE462C
:1056B000474680B583B06B46DD1CD02328701B069F
:1056C0001C681F4B804601A91800994600F0FCFA9F
:1056D000071E2DD1019B64B29C4224D0484600F0A5
:1056E000FBFA184B01271C68002C25D0164E07E04A
:1056F000012229002000FFF70DFFE468002C0AD0EA
:105700002368002BF9D03368002BF1D0A342EFD0EF
:10571000E468002CF4D1002F0ED1404603B00CBC3D
:1057200090469946F0BD074B1C68002CDED1F4E78B
:10573000044B1C68002CD9D1484600F0ADFAECE7C8
:105740004C0200200004002004040020F0B5DE46D6
:1057500057464E464546E0B583B0070000F066FA6E
:10576000D02301AD1B06060029002F481C6800F05D
:10577000ABFA8246002849D1019B64B29C423FD0DB
:10578000294800F0A9FA294B9B461C6801239A4638
:10579000002C40D0264B98460A2399460EE0320052
:1057A00039002000FFF7B6FE4B46012229002000F9
:1057B0002B70FFF7AFFEE468002C0BD02368002BA2
:1057C000F9D043461B68002BE9D0A342E7D0E46838
:1057D000002CF3D15346002B1DD15B461C68002CD6
:1057E00006D06368002B1AD09847E468002CF8D1E3
:1057F000300003B03CBC90469946A246AB46F0BD93
:105800000A4B1C689B46002CC4D1F1E7074B1C686F
:105810009B46002CBED1044800F03EFADDE7E46868
:10582000002CDED1E4E7C0464C020020000400203A
:1058300004040020F0B5CE46474680B583B06B46E1
:10584000DD1CD02328701B061C681F4B804601A955
:105850001800994600F038FA071E2DD1019B64B25A
:105860009C4224D0484600F037FA184B01271C68A8
:10587000002C25D0164E07E0012229002000FFF75A
:1058800041FEE468002C0AD02368002BF9D033686D
:10589000002BF1D0A342EFD0E468002CF4D1002F0C
:1058A0000ED1404603B00CBC90469946F0BD074B64
:1058B0001C68002CDED1F4E7044B1C68002CD9D105
:1058C000484600F0E9F9ECE74C0200200004002013
:1058D000040400200A4A1368002B05D10CE01A00CA
:1058E000DB680C32002B07D09842F8D1002902D196
:1058F000C3681360C16070470029FCD01060FAE7EC
:1059000000040020F0B5C646D02300B51F4EA2B05B
:105910001B0607008846300001A91C6800F0D4F976
:10592000051E07D1019B64B29C4203D0300000F0F9
:10593000D3F901358422002101A8FFF7D7FD4346A2
:105940003A0001A91248FEF7DBFE019B0700002B7D
:1059500018D1104B1C68002C06D06368002B0DD0AA
:105960009847E468002CF8D1002D02D0300000F0F8
:1059700093F9380022B004BC9046F0BDE468002CD6
:10598000EBD1F1E701A8FFF713FEE2E74C0200209C
:105990008D560010000400200FB400B583B004A998
:1059A00001C90191FFF7AEFF03B008BC04B018476E
:1059B00010B500F095F810BDF0B5CE46474604008E
:1059C00080B583B0FBF79AFC2600002736184F41BC
:1059D000B94233D830D0B9461C4B1D4D984643468A
:1059E0001C68002C03D116E0E468002C13D02B684F
:1059F000002B01D0A342F7D1A368002BF4D00121E2
:105A000001A898470028EFDD6B46187903B00CBC5D
:105A100090469946F0BD0F4B5A6A4A4507D39B6A98
:105A2000B34202D301204042F0E74A45FAD10120B7
:105A30000021FBF76FFCD2E7B042CCD901235B42D7
:105A4000994601267642F717C6E7C04600040020B3
:105A50000404002000400540F0B5002915DD0E4B80
:105A60000D271A680D4B4118D3185C4263410C4C4A
:105A70005B001E5F20240578AE4207D093691C426C
:105A8000FCD1013015608842F5D1F0BD93691C420C
:105A9000FCD11760F2E7C046400400200080FCBF44
:105AA000C004002030B5002915DD0C4B1A6893693D
:105AB000DB0610D400251024013593691C42FCD16B
:105AC00013680370A94204D0936901301C42F3D0DB
:105AD0002900080030BD03204042FBE740040020BD
