:020000041000EA
:1000000000B50C4B00219960022159610A49196021
:100010000A490B480160002159600121996001BC27
:10002000002800D0004707480749086003C880F34C
:10003000088808470000001800031F00180200038A
:10004000F40000180001001008ED00E000000000BE
:1000500000000000000000000000000000000000A0
:100060000000000000000000000000000000000090
:100070000000000000000000000000000000000080
:100080000000000000000000000000000000000070
:100090000000000000000000000000000000000060
:1000A0000000000000000000000000000000000050
:1000B0000000000000000000000000000000000040
:1000C0000000000000000000000000000000000030
:1000D0000000000000000000000000000000000020
:1000E0000000000000000000000000000000000010
:1000F000000000000000000000000000EA224C5D4B
:1001000000200420F7010010C3010010C5010010F9
:10011000C1010010C1010010C1010010C101001097
:10012000C1010010C1010010C1010010C701001081
:10013000C1010010C1010010C9010010CB01001065
:10014000CD010010CD010010CD010010CD01001037
:10015000CD010010CD010010CD010010CD01001027
:10016000CD010010CD010010CD010010CD01001017
:10017000CD010010CD010010CD010010CD01001007
:10018000CD010010CD010010CD010010CD010010F7
:10019000CD010010CD010010CD010010CD010010E7
:1001A000CD010010CD010010CD010010CD010010D7
:1001B000CD010010CD010010CD010010CD010010C7
:1001C00000BE00BE00BE00BE00BE00BE00F04BF888
:1001D000103800BEF2EB8871C8850010F48500105D
:1001E0003402001090A31AE700202149086006C8D5
:1001F00081F3088810471F48006800282FD10DA4FC
:100200000ECC002902D000F012F8F9E71A491B4A77
:10021000002000E001C19142FCD1194988471949E9
:1002200088471949884700BEFDE701C901C29A42C3
:10023000FBD37047F4850010C00000204C03002061
:100240008088001000000420000004208088001036
:1002500000100420001004200000000070470B482C
:1002600004F0E8FA0047EFF30580C0B270470000E1
:1002700008ED00E0000000D05003002074120020C0
:1002800031190010250400101D1A001057560000E7
:1002900006005250ABB36053148300100600525056
:1002A000861C030224830010060052505422A29D93
:1002B0002C83001005005250DE65F4688088001021
:1002C000F8B5C0460448054B10B5834203D0044B33
:1002D000002B00D0984710BD4C0300204C03002099
:1002E0000000000006480749091A8910CB0F591869
:1002F00010B5491003D0044B002B00D0984710BD17
:100300004C0300204C0300200000000010B5074CF7
:100310002378002B09D1FFF7D5FF054B002B02D026
:10032000044800E000BF0123237010BD58040020E2
:1003300000000000787F0010054B10B5002B03D0A3
:100340000449054800E000BFFFF7CCFF10BDC046E0
:10035000000000005C040020787F0010F0B5D64655
:100360004F4646462848C0B505F02CFA002398466B
:10037000264B80279A46264BFF0399464346FF2685
:10038000D02480251E40320041465046240605F008
:1003900037FB6368AD032B4207D010E0012000213A
:1003A00000F074FD63682B4209D163683B42F5D0CD
:1003B000184805F007FA0021174807F06BFDD02414
:1003C0004846240605F0FEF9236980255E40FF2398
:1003D000AD021E40E66105200021656100F056FD7A
:1003E000A5610A20002100F051FD01239C460B4B22
:1003F000E0449845C2D10A4805F0E4F91CBC904697
:100400009946A246F0BDC046947F0010AC7F001014
:10041000F87F0010D47F0010100F0020102700007C
:10042000BC7F0010F8B58026D024B6043700214DDB
:1004300005F0F2FA2406280000F060F8206A1E4B4E
:10044000584028401D4DE062A361FA20676100F02A
:1004500035FD013DA661FA2000F030FD002DF4D1FC
:100460000024643502E0280000F028FD200006F09A
:10047000EBFF0028F7D0124807F000FDD0231B0641
:100480005B68104A1B03DB0F13600FD1D02480255B
:10049000FA2024066D028000656100F00FFDA56161
:1004A000FFF75CFF0021064807F0F4FC064805F062
:1004B00089F9EBE7FFFF6706FF000702449C000095
:1004C000100F002048020020847F0010094A83009A
:1004D00094464022634410B51C68C0006240C024AA
:1004E00014408022520113431C60034B9C4660441D
:1004F000416010BD04C00140004001404021F0B502
:10050000D6464F46464688468031C0B5D0258C46F3
:100510008027BB39002301248A46104A2D067F011B
:10052000044211D0210099404646A962A961116890
:100530007140664631403E0016433160084ED90096
:10054000B146564649440E60013340080432202B20
:10055000E6D11CBC90469946A246F0BD04C00140BD
:1005600004400140F8B5EFF3108C72B60D4F3B68B4
:10057000002BFCD0BFF35F8FCB08C0180578072491
:100580002B000C40E3400126334008D1A640354300
:100590000570BFF35F8F3B608CF31088F8BD1000CF
:1005A00001F03EFA2C0100D0F8B54746CE46884609
:1005B00080B5EFF3108C72B6214D2C68002CFCD066
:1005C000BFF35F8F9A422DD8D408041926780725E7
:1005D00037001540EF40F9071ED507218946063937
:1005E00008E0D408041926784D4637001540EF403E
:1005F000394211D001329342F3D201204042BFF37D
:100600005F8F00220E4B1A608CF31088002811DBDC
:100610000CBC90469946F8BD0123AB401E432670A2
:100620001000ECE7BFF35F8F00232B608CF3108882
:10063000012040424346002BEAD0089801F0F0F92F
:100640002C0100D00021044B044ABFF35F8F02C38A
:100650009342FAD17047C046000100D0800100D01B
:10066000044A1078431CDBB2172B00D910231370F7
:100670007047C0464C02002000B5054B83B0010016
:10068000009318221F230348FFF78EFF03B000BD1D
:1006900030800010F4070020024B18688007C00F5C
:1006A0007047C04600C00640F8B5040006200D00A3
:1006B00001F04AFB03000020002B4CD02B4B2C49AF
:1006C000E3185A1E93418022120494465B42294A41
:1006D0009B0563441360284A136018008A6890439E
:1006E000FBD1224B8021E3185A425341234A5B003D
:1006F00049000620995201F027FB2900C00004F0B0
:10070000F3F8C30906D01E4A934225D91D4F002392
:100710001D4A01E040270122260080256262A36273
:1007200000232C36AD0135432B60062001F00CFB75
:100730003900800004F0D8F86023E26A53406E224A
:100740001A4080235B0133431A60104B236310234C
:100750002B600D3BA364F8BD7F22104001304008A0
:100760009F011A003F180300D6E7C0460080FCBF77
:1007700000C0004000E0004000F00040AC0F00204E
:10078000FEFF0000C0FF3F00FFFF0000010300006C
:1007900083680B4810B58446614462440901120124
:1007A0009A18591854684B6801209C4201D802D00D
:1007B0000020C0B210BD12680B689A42F9D8F7E762
:1007C000FFFFFF0F40BF002000217047F8B55746DC
:1007D0004E464546DE46E0B51F000CAB1D780DAB1E
:1007E0001B7881469A46036816009846002D3BD137
:1007F000987B002832D042464546440012682418AF
:10080000033C121951780300A973002900D1E97340
:100810000021050091705170117029E0D31814194E
:100820009D702278002A00D05A705B4623704346A0
:100830005D734B463200187D3B0000F0FBFC041E4C
:1008400007D05346002B04D14B462900186800F00E
:10085000CFFE0E9B002B44D028001C703CBC904661
:100860009946A246AB46F8BD2B006C006419033CC8
:100870001D4A94464A469268634494461B010A9A6C
:1008800063449A600B9A1E605F60DA604346002200
:100890001B681B199A705A701A7043465B7B9B4603
:1008A000002BC4D043462A00986859465B68984795
:1008B0005B4642465B005B44033B12680028ADD0B8
:1008C000D31814195A46A2701A78002A07D11D703D
:1008D0005A46434628005A73AB45BFD1A9E7627018
:1008E000F5E72800BAE7C046FFFFFF0FF0B5DE4688
:1008F000454657464E46724B8200E0B5D558002318
:100900008DB00B909B4627E0069A079B1100194378
:1009100003D02B69002B00D093E02B68DA7B002AF0
:1009200007D051008A1819688C4649466244033A38
:1009300051704A46DA73EA684B469446013B634479
:100940001A7801321A705B462B616B68BFF35F8FB8
:100950005A461A6084F3108800F00AFC6A68EFF3C4
:10096000108472B61368002BFCD0BFF35F8F2B6826
:100970009C465B7B9946002B5BD0AA68514B904606
:100980004B441B01984443461A685B6816001F00DD
:10099000361A8F41002F6EDD0B9800F04BFC0022C1
:1009A000002300270026089209936B68BFF35F8F2E
:1009B0005A461A6084F31088002E76D053461802E7
:1009C0004B4639001843B0476A6806900791EFF329
:1009D000108472B61368002BFCD0BFF35F8F079BA7
:1009E000002B91DA2B69002B97D006980799089A6B
:1009F000099B121A8B410898099906920793079A46
:100A0000914203D807D1069A904204D9012252425A
:100A1000D317069207935B46012104934B4603913B
:100A2000029301970096069A079B2800FFF7CEFED7
:100A300089E700220023002708920993002600205E
:100A4000B3E700F095FB069A079B12184B419942B9
:100A500002D804D1904202D901225242D3175946FA
:100A600004910121039149460197029100962800C3
:100A7000FFF7ACFE67E7002F01D1002E8CD10021DB
:100A8000604600F009FD43461A685B6808920993C6
:100A900043469E68DF68EB684B44013B1B789A46EF
:100AA0001B021843286100207FE7002800D053E78D
:100AB0000DB03CBC90469946A246AB46F0BDC04640
:100AC000780F0020FFFFFF0F10B5104C6368002B5C
:100AD00000D010BD23000E4A1021206800F0BEFC9B
:100AE000032000F039FB032000F010FC094903202B
:100AF00000F05AFBFFF7B4FD074B9C46032360440C
:100B00002375064B80006060DC60E2E75002002045
:100B100091070010ED08001040000034780F00200D
:100B20000048704750020020F0B54546DE46574663
:100B30004E46E0B585B00092019310AB1B780500DE
:100B40009B4600239A4698466A68EFF3108972B66E
:100B50001368002BFCD0BFF35F8F2E68B47B002C92
:100B600050D067003F193368033FDB195A78B273DE
:100B7000002A00D1F27342469A705A701A70AA681D
:100B8000534B94460099019AE3181B016344196082
:100B90005A600E9A9A600F9ADA6042463368DB19FF
:100BA0009A705A701A70737B0393002B40D019000F
:100BB000736822009C46B068E047039932688C460F
:100BC0004B006344033B00282BD0D719D318B970CE
:100BD0001A78002A00D073E01C70039B73739C4248
:100BE00027D0EB681B19013B18786B68BFF35F8F48
:100BF00042461A6089F310885346002B26D1000222
:100C0000204307E06B68BFF35F8F1C6089F3108897
:100C10000120404205B03CBC90469946A246AB46F6
:100C2000F0BDD318D7199C703A78002A44D1397096
:100C30007473287D009A019B00F0FCFA824600281C
:100C4000CFD02100286800F0D3FCCAE75B46002B18
:100C500030D00E9B0F990020984703000B4329D0FA
:100C600006000F1E15DA0098019902000B00921B76
:100C7000BB41994202D808D1904206D901235B4278
:100C8000DC1700930194DA465EE700920193DA469E
:100C90005AE700F06DFA36184F4100960197B942B5
:100CA000ECD8F0D1B042EED901235B42DC170093BF
:100CB0000194E8E70020ADE75A70039B3B70B7E76B
:100CC0007A701C70039B73739C4200D089E7B0E775
:100CD000FFFFFF0FF0B557464E464546DE4604007F
:100CE000E0B50D0006267642F71736196F4183B03E
:100CF0008F4200D97FE07BD000F03AFA32003B000F
:100D0000121A8B41002B00DC80E05C4B99465A683C
:100D1000EFF3108B72B61368002BFCD0BFF35F8F1C
:100D20004B461B6898469B7B9A46002B74D05B0011
:100D300053444246033B9C4641461268009362443A
:100D400053788B73002B00D1CB73002349469370EB
:100D50005370137089684A4A8C46524449491201BB
:100D60006244166057609160D360009942468C4699
:100D70001268624493705370137043465B7B019317
:100D8000002B69D019004046434652465B68806894
:100D90009847019B9C465A006244033A00284ED073
:100DA000009940468C46036801999A1863449970EB
:100DB0001178002900D05970534613704246019BA8
:100DC00053739A454BD04B465B68BFF35F8F00224D
:100DD0001A608BF310882C4A390002E0994223D123
:100DE00020BF536A9942FBD8906AB0421CD2F5E703
:100DF000864200D880E70026002700F0B9F93200CB
:100E00003B00121A8B41002B00DD7EE7002B0BD13B
:100E1000002A00D079E707E04B465B68BFF35F8F9D
:100E200052461A608BF310882000290000F0ACF9BC
:100E300003B03CBC90469946A246AB46F0BD434643
:100E40001968009B8A18CB185146917019780029AF
:100E500000D05170019A1A70434652465A734B465D
:100E60003200187D3B0000F0E5F90028ABD04B467E
:100E70005146186800F0BCFBA5E7C04650020020B0
:100E8000FFFFFF0FC50700100040054070B50400CC
:100E90000D0000F06DF902000B0020002900801801
:100EA00059418B4205D901204042C117FFF712FF7B
:100EB00070BD8B42FAD18242F5D8F7E770B50600D3
:100EC00000F056F9FA2204000D00920000233000D1
:100ED000002104F02BFB001969418D4205D9012046
:100EE0004042C117FFF7F6FE70BD8D42FAD1844231
:100EF000F5D8F7E7F8B557464E46DE464546664C08
:100F0000E0B581460F006268EFF3108872B613688F
:100F1000002BFCD0BFF35F8F2668B57B002D00D17E
:100F20009FE06B005B19033B9A46336853441A00F9
:100F30005B78B373002B00D1F3730023937053706D
:100F40001370A168554A8C464946AA18120162449A
:100F500011605349D3605760916032685244937076
:100F600053701370737B9B46002B6DD02A001900C1
:100F7000B068736898475B465A005A44033A0028A1
:100F800057D0594633689A185344997011780029FC
:100F900000D059705B46157073735D4555D00026BF
:100FA000E36862685B19013B1B78BFF35F8F002128
:100FB000116088F31088002E59D11B021D4320BFF9
:100FC0006268EFF3108872B61368002BFCD0BFF391
:100FD0005F8FFF232068E9B2427B2B408A4250D0CA
:100FE0005A00924602689A44944652466244033A32
:100FF0009278002A45D123699D4200D1226163681D
:10100000BFF35F8F00221A6088F31088254A536A65
:101010009F4207D8926A01264A4503D2FF1A7B1ED7
:101020009F41FEB230003CBC90469946A246AB467A
:10103000F8BD534631688A18CB1895701978002985
:1010400000D051705A461A707573207D4A463B0095
:1010500000F0F0F8061EA2D02900206800F0C8FABF
:101060009EE76368BFF35F8F1D6088F310880D4AA9
:101070000026536A9F42D5D8926A01364A45CDD39D
:10108000D0E7E2682D0A94466344013B1B78AB42EB
:10109000B5D100F0ADFAB2E750020020FFFFFF0F1C
:1010A000C507001000400540F0B5C64600B5EFF397
:1010B00005833F22134018001038EFF3108772B6F3
:1010C0001F4D2A68002AFCD0BFF35F8F0122110058
:1010D0008140884644461B494C631B4C2678A446F5
:1010E0003400C440224007D1BFF35F8F2A6087F3EA
:1010F000108804BC9046F0BD4C6A144982005158D7
:101100008C420FD3124BD25843469E4363461E7007
:10111000BFF35F8F00232B6087F31088002AE8D08D
:101120009047E6E70B4A9B00944663441A681A60AE
:10113000BFF35F8F00232B6087F31088D9E7C04689
:10114000280100D000400540AA0F0020900F002089
:10115000E4070020D03F054010B50100024A0348D3
:10116000FFF700FA10BDC0464C800010A70F00200A
:10117000044A516A00E01900906A536A9942FAD110
:101180007047C04600400540064A536A9942FCD861
:1011900007D1044B02E05A6A914202D19A6A824214
:1011A000F9D370470040054070B504000D00EFF31F
:1011B000108672B61A4A1368002BFCD0BFF35F8FFB
:1011C000002D1BD0200000F06FFE164988420AD087
:1011D000200000F071FE0121200000F04BFE0123F1
:1011E000A340114A1360114BA400E550BFF35F8F79
:1011F00000220B4B1A6086F3108870BD0B4BA200C7
:10120000D5500122A2400A4920000B7893430B706D
:10121000044900F07BFE0021200000F02BFEE5E7F2
:10122000280100D0A910001038600540E407002014
:10123000AA0F0020F0B5D6464F4646462E4CC0B504
:10124000656A00E00D00A66A616AA942FAD1AB4264
:1012500048D9EFF3108972B6284C21680029FCD0D8
:10126000BFF35F8F264901268C46097886400F0020
:10127000884661463743FFB20F70041D1E49A40023
:10128000204D4E636250840063510D6A0024354244
:101290001BD04D6A00E025008C6AA2464C6AAC4225
:1012A000F9D1AB4224D801D1524521D8474521D0AC
:1012B000114B154A1E625E631F2318401E3B83407C
:1012C00013606346424601241A70BFF35F8F002209
:1012D0000A4B1A6089F3108820001CBC904699467E
:1012E000A246F0BDAB4201D1B242B2D80124F3E72D
:1012F0000024EAE70124E8E700400540280100D087
:10130000AA0F0020900F002080E200E010B5EFF35C
:10131000108472B60A490B68002BFCD0BFF35F8FB4
:1013200001238340074A0848136202789A430270F7
:10133000BFF35F8F00230B6084F3108810BDC0469D
:10134000280100D000400540AA0F0020024B9C4617
:1013500061448900016070474000003410B504000A
:10136000FFF77EF901002000FFF7F0FFFF23237154
:10137000BFF35F8F10BDC04610B504000120FFF71A
:101380007BF901002000FFF7E1FFBFF35F8F10BD85
:10139000F8B54746CE4680B54C0003686418033C58
:1013A0001A19567807000D00002E04D128000CBC35
:1013B00090469946F8BD710089190339884643441F
:1013C00059788946002159705170002D11D07B68E1
:1013D00032002900806898473B68002832D01A19EB
:1013E00043449D701178002900D059701670A046B2
:1013F00000E035004B46002BD8D049463800FFF7B7
:10140000C7FF041ED2D002007B682900B868984745
:1014100063001B19033B3A68002809D1D3184244E2
:1014200094701978002900D051701D702500BDE717
:101430004146D31851189D700A78002A00D05A707E
:101440000C70B3E742461C199A18A6701378002B4B
:1014500000D0637015703500CCE7C04610B58360CE
:101460000023CCB243730133047342608373C473AB
:101470000068012C06D9421C0133DBB21370033221
:101480009C42F9D8FF2319404B00591800234018FB
:101490000338437010BDC046F0B54E46574645462A
:1014A000DE46E0B5467B03687400A419033C1A19B4
:1014B000177883B005008946002F1ED1002911D06E
:1014C000C07B00282AD041000918591803394E70F2
:1014D000EE73002F06D07900C91903398846002120
:1014E000434499700023300053706F7303B03CBCC9
:1014F00090469946A246AB46F0BD7900C91903391A
:101500008846591848788246002809D1494600295A
:10151000E5D0E87B0028D6D1EE73DCE7EE73E1E797
:1015200042005244033A93465B445A7801920022A7
:101530005A704A706B6802003900A86898472B6897
:10154000002830D1414650465A4659189A1888709A
:101550001078002800D048701770D8465746019A76
:10156000002A2DD011002800FFF712FF8246002824
:1015700025D0020039006B68A86898475346590087
:10158000514403392B6800281CD04246591898183A
:101590008F70027894461A196446002C00D04C7063
:1015A00051460170B2E75946424659189A188F7051
:1015B0001078002800D0487051461170CFE72B6892
:1015C0001A19A3E75A189844934650464246907019
:1015D0005A461278944660461A19002802D04046AE
:1015E0006446447058468846077057468EE7C046A2
:1015F000F0B54546DE4657464E46E0B50C0083B092
:1016000005000023002927D06600477B01683619B2
:10161000033E8819A74233D08278002A1CD0530099
:101620009B18033BCB181A78A2421FD142781A703C
:1016300000230278837043709146002A33D1EA7BFD
:10164000002A66D053009B18C91803394C70EC73FC
:101650000023437001236F73180003B03CBC904615
:101660009946A246AB46F0BD002AE1D053009B1834
:10167000033BCB185A78A242F6D142785A70D7E78A
:1016800002780192002A46D1EA7B002A3FD053001B
:101690009B18C91803394F70EF7300234370019BE7
:1016A0006B730123D8E752004A44033A90468A18E4
:1016B0005778002F42D1EB7B002B00D029E14F4619
:1016C0006E7BEC73002393704370002EC2D03A00FF
:1016D0006B683100A868984773009B19033B2A6820
:1016E000002808D0D31842449670197800290CD1EC
:1016F0001F703700AEE74146D31851189F700A7823
:10170000002A00D05A700E70A4E75170F0E7EF7312
:10171000C3E7EC739CE71400A44652006244033A0A
:1017200090468A185478A146002C58D1EB7B002BA8
:1017300000D0F7E0EF7300239370AEE77800C01994
:1017400003388246514448784B7053706B68834627
:101750003A004946A86898472B68002800D1A2E0C3
:1017600042469818524699184A468A7001900200DB
:101770000078002801D0019A487017704F465A46E9
:10178000002A28D059462800FFF702FE814600288B
:1017900020D002006B683900A86898474B465B0070
:1017A0004B44033B9C4600286DD042462B6898185A
:1017B000624699188F7001900078002800D083E06D
:1017C0004A4601980270E97B98196E7B002951D135
:1017D000019A76E72B6842469A180192F3E7600077
:1017E000484403388246514448784B7053706146F0
:1017F000220083466B68A8686446984729680028D9
:1018000078D0524643468A18CB189470187800282E
:1018100000D050704A46C2461A705B46002B50D02A
:1018200059462800FFF7B4FD8046002848D0019CA7
:10183000020021006B68A868984743465A0042445A
:10184000D31E2968002844D05246CB188A189C70B1
:101850001078002800D0587043461370EB7B88192D
:10186000002B00D166E75E00F318C91803394F70EA
:10187000EF7360E74A00944661445B18033B5C7079
:10188000019AEC731EE729684846CA184346CB18EC
:1018900098701078804688194646002E00D05E70F9
:1018A0001770E04607E74146524659189A188F705C
:1018B0001078002800D048704946D04611705EE785
:1018C00029685346CA18C9E74A46487001990A7000
:1018D00079E7CA1853464046CB189870107884466A
:1018E00064468819002C00D05C70019B137043463D
:1018F00001931BE75346CA1843464846CB189870D5
:101900001078002800D05870019B13704B4601934B
:1019100083E703267343C91803394C706E7BEC735D
:101920004F46CFE603267343C91803394F7001E7CA
:101930002B4B2C4A70B51A602B4A2C4B2C491A6041
:1019400010008B689843FBD12A4C2B4DAC4209D236
:101950000322231D0335ED1A9543ED1808CC984753
:10196000AC42FBD100F07AF8244A204B1A60204A9E
:101970009368DB018033FBD14022214B214C224D67
:101980009A675A671A67DA66AC420CD223000735A9
:101990000833ED1A393A9543ED1820000834FFF763
:1019A000DDFCAC42F9D1194D194CC022A1682800C8
:1019B00003F02EFEA560FEF745FE00F0DFFBFFF70B
:1019C00083F8144C144DAC4209D20322231D033575
:1019D000ED1A9543ED1808CC9847AC42FBD170BD89
:1019E00000E00040BFCDFFFFFE7F3C0000F0004064
:1019F00000C000403803002048030020FFFFFF0123
:101A000000F00140300300203803002000000020D7
:101A100000ED00E0480300204C03002000BEFDE77D
:101A20000FB400B5084883B003F0CCFE049B002B34
:101A300007D005A91800019102F0DCFE034803F06D
:101A4000C1FE00BEFDE7C0467C8000108C80001007
:101A500010B50148FFF7E4FF7080001030B50C208E
:101A600083B000F077F9FEF717FE00280ED09C4BEC
:101A70009C4A1A605A609A60DA601A615A619A61E7
:101A8000DA611A62984A5A6203B030BD974CA06777
:101A900000F0B2F90122964B1A60636C012BFCD165
:101AA0000322944B1A60914A936B012BFCD1C02204
:101AB000914B92011A60914B91491A6010008B680A
:101AC0009843031EFAD1022406338E4A01218E4820
:101AD000009400F0A5F905238C4A009401218C485C
:101AE00000F09EF98B4B5A68FF2A02D880225200E0
:101AF0005A6080227A4C7F4B21691201854D1A6011
:101B0000002900D0E5E0E021824B02201A68114054
:101B1000802252012A431160196848400321014084
:101B2000116004219A681142FCD080228021920128
:101B30002A4309011160802252005A60764B2361CA
:101B4000764B5968FF2900D8C1E00322684B7348DF
:101B50001A60012103009A681142FCD0E0251A683E
:101B6000154080225201024315601B684B4003213F
:101B7000194011600221694A93681942FCD0802300
:101B800080219B010343090119608021644B4900B6
:101B900051606361634B5A68FF2A00D85960802204
:101BA000614BE16912015F4D1A60002905D060693F
:101BB00002F09AFE01300138FDD1E02259490B684C
:101BC0001A4080235B012B431A60802380229B01F3
:101BD0002B4312011A608022424B52004A60E3619B
:101BE000524B5968FF2900D85A608022504B216A15
:101BF00012014E4D1A60002905D0606902F074FE92
:101C000001300138FDD1E02248490B681A40802399
:101C10005B012B431A60802380229B012B4312011E
:101C20001A6080235B004B602E4B424A2362424B7A
:101C30005968914201D801325A6080223F4B616A53
:101C400012013D4D1A60002905D0606902F04CFE7A
:101C500001300138FDD1E02237490B681A4080235A
:101C60005B012B431A60802380229B012B431201CE
:101C70001A608023DB024B601B4B6362304B5A6857
:101C8000FF2A02D8802252005A6080222D4BA1697F
:101C900012012B4D1A60002905D0606902F024FE64
:101CA00001300138FDD1E02225490B681A4080231C
:101CB0005B012B431A60802380229B012B4312017E
:101CC0001A6080235B004B60154BA361DCE65A6011
:101CD0003BE7606902F008FE01300138FDD112E7F0
:101CE000F8070020006CDC021BB7000000800040F9
:101CF0003CB0004030B0004000E0004000F0004048
:101D000000C00040002F68590080024000389C1C31
:101D100000C0024030800040001BB7003C80004003
:101D2000405973075480004054B000406080004028
:101D300060B00040FFFF03006C8000406CB00040CA
:101D40004880004048B00040014B8000C0587047B8
:101D5000F807002080239B001843014BD86270478E
:101D60000080054010B58024194BE4051C60002854
:101D700027D00123174C1843174BDC61174C444004
:101D80001C62596298628021114BC9051960144880
:101D900014490860E021C9041960002A14D05301D5
:101DA0009B1A9B009A18104B12019A420DD90F4AA8
:101DB00013601A00084B5A6080220D4BD2051A603E
:101DC00010BD054BD861DEE70A4A084B1A60F1E7FF
:101DD00000B00540D3C007B0008005402D3FF84F4C
:101DE000FCFF010008200140FFFFFF00700F0020F2
:101DF00000A00540A0860100AA23064A1B0113602B
:101E00002F230549D360054B19605368002BFCDA7A
:101E10007047C0460040024000B0FA000060024037
:101E200070B51D0001235B42436000230400836002
:101E300001600C20160002F057FD4201121A9101B8
:101E4000891AC90009188901300002F04DFDC0222D
:101E5000231D92011A432123A06013602368002BE5
:101E6000FCDA049B2D041B031D430823E56013606B
:101E700070BDC04601238340002902D1034A13608C
:101E80007047034A1360034A1360F9E780E100E0FA
:101E900080E200E000E100E001238340014A13609A
:101EA0007047C04600E200E0024B10309B688000A3
:101EB000C058704700ED00E070B50D00EFF31086DC
:101EC00072B60F4A1368002BFCD0BFF35F8F0D4B27
:101ED00010309B6884001B590B4A934203D09D42EB
:101EE00001D0FFF7B5FD074B9B681D51BFF35F8F16
:101EF000BFF35F8F0022024B1A6086F3108870BD1B
:101F0000240100D000ED00E0CD010010F0B5454601
:101F1000DE4657464E46E0B50D0083B0EFF3108A1B
:101F200072B65C4A1368002BFCD0BFF35F8F10229F
:101F3000914681444A46584B96009B689C59574BA2
:101F400098469C4205D0AC424FD0554FE31B2F2BF7
:101F500012D9514B9B689C51BFF35F8FBFF35F8FCA
:101F600000224C4B1A608AF3108803B03CBC9046A8
:101F70009946A246AB46F0BD012383409B465A4694
:101F8000484B1B681A4000925A46474B1A60BFF3F1
:101F90005F8FFEF768F90190002803D0814501D0DA
:101FA000FFF756FD0123220006209A431300DB1B96
:101FB0005B4144495943090D93688C4610569D4234
:101FC0000AD151E043001B1806209B00FB189968BA
:101FD0001856A94211D01A000028F3DA009B002BF2
:101FE00005D15A46304B1A60B3E71C00B1E75A4698
:101FF0002E4B1A602B4B1A60ABE7002825DB420002
:10200000111889007D188846A9689960E979D97105
:10201000062169569971A9797F2913D8AD88F91AD3
:102020006D052D1545444919E0250905490D2D0279
:102030002943998012181E4B9200BF181A78187005
:10204000BA71CBE7BD210902F3E70199002913D149
:10205000002A0FD0FF20907116489080144A107803
:10206000987163461370B9E713000028C7DA019A24
:10207000002A01D14446F1E70F4A1049D21A083A22
:102080005002400D014399800D4952080A43DA80FD
:10209000A4E7C046240100D000ED00E0CD0100100F
:1020A0007802002000E100E080E100E080E200E052
:1020B000A80F002000BDFFFFB202002000F0FFFFCC
:1020C00000F8FFFFAAAA0000F8B5012504000543A7
:1020D000FEF7C9F8EFF3108672B6214A1368002B99
:1020E000FCD0BFF35F8F1F4A2100891A4941224B60
:1020F0004B431B0D1C4980008F685BB23F58AF42B9
:102100001CD006215156994226D01221515699428F
:1021100024D01E215156994214D02A215156032011
:10212000994210D0114A11781370A171BFF35F8FDB
:1021300000220B4B1A6086F31088F8BD8A680C49A0
:102140001150EFE702204100091889005218FF21C1
:10215000917108499180E5E70020F4E70120F2E75A
:10216000240100D07802002000ED00E0A80F00203C
:10217000CD01001000BDFFFFAAAA0000F0B50022AB
:102180000324FF27802620003D00094B11009C46B8
:102190001040C0008540A14361440B680132AB434D
:1021A000350085402B430B60202AECD1F0BDC046A2
:1021B00000E400E07047C04610B5002803D04A682C
:1021C0000B681100984710BD10B5002801D003F02E
:1021D000A3FA10BDF0B557464546DE464E46E0B57B
:1021E00085B0984610AB1D78139B93469A46022300
:1021F000149A0F00134006000F9C12990193002BB4
:102200002DD1013313409C465346002B66D18C429E
:102210000DD21F2C00D912E10E9B30201B1902E0B9
:102220000133202C03D001341870A142F8D8634642
:10223000002B14D0A24512D90E9B30201B191F2C45
:1022400021D8AC461500524602E00133202C17D0AD
:10225000013418709442F8D192462A006546D3069C
:102260002ED5530519D4002C11D1119B102B00D160
:10227000D9E0022B1FD10E9960330B7001241AE0B4
:1022800092462A006546D3063ED5530505D4A142A1
:1022900000D19FE0544500D19CE0119B102B65D0EC
:1022A000022B06D11F2C65D862210E9B1B191970B9
:1022B00001341F2C5ED830210E9B1B19197001347C
:1022C0001F2C57D8002D1BD1530700D570E01307E2
:1022D00050D520230E990B55013415E06346002B91
:1022E0006BD0002D00D070E00C2313426DD18C42D6
:1022F000A0D21F2C90D953462024202BC3D8AEE760
:102300002D230E990B550134930736D05B4603936A
:102310001A000E9B029499464B46013C551C185DD1
:1023200039004346B0472A00002CF5D1039A029B9E
:10233000944663441D00019B002B0FD05B46EB1AB3
:1023400053450BD22A005D46541C434639002020D9
:10235000B0472200631B5345F6D32500280005B083
:102360003CBC90469946A246AB46F0BD930641D58B
:102370001F2C52D95D46930712D1544538D25B4683
:1023800053441B1B0F941C000F9B5A469946551C27
:10239000434639002020B0472A00A542F7D14C46D9
:1023A000002CC8D00E9B039502942A009946B3E7EF
:1023B0002B230E990B550134A6E78C4200D34EE730
:1023C0001F2C00D828E7202449E701235B429946C7
:1023D000CA448CE7631E002B15D1119B102B19D01A
:1023E000022B00D147E730230E9901240B7069E7D7
:1023F0005D46D5E71F2C00D986E778210E9B1B1977
:102400001970013455E71199023C1029AED01C0017
:102410000B0045E793060DD5002458210E9B1B1990
:102420001970013445E7930604D558230E99012409
:102430000B7040E778230E9901240B703BE72024B2
:10244000F5E6C046F0B54546DE4657464E46E0B591
:102450009BB09846259B249C1D00089009910A92E8
:102460000C9300220023200029000B9402F0DEFCD4
:10247000002800D0A7E10B9A0C9B92469B46802334
:10248000289ADB001A400E9201D10623269380235E
:10249000289A1B011A4056465B460D92334300D1E1
:1024A00061E15B465800CC4B400D9C46604402F015
:1024B000E3FCCA4ACA4B02F077FCCA4ACA4B02F094
:1024C00061FC5B46C94A1B031B0B1A4304000D0049
:1024D000C74B11005046002202F04BFCC54AC64BC8
:1024E00002F062FC02000B002000290002F04AFC0E
:1024F00002F0DAFC814602F0BFFCC04AC04B040087
:102500000D0002F051FC0022BE4B02F03BFC02F039
:10251000CBFCBD4A0600BD4B2000290002F044FC64
:10252000040030000D000F9602F0A6FCB84AB94B2B
:1025300002F03AFC02000B002000290002F019FC16
:1025400002000B0006000F0002F02EFC3200040017
:102550000D003B003000390002F014FC0022109006
:102560001191AD4B2000290002F015FC0022AB4B6D
:1025700002F008FC02000B002000290002F00BFC16
:102580000022A74B02F0FEFB02000B0020002900F6
:1025900002F001FC0D008021040032003B0000200D
:1025A000C90502F0E6FB02000B002000290002F042
:1025B000E9FB02000B001098119902F0ECFB0022DD
:1025C0008A4B02F0DFFB974A0F9B9446634400223C
:1025D0001B0502F0E9FB05000C0002000B00504651
:1025E000594602F023FC00280BD001235B429C4695
:1025F000280021000022894BE14402F0CCFB0500B9
:102600000C004B46C62663339E42B6410D9B764274
:102610000436002B00D0BCE0279B00279E4200D24E
:102620009F1B0223289A1A400D9203D073427341D4
:102630005B421F404B46002B07D0504659462A00AC
:10264000230002F0A8FB82468B46002200230B9851
:102650000C9902F0EBFB002803D0802109065944B5
:102660008B4652465B465046594602F0F2FB002824
:1026700000D044E101226C4B52425046594602F0D0
:10268000D5FB002800D0D7E0289A684B0397134069
:102690000493269B524602935B460999009201934C
:1026A00008980A9A434600F0FFFC0200002E52D020
:1026B0002020289B089C034059424B415B42184014
:1026C000531C45309A4609994346A0474B46DA17B2
:1026D0009D18DB0F9946731E55409B46002412AE91
:1026E00002E03C00202F0DD028000A2102F0FCF867
:1026F000671C30313419217028000A2102F0F4F8E7
:10270000051EEED1052306935B4605930023049333
:102710000A3303934B4601970096099F089E029344
:102720005246434639003000FFF754FD0D9B02002E
:10273000002B10D00A99431A279898420BD9894642
:102740000500434639002020541CB0474B46220068
:10275000E31A9D42F5D810001BB03CBC9046994648
:10276000A246AB46F0BD0D9B55465C46002B27D0DC
:1027700000239946269B4B4500DDB1E000232693BC
:102780008023289ADB001A430023289200269946CA
:1027900042E723002B43EDD0254A264B50465946AD
:1027A00002F04AFB002800D09FE0269B002B00D1BE
:1027B00032E70E9B5A1E9341269AD31A26932BE793
:1027C0000426994628E78022120694460C9BA246CE
:1027D00063449B4653E6C04601FCFFFFFB799F50D4
:1027E0001344D33FB3C8608B288AC63F0000F03F34
:1027F0000000F83F61436F63A787D23F71A3790957
:102800004F930A400000E03F1655B5BBB16B024044
:10281000EF39FAFE422EE63F00002C400000244033
:1028200000001840FF030000FFFFEFFFFFF7FFFF6E
:102830002D431CEBE2361A3F0A9A289B14009B0793
:1028400015D1042F13D9B2464646151FED19BB46C4
:10285000099F0B95330039002020089D541CA84780
:102860000B9B22009C42F5D1B0465F4656464D4B2D
:1028700049469A464346B94622000425A346B04637
:102880001F000B915346013D541C585D09993B00B4
:10289000089EB0472200002DF4D13B005C460B9A05
:1028A000464698460D9B4F469146221D002B00D16F
:1028B000FCE60A9BD31A9F4200D8F7E6B346464689
:1028C000BA46099F330039002020089D541CA847B0
:1028D0000A9B2200E31A9A45F4D8B0465E46E5E624
:1028E0004A469B1A013B26934AE700222E4B50464C
:1028F000594602F09BFA002800D03BE755E70A9BB7
:10290000289A9A46920717D1032F15D9B2461A0072
:102910004646DC1EE419BB46099F0B943300390080
:102920002020089C551CA0470B9B2A009D42F5D1F6
:10293000B0465F465646AA461C4B49469B46434610
:10294000B94652460324B0461F000B915B46013C3A
:10295000551C185D09993B00089EB0472A00002CC1
:10296000F4D13B000B9A4F46914652464646984654
:102970000D9B0332002B00D198E60A9BD31A9F428D
:1029800000D893E6B3464646BA46099F330039005D
:102990002020089D541CA8470A9B2200E31A9A4550
:1029A000F4D89AE77482001080842E41708200105F
:1029B000F0B5DE4657464E464546E0B597B00500B1
:1029C0000E0093461F00209A219B1000190002F070
:1029D00040FA002800D0AEE2209821990122C54B90
:1029E000524202F023FA002800D034E120982199C5
:1029F0000122C14B524202F027FA002800D0C1E068
:102A0000209821990022BD4B02F01EFA002800D028
:102A100008E1209821990022B94B02F007FA00281A
:102A200000D0FFE0209821990022002302F0FEF957
:102A3000002800D074E200230D938023249ADB0049
:102A40001A40904600D0BAE10023AE4C069307949A
:102A50000EAB06249A462098219902F025FA099097
:102A600002F00AFA02000B002098219902F081F985
:102A7000069A079B02F098F90A900B9102F038FA37
:102A800081460C9002F0F4F902000B000A980B99B1
:102A900002F06FF900229C4B0A900B9102F0D4F9DE
:102AA000002800D1E5E14B46013318000C9302F0F9
:102AB000DFF9069A079B02F0BFF9002800D0FBE17E
:102AC000002C00D09CE1099C200002F0D5F9020006
:102AD0000B002098219902F04CF900228A4B0690B5
:102AE000079102F0A3F9002800D1D5E14346202B3D
:102AF00000D112E15C1C099B0A211800994601F0E3
:102B0000C7FE424653463031995448460A2101F0E7
:102B1000BFFEA046814600281ED05346A846BA46AE
:102B20004D461F00B14600E03400202C00D162E287
:102B300028000A2101F0ACFE661C30313C192170DE
:102B400028000A2101F0A4FE051EEDD13B004546F8
:102B50005746B0469A464E460323249A1340012B0B
:102B600000D1B1E142462024202A00D1DCE00D9AB8
:102B7000002A00D135E242465146541C40462D22DF
:102B80000A54D1E0249B5B0700D5ADE05F4B9A4629
:102B9000032398465B460693249B9B0718D1239BEF
:102BA000434500D84EE25B441C004346E41AB94654
:102BB0005A4637002E002500541C4B463900202071
:102BC000B0472200AC42F7D135003E004F46069494
:102BD000B14644465646BA462F00069A013C551C5B
:102BE000305D53464946B8472A00002CF6D1069B73
:102BF0003D0043441A00249B9B0724D55B46239940
:102C0000D31A99421FD92E00D0464F460D00434695
:102C100039002020541CB0475B462200E31A9D4235
:102C2000F5D810E0249B5A460493239B310003936C
:102C3000229B28000293209B219C009301943B003F
:102C4000FFF700FC0200100017B03CBC904699460C
:102C5000A246AB46F0BD249BD8469B0718D1239BC8
:102C6000042B15D95B461C1F239BB8469C46644425
:102C700037005A462E002500541C434639002020B8
:102C8000B0472200AC42F7D135003E004746A0468F
:102C90001F4BB9464246370004249A462E0053463D
:102CA000013C551C185D39004B46B0472A00002CEA
:102CB000F5D14246249B350004323E009B07C2D525
:102CC0005B462399D31A9942BDD93700C8462E00D6
:102CD0000D00434639002020541CB0475B462200BB
:102CE000E31A9D42F5D8AEE70A4B9A46042398466C
:102CF00050E7C046FFFFEFFFFFFFEF7F65CDCD41FF
:102D000065CDCDC180842E410000E03F848200105B
:102D1000748200107C820010A2460323249A134080
:102D2000012B00D1CEE02024D846002B17D1239BC5
:102D30009C4214D25B441B1BB8465A463700A1463E
:102D40002E001D00541C434639002020B0472200AD
:102D5000AC42F7D135003E004746A0464C464346BC
:102D60004246A146B84637002E0006935346013C22
:102D7000551C185D39004346B0472A00002CF5D198
:102D800006994B468C4663441A00249B35003E004E
:102D90009B0700D457E75B462399D31A994200D882
:102DA00051E737002E000D00434639002020541C07
:102DB000B0475B462200E31A9D42F5D843E7229BC9
:102DC000092B00D85BE10EAB9A46302352461370B4
:102DD00001229046229B2F325C1E4146203B5046EA
:102DE00005E0013C425401319C4200D1EEE0092C47
:102DF000F7D10022A84B88468246069207932AE61E
:102E00004346202B89D0631E069301230C9C434428
:102E100020000A21994601F067FD534642463031B1
:102E2000995420000A2101F05FFD041E00D122E127
:102E3000A84625004C46B9465746B24612E0069BC6
:102E40002800013B0A21069301F04EFD661C30313B
:102E50003C19217028000A2101F046FD051E00D111
:102E6000CFE03400202CEAD156464546BA464F46BC
:102E700053E700220A980B99884B01F0D7FF0028EE
:102E800000D01DE60C9B002B02D0DB0700D417E618
:102E90000C9B01330C9313E60022069807997F4B95
:102EA00001F0D2FF002800D020E60123A4462340F1
:102EB0009C446346099319E6099B01330993002357
:102EC0000C93FDE520239846239B002B00D1BFE007
:102ED0000D9B002B03D1249A0C33134202D0239B69
:102EE000013B2393239B434500D8B1E04246302366
:102EF000202A00D1B1E0424650462399541C835405
:102F00008C4200D1A1E02200202CF7D12023994649
:102F10005B46B8468246370006935A462E0025E7A0
:102F2000209A219B0020002101F023FF0123209003
:102F300021910D9381E5249BD8469B0718D1239BB3
:102F4000032B15D95B46DC1E239BB8469C46644484
:102F500037005A462E002500541C434639002020D5
:102F6000B0472200AC42F7D135003E004746A046AC
:102F70004B4BB9464246370003249A462E0053462F
:102F8000013C551C185D39004B46B0472A00002C07
:102F9000F5D14246249B350003323E009B0700D406
:102FA00051E65B462399D31A994200D84BE6370085
:102FB000C8462E000D00434639002020541CB0475F
:102FC0005B462200E31A9D42F5D83CE6354BE20011
:102FD0009B181A685B6806920793202382469846DE
:102FE00039E5249A52073BD542465146541C404687
:102FF0002B220A5498E63B00454657464E469A46D1
:103000008BE64546B0465646BA464F464346202BC9
:1030100000D182E6069B40461A0042441100544605
:103020003022002B29D0431C2254202B00D173E6E0
:1030300018008B42F7D1A2465A1C904651462E22C8
:10304000CA5453E55B460693C2E5239B82469846E5
:1030500042460123202A00D089E52024D8467EE676
:10306000249A4446120700D45EE620225146404688
:1030700001340A5458E6C846C8E74346DCE7DA009C
:10308000084B9B185C681B680693079400239846BE
:103090000EAB229C9A46DEE465CDCD410000E03FB8
:1030A0007082001088820010F0B557464E464546A3
:1030B000DE46E0B597B00792012206000F00209887
:1030C000219998465242CF4B01F0BEFE00284DD0C8
:1030D000249B5B0700D541E1CB4B9A4603239B46DB
:1030E000079A249B14009B0711D1239B9B450ED26A
:1030F000190013008C4663441D005B46ED1A541CF6
:10310000434639002020B0472200AC42F7D1B946EF
:10311000220037005D465646A246013D541C705DB4
:1031200043464946B8472200002DF6D15246249B1B
:103130003E005A444F469B0710D507992398531ACF
:1031400098420BD989460500434639002020541C7B
:10315000B0474B462200E31A9D42F5D8100017B045
:103160003CBC90469946A246AB46F0BD0022209852
:103170002199A64B01F068FE002800D0F3E02098CA
:1031800021990022A24B01F051FE002800D0EAE074
:10319000209821990022002301F048FE002800D049
:1031A00092E100230D938025249BED001D4000D06B
:1031B00017E10023974C089309940EAB06249B4615
:1031C0002098219901F070FE81460C9001F054FE88
:1031D00002000B002098219901F0CBFD089A099B71
:1031E00001F0E2FD0A900B9101F082FE824601F0AF
:1031F0003FFE02000B000A980B9901F0BAFD002275
:10320000854B0A900B9101F01FFE002800D148E188
:1032100001239C46E244504601F02AFE089A099B8D
:1032200001F00AFE002800D09CE1002C00D006E14D
:103230000C9C200001F020FE02000B002098219938
:1032400001F097FD0022744B0890099101F0EEFD0A
:10325000002800D176E1202D00D1BAE00C9B0A2194
:103260001800994601F014FB5B4630315955484629
:103270000A2101F00DFB6C1C8146250000281AD0A4
:103280004D46BA46B1465F4600E03400202C00D1DE
:1032900003E128000A2101F0FBFA661C30313C19D9
:1032A000217028000A2101F0F3FA051EEDD1350046
:1032B000BB464E4657460323249A1340012B00D1A8
:1032C0000EE12024202D0BD00D9A002A00D034E1ED
:1032D000249A520700D46FE12B2259466C1C4A55A0
:1032E000079A1500002B12D1239B9C420FD2190084
:1032F00013008C4663441B1BA1461C00551C43460F
:1033000039002020B0472A00A542F7D14C46A246FA
:10331000A9462A005B46013C551C185D390043460E
:10332000B0472A00002CF5D14B4653441A00249B89
:103330009B0700D412E707992398531A834200D3BE
:103340000CE789460500434639002020541CB0474D
:103350004B462200E31A9D42F5D8FFE62F4B9A46D2
:1033600004239B46BCE6209A219B1000190001F023
:1033700070FD00281AD1209821990122284B524231
:1033800001F054FD002811D1249B079A0493239B3C
:1033900039000393229B30000293209B219C0093D1
:1033A00001944346FFF74EF80200D7E6249B079AA4
:1033B0000493239B39000393229B30000293209BAC
:1033C000219C009301944346FFF7F2FA0200C5E600
:1033D00083460323249A1340012B00D17FE020244D
:1033E0007EE7229B092B00D8F2E00EAB9B463023F0
:1033F0005A461370229B01255C1E3022203B594601
:1034000015E0C046FFFFEF7F8482001065CDCD41FF
:1034100065CDCDC180842E410000E03F7C8200104C
:10342000FFFFEFFF013C4A5501359C427BD0092C40
:10343000F8D100226C4B8B4608920993C0E6202DF0
:10344000C7D06B1C50460A21994601F04DFA5B46E5
:103450003031595550460A2101F046FA013C824666
:10346000002800D1B2E04B465546B146BA465F4609
:1034700011E09B4628000A215E1CBB4401F034FA8F
:103480005B463031197028000A2101F02DFA013C09
:10349000051E76D03300202BEBD1BB464E46574657
:1034A00097E700220A980B99504B01F0BFFC0028C7
:1034B00000D0BAE65346002B02D0DB0700D4B4E6B6
:1034C00001239C46E244B0E6209A219B0020002183
:1034D00001F04FFC0123209021910D9363E62025FC
:1034E000239B002B46D00D9B002B03D1249A0C3339
:1034F000134202D0239B013B2393239BAB4239D938
:103500003023202D3AD05946239A6C1C4B559442B7
:103510002ED02500202CF8D12023079D8B469A46DB
:10352000A9462A00F6E6324BE2009B181A685B684F
:103530008B4608920993202542E62D2259466C1CA1
:103540004A55CDE6002208980999284B01F07CFCE9
:10355000002800D07FE60123A44623409C44634614
:103560000C9378E64B4601330C9300239A465CE6B5
:103570008B46239D0123202D00D0A5E62024079D06
:10358000C5E63500BB464E465746202D00D120E704
:10359000611930222B00002C09D058466B1C425573
:1035A000202B00D114E71D008B42F7D183462E2239
:1035B00059465D1CCA544EE6249A2C00120700D4CA
:1035C0008EE62022594601344A5589E64D46DCE70D
:1035D000DA00074B00259B185C681B680893099468
:1035E0000EAB229C9B46EBE565CDCD410000E03F54
:1035F00088820010F0B5DE4657464E464546E0B597
:10360000A9B01E00329B90460A93BF4ABF4B834627
:103610008A461A60002968D0D1460025DA463078FB
:1036200000280BD0013625281BD02A0043464946E6
:10363000D04730786C1C25000028F3D1D3462A00EF
:10364000CA46454501D343465A1E434651460020CB
:10365000D847280029B03CBC90469946A246AB46C4
:10366000F0BD102330789B460E3B9C460300203B68
:10367000721CDBB20027A64C1100102B0DD89B004A
:10368000E3589F46012316001F433078721C030045
:10369000203BDBB21100102BF1D90300303B092B8A
:1036A00000D8AEE100239B462A2800D1CFE10024B8
:1036B0002E2800D1BDE10300683BDBB2122B00D9FC
:1036C000D3E3944A9B00D3589F46042316001F431C
:1036D000DBE7634616001F43D7E75B4616001F4330
:1036E000D3E7082316001F43CFE78B4B9B4693E796
:1036F00080235B0070781F434E1C0300253BDBB228
:10370000532B92D8854A9B00D3589F4670786C28DB
:1037100001D100F0C0FC80235B001F434E1CECE78E
:1037200080239B0070781F434E1CE6E77078682862
:1037300001D100F019FD80234E1C1F43DDE7462810
:1037400001D100F058FC07220A9B049707339343EA
:10375000013294469C4462460A925A46029403926D
:103760005C681B682A000093019449464346504612
:10377000FFF71EF9050052E72A006C1C4346494634
:103780002520D04725004AE70A9B1A1D1B680C928A
:103790000A931878002C00D0ABE3002801D100F088
:1037A000A2FF02211A00494201239C464346089089
:1037B0000B9307E00A98634680469B1A43445B18C4
:1037C000002B03D001321378002BF3D10B9B089808
:1037D00098460A9BD31A08938023DB003B400B9347
:1037E00003D0089BA34200D9089402231F4001D1B3
:1037F00000F0DBFC002801D100F0BCFC0B9B002B8F
:1038000001D000F062FE0A9B2A005C1B2300544694
:10381000B2464E46B946474698463B003100551CD5
:10382000A0474346585D2A000028F6D1B8464F46C7
:10383000B1465646A246002F01D000F09BFC0C9BDF
:103840000A93ECE60A9B1A1D1B689346002B00D1D5
:1038500042E3212217430A970F2020A90B9400224C
:10386000089184460C0002E020290CD00A00614631
:103870001940CFB238003730092900D80738511C19
:10388000A0541B09F0D10B9C0A9B019106930823BD
:1038900005930833039300230293089B2A000093A7
:1038A0000494434649465046FEF794FC5B460500A7
:1038B0000A93B4E60A9B6C1C04330B940893BB0771
:1038C00000D478E30A9B2A00187849464346D0473B
:1038D0005B465D44012B01D800F07EFE2B0057466D
:1038E0004D46B146464698460B9A541C3300290073
:1038F0002020B84722004445F7D1B046BA464E468C
:10390000A946250073E3C046F53500106C0F002072
:1039100090800010D4800010B5210010208100108C
:10392000782800D1ECE2582801D100F067FC6F281C
:1039300001D100F051FD622801D100F04FFE1023AB
:103940003A009A430B92692801D000F039FF7B05B9
:1039500001D500F02BFD80239B001F40F73BFF3B70
:103960000C93002F01D000F0C3FC80230B9A5B0066
:103970001A40130094460A9A04320D92002B01D08B
:1039800000F0CAFD0B9B5B0601D400F0BCFD0A9B56
:103990001B78DA1798185040DA0F0A92002B08D1DA
:1039A0000B9A1033110099430B91520501D500F089
:1039B000A2FE0B9B61279B0600D541275A4620ABF0
:1039C000FFB20E950F94B34608930A3F64461092D7
:1039D0000C9D1E000CE03033DBB2621C3355002816
:1039E00001D100F017FC202A01D100F013FC1400D3
:1039F000290000F079FFCBB20929ECD9DB19DBB241
:103A0000EBE70023010001E0160001329800C01826
:103A1000400040181178030008003038303B092876
:103A2000F2D908009B46B11C002416002E2800D0B5
:103A300041E680237078DB001F430300303B092BF5
:103A400015D92A2800D1DAE20E00013133E60A99AD
:103A50000B1D09688B46002904DA02210F435946E1
:103A600049428B467078B11C0A9316001FE603008A
:103A700000E03100A00000194000C0184B78303839
:103A80001A00303A4E1C0400092AF2D918000231FB
:103A900011E6202302009A43472A02D180231B010A
:103AA0001F4302239843452801D11E331F43072299
:103AB0000A9B07339343013294469C44624619683B
:103AC0005868089109900A9203000A000B910C9023
:103AD0000898099901F0BDF9002800D09BE2012265
:103AE000E34B52420B980C9901F0AEF90122E14BE5
:103AF0005242002800D0D5E20B980C9901F096F9BB
:103B0000002800D0A2E3002200230B980C9901F0BA
:103B10008DF9002801D000F055FD0B9A0C9B0892FE
:103B20000D938023DB003B40179300D106248023B4
:103B30000D9A1B013B400E93130008990F910B4304
:103B400001D100F0B6FCCC4B50009C46400D6044C7
:103B500001F092F9C94ACA4B01F026F9C94ACA4B89
:103B600001F010F90D9A109011911303C74A0F99A3
:103B70001B0B1A431B921A9100221A981B99C44BD3
:103B800001F0F7F8C34AC44B01F00EF902000B0034
:103B90001098119901F0F6F801F086F90F9001F0F4
:103BA0006BF9BE4ABE4B1090119101F0FDF8002256
:103BB000BC4B01F0E7F801F077F9BB4ABB4B16901C
:103BC0001098119901F0F0F810901191169801F0E9
:103BD00053F9B74AB74B01F0E7F802000B00109811
:103BE000119901F0C6F802000B001090119101F03C
:103BF000DBF8149015911098119902000B0001F058
:103C0000C1F800221E901F9114981599AA4B01F03B
:103C1000C2F80022A94B01F0B5F802000B0014987D
:103C2000159901F0B8F80022A54B01F0ABF802009D
:103C30000B001498159901F0AEF8109A119B14908E
:103C4000159180210020C90501F093F802000B00B6
:103C50001498159901F096F802000B001E981F9910
:103C600001F099F80022894B01F08CF8169B1A009C
:103C7000944B9C46624413051D9300231C931C9A8D
:103C80001D9B01F091F81490020016910B0008980A
:103C90000D9901F0CBF800280AD00F9B1498013B36
:103CA0000F9316990022854B01F075F81490169128
:103CB000C6230F9A633293429B415B4204331093B5
:103CC0000E9B002B1DD0169B149A134301D100F0BC
:103CD000C1FC7D4A7D4B08980D9901F0ADF8002894
:103CE00009D000227A4B08980D9901F09FF800281E
:103CF00001D000F0AFFC002C03D0179B5A1E93415B
:103D0000E41A00230E93109B9B4502D95A46D31AFE
:103D10000E9302233B40179306D0109B5A42534107
:103D20000E9A5B421A400E920F9B002B07D0089808
:103D30000D99149A169B01F02EF808900D9100220F
:103D400000230B980C9901F071F8002805D0802011
:103D5000000684460D9961440D910D99089A0B0057
:103D6000089801F076F8002801D000F0E2FC01226A
:103D7000404B524208980D9901F058F8002801D0A4
:103D800000F075FC534B089A3B4004930E9B029441
:103D900003930D9B49460092019350462A004346E7
:103DA000FFF782F90200109B002B00D170E1202068
:103DB00007403B0059424B4100275B42511C1840D1
:103DC0000B91434649464530D0470F9A109BD11777
:103DD000013B54180D93D20F20AB0E954C403D0083
:103DE0000C9208930F961F0002E03500202E0DD094
:103DF00020000A2100F078FD6E1C30317D192970F9
:103E000020000A2100F070FD041EEED10523069368
:103E10000D9B32000593002304930A3303930C9BFC
:103E200001920293089B0B9A0093494643465046E1
:103E30000E9D0F9EFEF7CEF9179B0200002B00D1BE
:103E400026E1431B9B4500D822E15C465746531CA4
:103E50009A46494643462020B8475246531B9C4247
:103E6000F5D8BA461500FFF7DAFB0E0045E4C04668
:103E7000FFFFEF7FFFFFEFFF01FCFFFFFB799F508C
:103E80001344D33FB3C8608B288AC63F0000F03F7D
:103E90000000F83F61436F63A787D23F71A37909A0
:103EA0004F930A400000E03F1655B5BBB16B02408E
:103EB000EF39FAFE422EE63F00002C40000024407D
:103EC00000001840FF0300002D431CEBE2361A3FB0
:103ED00080842E41FFF7FFFF1022390091431132F9
:103EE00011430A917A0500D4B6E420AB002108936F
:103EF000CAE4002801D100F0F6FB611E1A0053E469
:103F000080231022DB003B400C920C2297430B973E
:103F10003A00002B02D001239A430B9280270B9B7F
:103F2000BF001F40692800D11BE5642800D118E5B7
:103F3000002F00D07CE280230B9A5B001A40130014
:103F400094460A9A04320D92002B00D050E30B9B4A
:103F50005B0600D445E30A9B1878002807D10B9A2A
:103F60001023110099430B91520500D5BFE30B9B21
:103F700061279B0600D5412720ABFFB20A950E941E
:103F80000F9608930A3F65460C9C1E000AE03033EA
:103F9000DBB26A1C7355002800D111E2202A00D13F
:103FA0000EE21500210000F09FFCCBB20929EED9EA
:103FB000DB19DBB2EDE75B46012B00D8A7E36B1EF4
:103FC0009B4433005E469B4601E025000134434696
:103FD0002A00494620202700D047B442F5D15E464A
:103FE00002350A9B3A00187849464346D047089B59
:103FF0000A93FFF714FB20231F43FFF7A4FB0A9A41
:10400000B0781468F11CE343DB171C40131D0A93BE
:104010000236FFF750FB2C00BB0710D15B46032B89
:104020000DD9EC1E23002A005B4408934346494601
:104030002020541CD047089B22009C42F6D1032329
:104040000893DC4B22000B932B003D001F00089BC4
:104050000B98511C013B0C910893C05C49464346A8
:10406000D047089B0C9A002BF2D13B002F00E21C9A
:104070001D00BB070CD5531B9B4509D95F46541C3B
:10408000434649462020D0472200631B9F42F6D872
:104090001500FFF7C4FAC0239B00B0781F43033616
:1040A000FFF72BFB0B980C9900F0C0FE002800D006
:1040B000CCE07B0700D46BE2BF4B089304230C9346
:1040C0000B95BB071CD10C9B9B4500D82DE35A4692
:1040D0005419E41A33002A004E46A94655469A461A
:1040E0000D97571C434631002020A8473A00BC4298
:1040F000F7D15346AA464D46B1461E000B970D9F79
:10410000330056469A460B9A0C9C0D95089B013C31
:10411000551C185D49464346B0472A00002CF5D18E
:1041200053460B99B2468C461E000C9B0D9D634472
:104130001A00BB07ACD5531B9B45A9D933005C467D
:104140004E4657469946531C9A4631004346202016
:10415000B8475246531B9C42F5D84B46BA46B14627
:1041600015001E00FFF75BFAC023B0781F4303362B
:10417000FFF7C3FA089B9B4501D8FFF760FB5A463F
:104180005419E41A33002A004E4657469946013521
:10419000434631002020B8472A00A542F7D14B46BC
:1041A000BA46B1461E00FFF74AFB089A531C9345D6
:1041B00000D8A8E25B465B199B1A08971F003300E2
:1041C0002A004E46A14654469A46013543463100E0
:1041D0002020A0472A00BD42F7D15346A2464C46B4
:1041E000B1461E005B460133089F08930A9B18786E
:1041F000002801D0FFF702FBFFF721FB0C233A0058
:104200009A4314331A430B927B0500D4C7E0102362
:104210000C9380E6109B5E469B460E9D0F9C0B9B6D
:10422000049406935B4605930C9B03930A9B0293AD
:10423000089B019200932A00434649465046FDF7E9
:10424000C9FF0D9B05000A93FFF7E9F90B95BB0722
:104250001BD15B46042B00D8B0E233002C1F2A0090
:104260004E46A94655469A465C440897571C434615
:1042700031002020A8473A00A742F7D15346AA466A
:104280004D46B1461E000B97089F4C4B04240893E3
:1042900033004E46B94657469A460B9A0C95089BF2
:1042A000013C551C185D31004346B8472A00002CDC
:1042B000F5D15346BA464F460B9AB1460C9D1E00A7
:1042C0000432BB0700D4E3E6531B9B4500D8DFE66E
:1042D00033005C464E4657469946531C9A46310079
:1042E00043462020B8475246531B9C42F5D834E73A
:1042F00007220A9B07339343013294469C4462464B
:104300005F680A921A68FB171893199318981999FD
:104310000300534012930B007B4013939446129A70
:10432000139B121A8B41129213936246FB0F149344
:104330003A4307D10B9A1023110099430B91520570
:1043400000D5E7E10B9A6123920600D54123DBB249
:1043500020AA0A3B0E950F9410960027129C139DDD
:1043600008920D930C9E0CE03032D2B2089C7B1C5C
:10437000E255020004000D000A433FD0202B3DD03F
:104380001F00320000232000290000F0F3FAD2B20F
:10439000092AE9D90D9B9C466244D2B2E6E7802304
:1043A0009B001F40F13BFF3B0C93C1E50A230C939C
:1043B000B1E5C046708200107C820010748200104B
:1043C0000A9D0E9C0F9E0B9B049406935B460593DF
:1043D0000C9B039300232AE708230C938023DB0024
:1043E0003B40642800D090E53A000B97002B00D0AA
:1043F00091E58027BF001740FFF7B3FA1294139599
:10440000109E0F9C0E9D0B9A049406925A4605929C
:104410000C9A01930392149A0292089B2A0000932B
:10442000494643465046FDF7D5FE0500FFF7F7F82D
:1044300007220A9B07339343013294469C44624609
:1044400003CB03000A920B4307D10B9A10331700DA
:104450009F430B97520500D563E10B9A61239206A7
:1044600000D54123DBB220AA0A3B0E950F9400270A
:1044700008920D930C9C109615000CE03032D1B2CE
:10448000E95518007A1C3100334300D185E0202A19
:1044900000D182E017002200002300F06BFAD2B2B4
:1044A00003000E00092AE9D90D998C466244D1B265
:1044B000E6E70E9B002B00D0C7E00D9B14911693EE
:1044C0000423109300230F931BE40A9B64195B1BC6
:1044D0000A9333002A004E46B94657469A4608E0EA
:1044E00043463100551CB8470A9B585D002862D0EE
:1044F0002A00A242F4D153461500BA464F46B146AF
:104500001E00FFF798F90B9B1B0600D4F7E00A9BEF
:1045100000229B5EFFF73DFA0A9B1B68DA1798188A
:104520005040DA0F0E92002B06D10B9A1033110077
:1045300099430B9152051FD40B9A6123920600D523
:104540004123DBB220AA0A3B08920A9309E03033E8
:10455000DBB208997A1CCB55002810D0202A0ED047
:1045600017000C9900F0C0F9CBB20929EFD90A9ACB
:1045700094466344DBB2ECE7002220AB08930B9B2C
:10458000049406935B4605930C9B03930E9B4EE6A7
:104590008D4B089303230C9392E50E9D0F9C109E68
:1045A0000B9B049406935B4605930C9B019203932B
:1045B0000023029331E75346BA464F46B1461E00E8
:1045C000FFF739F98022120694460B9B08930C9B47
:1045D00063440D93FFF7A5FA250008E502230C9329
:1045E000FCE60B9B1B0600D498E00A9B1888B4E4F9
:1045F0000A9B1868002806D10B9A102311009943D2
:104600000B91520573D40B9A6123920600D5412376
:10461000DBB220AA0A3B08920A930BE03033DBB2EC
:1046200008997A1CCB55002800D1CCE6202A00D16D
:10463000C9E617000C9900F057F9CBB20929EDD95A
:104640000A9A94466344DBB2EAE70D9B14911693F1
:1046500000230F930F9B9C4257DDE41A013C8023FB
:10466000DB001F43002310930F93FFF74AFB0B95CA
:10467000BB070FD10E9B042B59D99C462A002C1F37
:104680006444531C0B93494643462020D0470B9A61
:104690009442F6D104244D4B0B9A08930C97089B37
:1046A000013C571C185D49464346D0473A00002C50
:1046B000F5D10B9A179B0C9F0432002B01D1FFF709
:1046C00072FB0E99531B8B4201D3FFF76CFB4346E1
:1046D00049462020541CD0470E992200631B8B4270
:1046E000F5D3FFF760FB00230893FFF775F820ABC5
:1046F0000022089367E620AB002208938FE50A9B0F
:104700001B68FFF746F9089372E50024A7E72F001E
:10471000250066E420AA0023089274E60A9B186824
:104720001BE420AB002208933AE70B95E8E40B95D5
:10473000B0E72C00BB0710D10E9B032B0DD99C4674
:104740002A00EC1E64440894434649462020541C29
:10475000D047089B2200A342F6D1032308931C4BA9
:1047600022000B932B003D001F00089B0B98511C4F
:10477000013B0C910893C05C49464346D047089BD7
:104780000C9A002BF2D13B002F001D00179BE21C5E
:10479000002B01D1FFF707FB0E99531B8B4201D36E
:1047A000FFF701FB434649462020541CD0470E9991
:1047B0002200631B8B42F5D3FFF7F5FA0B9564E5F6
:1047C000063B17000C9309E68482001074820010E7
:1047D0007082001000B585B0039101210290009312
:1047E000034813004A4202A9FEF704FF05B000BDCA
:1047F000B921001010B5094A84B01468002C09D002
:10480000012200910300524203A90548A04701205C
:1048100004B010BD00F0D6FF0020F9E76C0F0020B7
:10482000C921001001480421014B1847C002002093
:1048300055480010142310B50100188804331B8854
:10484000984710BD162310B50100188802331B8845
:10485000984710BDF0B5C64600B5002916D0142300
:104860000400012598461827890046184346216808
:1048700018883B88984701C4431E98414042054030
:10488000A642F3D1280004BC9046F0BD0125F9E70B
:10489000144A936F9B0815D29066D166002905D003
:1048A000FFE7FFE7FFE7516F106F704704B5802106
:1048B0000906C2175140002800D0C84303F03CFB52
:1048C000002104BD936F5B08FDD3F0B5946ED56EE7
:1048D000576F166FFFF7E0FF9466D5665767166748
:1048E000F0BD0000000000D0134A936F9B0813D264
:1048F00010665166002905D0FFE7FFE7FFE7516F1B
:10490000106F704704B5002801D00020C04303F0A9
:1049100013FB002104BDC046936F5B08FDD3F0B5C7
:10492000946ED56E576F166FFFF7E2FF9466D566EB
:1049300057671667F0BD0000000000D094464E4A4D
:10494000926F9208624601D230E0C046F0B54A4EFE
:10495000B56F6D08FCD3346E756E776F366F00F0EF
:1049600025F89446444A14665566576716676246AA
:10497000F0BDC0469446404A926F9208624601D20A
:1049800058E0C046F0B53C4EB56F6D08FCD3346EB0
:10499000756E776F366F00F04DF89446364A1466A0
:1049A0005566576716676246F0BDC046002B24DB8C
:1049B00011D000293EDA00B5C943404200D101318F
:1049C00000F038F8C943404200D10131DB43524284
:1049D00000D1013300BD002AEBD1002801D100290C
:1049E00005D00020C90FC90701D1C043410800B557
:1049F00003F09AFA0022002300BD00B500290ADB6B
:104A0000DB43524200D1013300F014F8C943404265
:104A100000D1013100BDC943404200D10131DB4327
:104A2000524200D1013300F005F8DB43524200D17D
:104A3000013300BD002923D1002B18D1002A0CD04E
:104A4000BC460D4F38667A6600210023FFE7FFE77A
:104A5000FFE77A6F386F67467047002801D0074834
:104A6000010000B503F060FA0022002300BD02003F
:104A70000B00002000217047000000D0FFFFFFFF67
:104A8000002B00D0BDE0130C26D1002AE7D080B463
:104A9000104F39667A66FFE7FFE730B4040C7B6F8E
:104AA000396F1B0423433B66FFE7FFE7FFE7C04680
:104AB00084B27B6F3D6F1B0423433B66FFE7FFE738
:104AC000C04600232C042D0C7A6F386F0019694101
:104AD000B0BC7047000000D0F0B594460025140E1D
:104AE00001D112020835140F01D112010435940FBF
:104AF00001D192000235D40F01D152000135D40BFF
:104B00000134254F7C66254C3C660E0C93B2FFE7C2
:104B1000FFE7FFE73C6F6643360C7703BE467343FF
:104B2000DF0B5B04C01AB941130C7343DB18C91ABD
:104B3000CE086643360CB64493B273431F0F1B0175
:104B4000C01AB941130C73431F0B1B05C01AB9419E
:104B5000860D8F023E436643360C092D24DB520A34
:104B60007243801A7703460A6643360C16235B1B92
:104B7000DE40DF40BF1964466643821B7046043541
:104B800006330100D940A840C01900D30131A24228
:104B900006D20023F0BD0000000000D0FFFFFFFFA1
:104BA000121B0130F3D3F1E709277F1BFE40644657
:104BB000A2B27243801A00D20139220C7243130C44
:104BC0001204821A99410B00704604351337010014
:104BD000F940A840801900D30131002B02D1A24234
:104BE0000AD2F0BD013000D30131121BFAD2013BD1
:104BF000F8D1A24200D2F0BD013000D30131121B26
:104C0000F7E7F0B51C0C00D080E00CB400251C0ABE
:104C100004D11B02160E3343120208351C0B04D1BB
:104C20001B01160F3343120104359C0B04D19B006A
:104C3000960F334392000235DC0B02D192185B4190
:104C400001351C00971864410134464F7C66464C80
:104C50003C660E0CFFE7FFE7FFE7C0463C6F66438C
:104C6000360C7703BE4697B27743C01B00D201399A
:104C7000C01B00D201399FB27743C91BC91B170C57
:104C800077437E04FF0B801BB941CE086643360C88
:104C90000C2D33DBB644120B1F053A431B0B97B2A6
:104CA0007743C01B00D201399FB27743C91B170C51
:104CB00077433E043F0C801BB941860D8F023E4373
:104CC000664329277F1BFE400C3D7746AF40BF1946
:104CD00030BCA2B2ABB272437343801A9941220C2A
:104CE0007243130C1204801A994102000B00013721
:104CF000001BA941F9D2781E0021F0BD0C277F1BB3
:104D0000FE4077467F0BAF40FF19E0E700245D1CB3
:104D100007D0144F7D663966FFE7FFE7FFE7FFE73F
:104D20003C6F95B29EB265436643401BB141150C82
:104D30001E0C6543664336042F0C3E432D04401B76
:104D4000B141994204D202000B0020000021F0BDC5
:104D500001D19042F7D3801A994101349942F2D39C
:104D6000F6E70000000000D0FFFFFFFF4840414091
:104D7000484018B4114B5B68FC46019308BD04DF42
:104D8000874F001018B40D4B1B68FC46019308BDFB
:104D900000DF914F001018B4084BDB68FC4601930C
:104DA00008BD0CDF4952001018B4044B9B68FC4648
:104DB000019308BD08DFED5000100000B00F002087
:104DC000FFB550404240504059404B40594000E0F0
:104DD000FFB5154F4C00640D03D0BC4204D10C0349
:104DE00014D80020090D09055C00640D03D0BC42F5
:104DF00004D11C030AD800221B0D1B0501264B40C1
:104E000009D44B4003D58B4200D18242FFBD994269
:104E1000FCD19042FFBD0B43DB1803431343F5D095
:104E2000C9434918FFBD0000FF07000000B5FFF7A8
:104E3000CFFF804100BDC04600B5FFF7C1FF01D9DB
:104E4000002000BD012000BD00B5FFF7B9FF804183
:104E500000BD012040054A00121804D85A0012185B
:104E600001D80020704701207047002070470000E3
:104E70000021002805D17047C1174840401AFAD0D8
:104E8000C90713B5064B1B6898470CBC441CA240CD
:104E90001005120B0349091B09051943114310BDE5
:104EA000B01100201F04000010B54C00620D8023DB
:104EB000D218DB00D21A5B057E2A10DD9E3A13DA87
:104EC000CC170903490819435242D1406400013408
:104ED0001532202A05DAD0400843604310BD002077
:104EE00010BD0846604310BDC80FC018013810BD82
:104EF00018B4044B5B6AFC46019308BD24DF75546B
:104F000000100000B00F0020132370B51C78012C96
:104F10000CD015DD0C48FFF795FC0C4D01008022EC
:104F2000280000F075FB022C0BD070BD074D084A1D
:104F300029002B00803104C38B42FCD1AA64F4E722
:104F4000024D034AAA64F0E753440000B00F00206A
:104F5000554F001007B5604601880A0A0230DF2A63
:104F6000FAD1C9B2820804D30288408800041043F1
:104F700000E00068014A5050039007BDB00F0020C8
:104F80000FB403BC0CBCF0B50124E407634000E09F
:104F9000F0B50C0DCF0F661E3605891B640503D3D3
:104FA000C943404200D30131640D03D0661CF60AA8
:104FB00007D0E41B00207F00791C89078912803C00
:104FC00024031D0DDF0F6E1E36059B1B6D0503D3DD
:104FD000DB43524200D301336D0D03D06E1CF60A41
:104FE00007D0ED1B00227F007B1C9B079B12803D9E
:104FF0002D032F1B661B58D4A446202E46DA2037DB
:105000001400BC401D00BD40F24033412A438018CB
:105010005941CB0F05D0C943C043002264425041DF
:10502000514162464D0D28D10D0D07D100281FD0EA
:10503000241940414941013A0D0DF9D0640006D3CD
:10504000013000D30131002C01D140084000013A69
:105050000BD4941CE40A04D112051144DB07194453
:10506000F0BDD907204B194300E0D9070020F0BD5F
:105070000029DDD1002CDBD1F0BD0132C60740088C
:10508000CD0728434908002EE1D0D9E73C2E29DA84
:10509000203E40371400BC4000D00124F2401443AD
:1050A0001A00BB401C43D317ACE7AC46202F08DAEC
:1050B00020360400B4400D00B540F8403941284383
:1050C000A5E73C2F0CDA203F40360400B44000D066
:1050D0000124F84004430800B1400C43C117EAE73B
:1050E00010001900002494E70000F07FF0B50C0DCB
:1050F000661E3605891BE60A6405640D02D0651C30
:10510000ED0A04D0002001210905803C2403A446B7
:105110001C0D671E3F05DB1BE70A6405640D02D00A
:10512000651CED0A04D0002201231B05803C2403EA
:105130007740644497B484B296B27443070C7E43BC
:10514000150C6F4380B26843361802D30120000467
:105150003F183004350C00197D41844688B29AB25C
:1051600050430C0C62431F0C7C438EB27E43921959
:1051700002D301263604A4191604170C3618674109
:1051800001BC81B29AB25143040C62431B0C5C43D4
:1051900080B25843121802D30120000424181004CE
:1051A000130C401863412D185E410020474106BC96
:1051B00088B293B258430C0C6343120C544389B227
:1051C00051435B1802D301210904641819041A0C15
:1051D000091862416D1856410020474118BCF90278
:1051E000720D1143F0026A0D1043ED020A0D03D156
:1051F0006D1940414941013B124E9B1B7600B34261
:105200000ED26D0007D3013000267141664635434A
:1052100001D1400840001B05C918E4072144F0BD36
:105220000BDA013306D1013004D101314F0D01D029
:105230004908F2E7E1070020F0BD01363105002002
:10524000EBE70000FF030000F0B51C0D671E3F05F3
:10525000DB1BE70A6405640D02D0661CF60A04D065
:10526000002201231B05803C2403D0252D060026A7
:10527000F6432E661E096E66CE0FF619B446490037
:105280004F0D02D07E1CF60A03D000200021403FC3
:105290003F033E1BB600B444013F7F05C91B4908CC
:1052A0002E6F013676089C02950D25437543ED134C
:1052B0007543AD1301356D10F603761B0CB4CC02AB
:1052C000450D2C43A2B2B3B25A43270C7B43350C95
:1052D0006F43A4B26C431B1902D3012424043F1969
:1052E0001C041D0CA4187D4124196D41009A91B233
:1052F000ACB26143170C7C432B0C5F4392B25A4310
:10530000A41802D301221204BF182204230C52183D
:105310007B41019C6C431B19520ED9010A43440185
:10532000A01A81B2B2B2514303145A43360C7343EC
:1053300087B27743D617D21900277E4136049B19CE
:105340001704160C7F185E417316ED18F301002642
:1053500080337541A90F06D16400690AE8055B0A2C
:10536000184309D22FE00422944480337541A90ADE
:10537000A8059B0A184326D3404149412404009ABA
:10538000019B0D005543641B4343E41A95B286B25A
:105390007543170C7E43030C5F4392B25A43B61811
:1053A00002D301221204BF183204330C52197B417C
:1053B00052429C41002C02D400220130514140084D
:1053C000CA071043490802B06246D7079210084B3B
:1053D000D218084B9A4203D212058918C919F0BD98
:1053E0000020002A01DC3900F0BD01331905F5E782
:1053F000FD030000FE070000624618CA944600291B
:105400001ADAC01861415B463B415C46B4405246E3
:10541000FA40224344464D4662416B4190469946CC
:105420002B46B3403D41FC401C4352465B46A241E3
:10543000AB4192469B467047C01AA1414B463B4147
:105440004C46B4404246FA40224354465D466241CF
:105450006B4192469B462B46B3403D41FC401C436A
:1054600042464B46A241AB419046994670470020C8
:1054700000217047002200B5203200F004F8080037
:1054800000BD000000220B15F1D410B5944600F0C9
:105490002FF81414013400DA0021CB17134C2047E5
:1054A0006244343A0CD40C2A07DA0400914090404C
:1054B00052422032D440214310BDD843D94310BDBD
:1054C000203207D40C469440524220321141D04041
:1054D000204310BD0800C917203203D452422032A5
:1054E000104110BD1800190010BD0000A15400109B
:1054F0000A0DCC0F531E1B05C91A520503D3C9430D
:10550000404200D30131520D03D0531CDB0A07D0B7
:10551000121B00206400611C89078912803A120363
:10552000014BD21A70470000FF0300005143434370
:10553000C9188C46110C83B24B4310B4040C614360
:1055400092B280B2504362431C041B0C001910BC81
:1055500059411304120CC0185141614470470000B6
:10556000132310B51C781348FFF76CF9012C0BD0EE
:1055700004DD01008022104800F04AF80F48FFF7D0
:1055800059F90F4B186010BD0B4C0100542220003C
:1055900000F03EF80B4B6365A365E3652366636625
:1055A000A366E36623676367A367E3672362E36138
:1055B000E4E7C04653460000B01000204C33000022
:1055C000B0110020C955001007B5604601880A0ACD
:1055D0000230DF2AFAD1C9B2820804D30288408897
:1055E0000004104300E00068014A5050039007BDDA
:1055F000B010002001480421014B1847D0020020C0
:1056000055480010014B1B6818470000D0020020CD
:10561000014B5B6818470000D0020020F0B5C64679
:10562000070000B50C00151E30DD0A78037C002051
:105630000A2A2ED00121012D1BD01A4B984602E0D8
:105640003100AE4215D04B1EE25C635C4E1C0A2B4F
:10565000F6D10D2AF4D03B68884203DA091A2018E3
:1056600098473B6802214046984730003100AE42DF
:10567000E9D1854203DD291A3B682018984764194F
:10568000013C23780D3B5A4253413B7404BC904685
:10569000F0BD002BCED1034802213B689847012082
:1056A000C8E7C04638830010F0B5C6460B6800B5A1
:1056B00006000D00802B06D05A1C2A60ED182E71B2
:1056C00004BC9046F0BD124B1C68002C17D00B1D7B
:1056D000104F984602E0E468002C10D02368002B9D
:1056E000F9D03A68002A01D0A242F4D1607C29683E
:1056F000002807D140469847E468002CEED10122EB
:105700000023DAE70A0020004146FFF787FFE2E7BF
:10571000880800208C080020F0B5CE46474680B5AA
:1057200083B06B46DE1CD02330701B061C68224BF6
:10573000804601A91800994602F006FC071E2DD1EB
:10574000019B9C4225D0484602F00EFC1B4B0127D2
:105750001C68002C26D01A4D02E0E468002C10D002
:105760002368002BF9D02A68002A01D0A242F4D184
:10577000627C002A1AD1012130009847E468002C8D
:10578000EED1002F0ED1404603B00CBC9046994696
:10579000F0BD0A4B1C68002CDDD1F4E7074B1C68F8
:1057A000002CD8D1484602F0B7FBECE701223100CB
:1057B0002000FFF733FFD0E73003002088080020E7
:1057C0008C080020F0B5DE46454657464E46E0B50B
:1057D00083B0804602F06CFBD02301AD1B060700AE
:1057E00029003C481C6802F0AFFB834600284DD1DD
:1057F000019B9C4244D0374802F0B6FB364B9A4698
:105800001C6801239B46002C45D00A2399463B0087
:10581000324E4746984602E0E468002C19D02368CF
:10582000002BF9D03268002A01D0A242F4D1627C68
:10583000002A40D14146380098474B462B70627C85
:105840002368002A2BD1012128009847E468002C06
:10585000E5D15B464746002B1DD153461C68002C02
:1058600006D06368002B2CD09847E468002CF8D150
:10587000380003B03CBC90469946A246AB46F0BD0A
:10588000154B1C689A46002CBFD1F1E7124B1C68DF
:105890009A46002CB9D10F4802F03EFBDDE7227C8E
:1058A000002A12D102210E4898472B780D3B5A420C
:1058B00053412374B0E7424639002000FFF7AEFEA3
:1058C000BBE7E468002CCCD1D2E70121280098473F
:1058D000EBE7C04630030020880800208C08002039
:1058E000388300100D4B1A68002A12D0824203D16F
:1058F00009E0984207D01A00D368002BF9D100299B
:1059000000D0D06070470029FCD1C368D360C1606B
:10591000F8E70029F6D01860F4E7C04688080020B0
:10592000F0B54746CE46D02380B51B06304FA3B016
:105930001B6804000D00380001A9984602F004FB22
:10594000061E06D1019B984503D0380002F00CFBDF
:1059500001368422002101A8FFF754FE2B0022000B
:1059600001A92448FEF736FF019B8046002B17D182
:10597000214B1C68002C06D06368002B0ED0984782
:10598000E468002CF8D1002E02D0380002F0C4FAEE
:10599000404623B00CBC90469946F0BDE468E9E768
:1059A000154B1D689946002D1FD0144C02E0ED6880
:1059B000002D10D02B68002BF9D02268002A01D0CE
:1059C000AA42F4D1687C0199002808D102A898471E
:1059D000ED68002DEED14B4601951C68CAE70A0020
:1059E000280002A9FFF71AFEE1E70195CBE7C046C0
:1059F00030030020A9560010880800208C080020E1
:105A00000FB400B583B004A901C90191FFF788FF65
:105A100003B008BC04B0184710B500F047F800F018
:105A20009BF910BDF0B5002915DD0E4B0D271A6846
:105A30000D4B4118D3185C4263410C4C5B001E5F58
:105A400020240578AE4207D093691C42FCD1013076
:105A500015608842F5D1F0BD93691C42FCD11760F6
:105A6000F2E7C046A00F00200080FCBFAC0F002072
:105A700030B5002915DD0C4B1A689369DB0610D48C
:105A800000251024013593691C42FCD11368037072
:105A9000A94204D0936901301C42F3D029000800C8
:105AA00030BD03204042FBE7A00F0020E12110B5EC
:105AB0000B4B0C481B780C4B49021B780B4B1860A6
:105AC000FAF7F2FD02210020FAF700FD0221012081
:105AD000FAF7FCFC01210648FFF704FF10BDC046A1
